:100000000C94CC010C94F4010C94F4010C94F401C4
:100010000C94F4010C94F4010C94F4010C94F4018C
:100020000C94F4010C94F4010C94F4010C94F4017C
:100030000C94F4010C94F4010C94F4010C94F4016C
:100040000C9412060C94F4010C94F4010C94F40139
:100050000C94F4010C94F4010C94F4010C94F4014C
:100060000C94F4010C94F40100000000230026001D
:10007000290060F0F06060909060000000000000D7
:10008000005F00000007000700147F147F14242A7B
:100090007F2A122313086462364955225000050353
:1000A0000000001C2241000041221C0014083E08F0
:1000B0001408083E08080050300000080808080826
:1000C000006060000020100804023E5149453E00D7
:1000D000427F400042615149462141454B3118144D
:1000E000127F1027454545393C4A4949300171097D
:1000F00005033649494936064949291E0036360066
:100100000000563600000814224100141414141480
:1001100000412214080201510906324979413E7E0C
:100120001111117E7F494949363E414141227F41AB
:1001300041221C7F494949417F090909013E414942
:10014000497A7F0808087F00417F41002040413FF5
:10015000017F081422417F404040407F020C027F13
:100160007F0408107F3E4141413E7F090909063E58
:100170004151215E7F09192946464949493101010A
:100180007F01013F4040403F1F2040201F3F40383B
:10019000403F63140814630708700807615149451C
:1001A00043007F41410002040810200041417F00CC
:1001B00004020102044040404040000102040020CB
:1001C000545454787F484444383844444420384494
:1001D00044487F3854545418087E0901020C525286
:1001E000523E7F0804047800447D40002040443D96
:1001F000007F1028440000417F40007C04180478F0
:100200007C0804047838444444387C1414140808E6
:100210001414187C7C080404084854545420043FE7
:100220004440203C4040207C1C2040201C3C40306E
:10023000403C44281028440C5050503C4464544CDA
:1002400044000836410000007F00000041360800ED
:100250001008081008784641467800000010000099
:1002600000000820000000084000000008400000D6
:100270000008400000001FC00000003CE00000003B
:10028000E470000001804800000180480000008008
:1002900008000007FC1A000000801A000000C00ED1
:1002A000000000600807FE0038180C81FFF81030CD
:1002B0008000081020400000004040000000402066
:1002C00000000040200000004020000000802000CE
:1002D0000000803000180083100070008E1003C0F2
:1002E00000F0100F8040C010390060C010C3003013
:1002F00040118200104017040010201C0C00103028
:10030000180800101FF008009000100F00D0000027
:100310007C00720001860C3E0000021020000003E9
:100320002640000001A340000000E18000000061C1
:10033000800000005EC0000000404000000000207F
:10034000000000003000000000240027002A000008
:10035000000000250028002B000404040404040409
:100360000402020202020203030303030301020464
:100370000810204080010204081020010204081027
:100380002000000008000201000003040700000034
:10039000000000000000450711241FBECFEFD4E08D
:1003A000DEBFCDBF11E0A0E0B1E0E2E7F9E102C0BD
:1003B00005900D92A233B107D9F723E0A2E3B1E093
:1003C00001C01D92A933B207E1F711E0CCECD1E0F6
:1003D00004C02197FE010E94A108CB3CD107C9F7B8
:1003E0000E945C060C94B70C0C940000833081F0E2
:1003F00028F4813099F08230A1F008958730A9F077
:100400008830B9F08430D1F4809180008F7D03C0B2
:10041000809180008F7780938000089584B58F77D6
:1004200002C084B58F7D84BD08958091B0008F7720
:1004300003C08091B0008F7D8093B00008951F931A
:10044000CF93DF93282F30E0F901EF57FC4F8491D1
:10045000F901E359FC4FD491F901E75AFC4FC491DB
:10046000CC23C1F0162F81110E94F601EC2FF0E091
:10047000EE0FFF1FE15BFC4FA591B4919FB7F8947D
:10048000111104C08C91D095D82302C0EC91DE2BC1
:10049000DC939FBFDF91CF911F910895CF93DF939E
:1004A00090E0FC01E359FC4F2491FC01E75AFC4F1A
:1004B0008491882361F190E0880F991FFC01EB5B28
:1004C000FC4FC591D491FC01E15BFC4FA591B49127
:1004D000611109C09FB7F894888120958223888391
:1004E000EC912E230BC0623061F49FB7F8948881A1
:1004F000322F309583238883EC912E2B2C939FBF32
:1005000006C08FB7F894E8812E2B28838FBFDF9128
:10051000CF9108958E3008F08E508770806480935C
:100520007C0080917A00806480937A0080917A00C8
:1005300086FDFCCF809178002091790090E0922B8D
:1005400008953FB7F8948091310390913203A091C0
:100550003303B091340326B5A89B05C02F3F19F093
:100560000196A11DB11D3FBFBA2FA92F982F882733
:10057000820F911DA11DB11DBC01CD0142E0660F8E
:10058000771F881F991F4A95D1F708958F929F92E0
:10059000AF92BF92CF92DF92EF92FF926B017C01FC
:1005A0000E94A1024B015C01C114D104E104F104D9
:1005B000F1F00E94A102DC01CB0188199909AA0976
:1005C000BB09883E9340A105B10570F321E0C21A32
:1005D000D108E108F10888EE880E83E0981EA11C7E
:1005E000B11CC114D104E104F10419F7DDCFFF906F
:1005F000EF90DF90CF90BF90AF909F908F90089535
:10060000FC01DC011B969C012B5F3E4F41E08D916C
:1006100092858F3F39F4868198131AC085818F5F48
:10062000858307C0891301C04783A217B30779F7F1
:10063000F2CF882351F0DF01A80FB11D19962C913C
:1006400019971A962C938150F4CF92878FEF868357
:100650000895AF92BF92CF92DF92EF92FF920F93E5
:100660001F93CF93DF93EC018F81811137C08EE010
:100670000E948A0223E030E0DC010E948608C12C3F
:1006800034E0D32EE12CF12CA70196010E9403083F
:100690001FEF120F8FE00E948A0223E030E0DC019E
:1006A0000E948608A70196010E9403082150112389
:1006B00049F08C818250823008F434C011167CF5E8
:1006C00082E02EC0222309F42FC08C81823060F199
:1006D000121614F41C8228C081E022C009E813E03D
:1006E00095E7E92E93E0F92E21E6C22E23E0D22EE3
:1006F000F8018491F701A490F601B490BB2071F049
:1007000081110E94F601EB2DF0E0EE0FFF1FE8597A
:10071000FF4FA591B4918C918A2151F71F8283E0FC
:100720008C8302C02111D4CFDF91CF911F910F9103
:10073000FF90EF90DF90CF90BF90AF9008950F9310
:100740001F93CF93DF93082F60E086E00E941F0283
:10075000C7E0D0E010E0B8010C2E02C07595679597
:100760000A94E2F7617084E00E941F0261E083E076
:100770000E941F0260E083E00E941F02219758F749
:1007800061E086E0DF91CF911F910F910C941F02E1
:10079000CF93C82F61E085E00E941F028C2FCF917C
:1007A0000C949F03EF92FF920F931F93CF93DF93CD
:1007B0008C01F801C1918F01CC23D9F0F5E0CF0273
:1007C000E0011124E12CF12CC05AD109FE01EE0DFB
:1007D000FF1DE658FF4F84910E94C8038FEFE81A6F
:1007E000F80AE5E0EE16F10489F780E00E94C803FC
:1007F000E0CFDF91CF911F910F91FF90EF9008957F
:10080000CF93C82F60E085E00E941F028C2FCF910C
:100810000C949F03EF92FF920F931F93CF937C0151
:10082000C0E080E80E9400048C2F80640E940004D5
:1008300000E010E0F701E00FF11F80810E94C80383
:100840000F5F1F4F04351105A9F7CF5F84E5E80E50
:10085000F11CC63031F7CF911F910F91FF90EF90AF
:1008600008952F923F924F925F926F927F928F9254
:100870009F92AF92BF92CF92DF92EF92FF920F932F
:100880001F93CF93DF93CDB7DEB760970FB6F89481
:10089000DEBF0FBECDBF9C838B837E836D83822F93
:1008A00090E0988B8F87A12CB12C8E0D911D9A878B
:1008B0008987202E312C91012C0D311D3C872B87EF
:1008C000CA0199279E878D8720E3422E512C612CE7
:1008D000712C2F85388989859A85281739070CF05E
:1008E00064C0410197E0E92EF12C022E000C330B7D
:1008F00038872F838B859C85881699060CF04CC011
:100900002D853E85A216B3060CF042C0F7FE06C048
:100910003FEFA31AB30A87E0E82EF12CED81FE81A8
:10092000EA0DFB1DC590D49026E030E0082D082C80
:10093000000C110BD8010E948608A30192010E94AD
:100940000308EB81FC8184E5829FE00DF11D1124F9
:100950008F819885E80FF91FDD240E2C02C0D594F5
:10096000C7940A94E2F79C2D917099831A8238E01B
:10097000239F00191109112489819A8101C0880FD0
:100980000A95EAF79081892B808381E0E81AF108C3
:100990009FEF891A990AAECF2FEFA21AB20A8F855C
:1009A00098890196988B8F8794CF60960FB6F894AC
:1009B000DEBF0FBECDBFDF91CF911F910F91FF9092
:1009C000EF90DF90CF90BF90AF909F908F907F90EF
:1009D0006F905F904F903F902F9008950E94C809AC
:1009E0006F927F928F929F92AF92BF92CF92EF922F
:1009F000FF920F931F93CF93DF9300D000D01F92ED
:100A0000CDB7DEB75C01FC014085518526E080E072
:100A100090E0FA01E80FF91F1082019684359105E4
:100A2000C1F721504C5A5F4F2111F1CFF501878159
:100A300081114BC04501FAE08F0E911C35012BEF5F
:100A4000621A2EEF720A55E1F52EF40181914F01E1
:100A50008F3FC1F06F2D0E946608F4E08F9F8001E8
:100A6000112484E0989F9001112434E0C32E44E0C7
:100A7000E42E44E050E062E770E0F5018085918566
:100A80000E9431046814790401F7F501868165E15B
:100A90000E946608F4E08F9F8001112484E0989FF3
:100AA0009001112484E0C82E94E0E92E44E050E047
:100AB00066E770E0F501808591850E943104F501BB
:100AC000808591850E940A0446C0F5018085918544
:100AD0000E940A04F501958180E02FEF981720F01D
:100AE000392F381B328701C022878F5F31968B3FA9
:100AF000A9F788E80E94000480E40E94000486E1CF
:100B000091E00E94D203F50185811F928F9382E2CA
:100B100091E09F938F938E010F5F1F4F1F930F9351
:100B20000E94CD0981EA0E94000482E40E94000430
:100B3000C8010E94D20384E80E94000484E40E9459
:100B4000000485E291E00E94D2030F900F900F9075
:100B50000F900F900F900F900F900F900F900F909D
:100B6000DF91CF911F910F91FF90EF90CF90BF90A9
:100B7000AF909F908F907F906F900895CF93DF9369
:100B8000FC018481813089F03CF4811129C0828587
:100B900090E089519F4F0DC0823089F0833001F57C
:100BA0004285842F90E001960EC0828590E08F5E92
:100BB0009E4F6CEF70E00E947208282F11C0428592
:100BC000842F90E0019765E170E00E947208282F61
:100BD00035E1842F632F0E946608839F200D112426
:100BE000DF01AA5FBE4F8BEF90E03E913F3F41F0A7
:100BF000009729F0ED01219738813C9301C02287AD
:100C0000019798F786818F3F51F4EF010E94AC075E
:100C10002BEF30E040E050E00E9403086E83DF914C
:100C2000CF9108951F920F920FB60F9211242F9318
:100C30003F938F939F93AF93BF9380912D03909198
:100C40002E03A0912F03B091300330912C0323E0A9
:100C5000230F2D3720F40196A11DB11D05C026E8F4
:100C6000230F0296A11DB11D20932C0380932D0309
:100C700090932E03A0932F03B09330038091310300
:100C800090913203A0913303B09134030196A11DDA
:100C9000B11D8093310390933203A0933303B0933B
:100CA0003403BF91AF919F918F913F912F910F90FE
:100CB0000FBE0F901F901895789484B5826084BD04
:100CC00084B5816084BD85B5826085BD85B5816050
:100CD00085BD80916E00816080936E0010928100CE
:100CE0008091810082608093810080918100816089
:100CF000809381008091800081608093800080914A
:100D0000B10084608093B1008091B00081608093D5
:100D1000B00080917A00846080937A0080917A009C
:100D2000826080937A0080917A00816080937A005B
:100D300080917A00806880937A001092C10081E2ED
:100D40000E9400048FEB0E94000484E00E940004D3
:100D500084E10E94000480E20E9400048CE00E9472
:100D60000004C8EFD1E080E00E94C8032197D9F7C2
:100D700042E351E026E080E090E0FA01E80FF91F3D
:100D80001082019684359105C1F721504C5A5F4F6E
:100D90002111F1CF87E2C82E9FE2E92E00E04BEE51
:100DA00050E06AE572E082E391E00E94310482E360
:100DB00091E00E940A046CEB72E080E090E00E94F7
:100DC000C60286E091E00E94A708EC018EE091E067
:100DD0009983888383E08C8384E08D838FEF8E8377
:100DE0001F8282E391E09987888762E088E00E9411
:100DF0004E029D81FE0180E02FEF981720F0392FE1
:100E0000381B328701C022878F5F31968B3FA9F74D
:100E1000D0932B03C0932A03C0E0D0E080912A0333
:100E200090912B03DC01ED91FC910190F081E02D7C
:100E3000099580912A0390912B03DC01ED91FC919F
:100E40000280F381E02D099580912A0390912B0374
:100E5000DC01ED91FC910480F581E02D09958091F4
:100E60002A0390912B03DC01ED91FC910680F78120
:100E7000E02D099560EF70E080E090E00E94C602EE
:100E8000209761F20E940000C9CF61E087E00E94D4
:100E90004E0261E086E00E944E0261E085E00E9421
:100EA0004E0261E084E00E944E0261E083E00E9415
:100EB0004E0260E087E00E941F0261E087E00C9430
:100EC0001F028F929F92AF92BF92CF92DF92EF92CA
:100ED000FF92CF93DF93EC01688179818A819B81B6
:100EE000611571058105910521F464E279ED8BE5C9
:100EF00097E02DE133EF41E050E00E940308490103
:100F00005A019B01AC01A7EAB1E40E9422086B01DF
:100F10007C01ACEEB4EFA50194010E943008DC0125
:100F2000CB018C0D9D1DAE1DBF1DB7FF03C00197EA
:100F3000A109B04888839983AA83BB83BC01CD01F2
:100F40009F77DF91CF91FF90EF90DF90CF90BF9090
:100F5000AF909F908F9008958F929F92AF92BF9283
:100F6000CF92DF92EF92FF926091000170910101A8
:100F70008091020190910301611571058105910530
:100F800021F464E279ED8BE597E02DE133EF41E068
:100F900050E00E94030849015A019B01AC01A7EAF5
:100FA000B1E40E9422086B017C01ACEEB4EFA50114
:100FB00094010E943008DC01CB018C0D9D1DAE1DFB
:100FC000BF1DB7FF03C00197A109B048809300017E
:100FD00090930101A0930201B0930301BC01CD01E4
:100FE0009F77FF90EF90DF90CF90BF90AF909F9052
:100FF0008F90089560930001709301018093020126
:10100000909303010895052E97FB1EF400940E940F
:101010001A0857FD07D00E94350807FC03D04EF48C
:101020000C941A0850954095309521953F4F4F4F9D
:101030005F4F089590958095709561957F4F8F4F84
:101040009F4F08950E945708A59F900DB49F900D43
:10105000A49F800D911D11240895B7FF0C942208C0
:101060000E942208821B930B0895A1E21A2EAA1B4C
:10107000BB1BFD010DC0AA1FBB1FEE1FFF1FA21748
:10108000B307E407F50720F0A21BB30BE40BF50B45
:10109000661F771F881F991F1A9469F760957095CE
:1010A000809590959B01AC01BD01CF010895A29F51
:1010B000B001B39FC001A39F700D811D1124911D2C
:1010C000B29F700D811D1124911D0895991B79E027
:1010D00004C0991F961708F0961B881F7A95C9F7C8
:1010E0008095089597FB072E16F4009407D077FD9E
:1010F00009D00E948D0807FC05D03EF4909581959B
:101100009F4F0895709561957F4F08950E945708ED
:10111000B7FF0895821B930B0895AA1BBB1B51E1D7
:1011200007C0AA1FBB1FA617B70710F0A61BB70B57
:10113000881F991F5A95A9F780959095BC01CD01FC
:101140000895EE0FFF1F0590F491E02D09940F9381
:101150001F93CF93DF938230910510F482E090E0EB
:10116000E0913703F091380320E030E0A0E0B0E0F8
:10117000309719F140815181028113814817590735
:10118000C8F08417950769F4109731F012960C9304
:10119000129713961C9327C00093370310933803BC
:1011A00022C02115310519F04217530718F49A018E
:1011B000BD01EF01DF01F801DBCF21153105F9F0A9
:1011C000281B390B2430310580F48A819B816115FD
:1011D000710521F0FB019383828304C0909338034F
:1011E00080933703FE01329644C0FE01E20FF31FE5
:1011F0008193919322503109398328833AC02091F9
:10120000350330913603232B41F4209106013091B0
:101210000701309336032093350320910401309168
:1012200005012115310541F42DB73EB74091080164
:1012300050910901241B350BE0913503F0913603E1
:10124000E217F307A0F42E1B3F0B2817390778F09D
:10125000AC014E5F5F4F2417350748F04E0F5F1FFC
:1012600050933603409335038193919302C0E0E09D
:10127000F0E0CF01DF91CF911F910F910895CF93AF
:10128000DF93009709F481C0FC0132971382128228
:10129000A0913703B0913803109781F420813181F8
:1012A000820F931F20913503309136032817390799
:1012B00051F5F0933603E093350367C0ED0120E06C
:1012C00030E0CE17DF0740F44A815B819E01411573
:1012D0005105F1F0EA01F5CFD383C28340815181FA
:1012E000840F951FC817D90759F488819981840FF5
:1012F000951F0296918380838A819B819383828349
:101300002115310529F4F0933803E09337033DC0EC
:10131000E901FB83EA8349915991C40FD51FEC176A
:10132000FD0761F480819181840F951F0296E90188
:1013300099838883828193819B838A83E0E0F0E0B4
:1013400012968D919C911397009719F0FD01DC0185
:10135000F7CF8D919C9111979D012E5F3F4F820F8A
:10136000931F20913503309136032817390769F40C
:10137000309729F4109238031092370302C0138279
:101380001282B0933603A0933503DF91CF91089575
:1013900081E090E0F8940C94B70CAEE0B0E0E3ED9F
:1013A000F9E00C948E0C0D891E8986E08C831A83DB
:1013B00009838FEF9FE79E838D83AE01475E5F4F6A
:1013C0006F89788DCE0101960E94EF09EF81F88533
:1013D000E00FF11F10822E96E4E00C94AA0CABE013
:1013E000B0E0E5EFF9E00C94800C6C017B018A0120
:1013F000FC0117821682838181FFCCC1CE01019648
:101400003C01F6019381F70193FD859193FF819152
:101410007F01882309F4BAC1853239F493FD85919F
:1014200093FF81917F01853229F4B60190E00E94FB
:10143000E60BE7CF912C212C312CFFE1F315D8F0EE
:101440008B3279F038F4803279F08332A1F4232D95
:1014500020611DC08D3261F0803369F4232D21603D
:1014600016C0832D8260382EE32DE4603E2E2AC004
:10147000F32DF8601DC037FC2DC020ED280F2A3059
:1014800040F08E32B9F436FC81C1232D2064322E17
:1014900019C036FE06C08AE0989E200D1124922EB7
:1014A00011C0EAE02E9E200D1124222EF32DF062B1
:1014B0003F2E08C08C3621F4832D8068382E02C060
:1014C000883641F4F70193FD859193FF81917F0167
:1014D0008111B3CF982F9F7D9554933028F40C5FE2
:1014E0001F4F9FE399830DC0833631F0833771F02E
:1014F000833509F059C021C0F801808189830E5FCE
:101500001F4F88248394912C530113C02801F2E0CB
:101510004F0E511CF801A080B18036FE03C0692D2A
:1015200070E002C06FEF7FEFC5010E94DB0B4C0142
:101530008201F32DFF773F2E16C0280122E0420ED4
:10154000511CF801A080B18036FE03C0692D70E007
:1015500002C06FEF7FEFC5010E94D00B4C01F32D4D
:10156000F0683F2E820133FC1BC0822D90E088166C
:101570009906B0F4B60180E290E00E94E60B2A944E
:10158000F4CFF50137FC859137FE81915F01B601FB
:1015900090E00E94E60B21102A9421E0821A910823
:1015A0008114910471F7E8C0843611F0893641F551
:1015B000F80137FE07C060817181828193810C5FE1
:1015C0001F4F08C060817181072E000C880B990B9A
:1015D0000E5F1F4FF32DFF763F2E97FF09C09095AA
:1015E0008095709561957F4F8F4F9F4FF0683F2E8C
:1015F0002AE030E0A3010E94220C882E861845C004
:10160000853731F4232D2F7EB22E2AE030E025C01D
:10161000932D997FB92E8F36C1F018F4883579F063
:10162000B5C0803719F0883721F0B0C0E92FE061EC
:10163000BE2EB4FE0DC0FB2DF460BF2E09C034FEDB
:101640000AC0292F2660B22E06C028E030E005C06F
:1016500020E130E002C020E132E0F801B7FE07C02F
:1016600060817181828193810C5F1F4F06C0608110
:10167000718180E090E00E5F1F4FA3010E94220C59
:10168000882E8618FB2DFF773F2E36FE0DC0232DAA
:101690002E7FA22E891458F434FE0BC032FC09C0F0
:1016A000832D8E7EA82E05C0B82CA32C03C0B82C89
:1016B00001C0B92CA4FE0FC0FE01E80DF11D808110
:1016C000803321F49A2D997EA92E09C0A2FE06C06E
:1016D000B394B39404C08A2D867809F0B394A3FC24
:1016E00011C0A0FE06C0B21488F4280C922C9B18DE
:1016F0000EC0B21460F4B60180E290E00E94E60BE6
:10170000B394F7CFB21418F42B1802C0982C212CE4
:10171000A4FE10C0B60180E390E00E94E60BA2FE9A
:1017200017C0A1FC03C088E790E002C088E590E004
:10173000B6010CC08A2D867859F0A1FE02C08BE25A
:1017400001C080E2A7FC8DE2B60190E00E94E60BAA
:10175000891438F4B60180E390E00E94E60B9A9475
:10176000F7CF8A94F301E80DF11D8081B60190E076
:101770000E94E60B8110F5CF222009F442CEB6017B
:1017800080E290E00E94E60B2A94F6CFF601868173
:10179000978102C08FEF9FEF2B96E2E10C949C0C97
:1017A000FC010590615070400110D8F7809590952C
:1017B0008E0F9F1F0895FC01615070400190011031
:1017C000D8F7809590958E0F9F1F08950F931F93C4
:1017D000CF93DF93FB01238121FD03C08FEF9FEFA8
:1017E0002CC022FF16C046815781248135814217C3
:1017F000530744F4A081B1819D012F5F3F4F318396
:1018000020838C93268137812F5F3F4F3783268338
:1018100014C08B01EC01FB010084F185E02D0995DA
:10182000892BE1F6D80116968D919C911797019618
:1018300017969C938E931697CE01DF91CF911F91AF
:101840000F910895FA01AA27283051F1203181F132
:10185000E8946F936E7F6E5F7F4F8F4F9F4FAF4FB8
:10186000B1E03ED0B4E03CD0670F781F891F9A1FCB
:10187000A11D680F791F8A1F911DA11D6A0F711D7F
:10188000811D911DA11D20D009F468943F912AE08B
:10189000269F11243019305D3193DEF6CF01089573
:1018A000462F4770405D4193B3E00FD0C9F7F6CFA4
:1018B000462F4F70405D4A3318F0495D31FD40526C
:1018C000419302D0A9F7EACFB4E0A6959795879502
:1018D00077956795BA95C9F70097610571050895E1
:1018E0009B01AC010A2E069457954795379527958D
:1018F000BA95C9F7620F731F841F951FA01D089525
:101900002F923F924F925F926F927F928F929F920F
:10191000AF92BF92CF92DF92EF92FF920F931F93FD
:10192000CF93DF93CDB7DEB7CA1BDB0B0FB6F894AE
:10193000DEBF0FBECDBF09942A88398848885F84EE
:101940006E847D848C849B84AA84B984C884DF805F
:10195000EE80FD800C811B81AA81B981CE0FD11D43
:101960000FB6F894DEBF0FBECDBFED010895F89419
:02197000FFCFA7
:10197200010000000000390380000000000029037C
:10198200BE050003F004596F75722073636F7265B0
:101992003A00256400707265737320627574746F07
:0219A2006E00D5
:00000001FF
