:100000000C947A040C94A2040C94A2040C94A20400
:100010000C94A2040C94A2040C94A2040C94A204C8
:100020000C94A2040C94A2040C94A2040C94A204B8
:100030000C94A2040C94A2040C94A2040C94A204A8
:100040000C94AE0C0C94A2040C94A2040C94A20484
:100050000C94A2040C94A2040C94A2040C94A20488
:100060000C94A2040C94A20466F9F966235CD5A250
:100070000000000000C003F8067C0DFC0BFE4FFCE6
:100080006FFE3FF437FC17F811F00000000000008D
:10009000000050004800360278085A27749C317ED0
:1000A00074F1538E76403D807800440030000000AB
:1000B000000000F000F819FC38EC18FC3AF8345055
:1000C00028B8047C02FE00FC00EC01FC00F80000F3
:1000D000000000000000005F00000007000700149F
:1000E0007F147F14242A7F2A12231308646236495E
:1000F0005522500005030000001C2241000041224F
:100100001C0014083E081408083E0808005030007F
:1001100000080808080800606000002010080402B9
:100120003E5149453E00427F4000426151494621CF
:1001300041454B311814127F1027454545393C4A3B
:10014000494930017109050336494949360649498B
:10015000291E0036360000005636000008142241E1
:100160000014141414140041221408020151090649
:10017000324979413E7E1111117E7F494949363E0F
:10018000414141227F4141221C7F494949417F0928
:100190000909013E4149497A7F0808087F00417FEB
:1001A00041002040413F017F081422417F404040F0
:1001B000407F020C027F7F0408107F3E4141413E98
:1001C0007F090909063E4151215E7F0919294646EA
:1001D0004949493101017F01013F4040403F1F2013
:1001E00040201F3F4038403F6314081463070870E5
:1001F00008076151494543007F414100020408104E
:10020000200041417F000402010204404040404080
:10021000000102040020545454787F484444383884
:1002200044444420384444487F3854545418087E89
:100230000901020C5252523E7F0804047800447DAA
:1002400040002040443D007F1028440000417F4092
:10025000007C041804787C0804047838444444384A
:100260007C14141408081414187C7C08040408482E
:1002700054545420043F4440203C4040207C1C20E7
:1002800040201C3C4030403C44281028440C505036
:10029000503C4464544C44000836410000007F0048
:1002A00000004136080010080810087846414678DA
:1002B000FFFFFFFFFFFFFFFFFFFFFFFFFFE000006B
:1002C00001FFFF9FFFFFFC7FFF3FFFFFFF7FFE7FE0
:1002D000FFFFFFBFFEFFFFFFFF9FFDFFFFFFFFDFF1
:1002E000FDFFFFC1FFCFFDFFFF9FFFCFFDFFFF7FA2
:1002F000FFCFFDFFF71FFFCFFDFF8779FFCFFDFC8D
:100300000F41FFCFFDF8EF1FFFCFFDFE0FF1FFCF35
:10031000FDFFE383FFCFFDFFFF0FFFCFFDFC676F06
:10032000FFCFFDF8076FFFCFFDFB8F61FFCFFDFB18
:100330002303FFCFFDFC7BBFFFCFFDFFFFFDFFCF02
:10034000FDFC078DFFCFFDF9F36DFFCFFDFBFB6DCE
:10035000FFCFFDF9F36DFFCFFDFDE763FFCFFDFF9D
:10036000FF7FFFCFFDFFFBFFFFCFFDFF83FFFFCF31
:10037000FDFC0F71FFCFFDF8EF01FFCFFDFC0F3F3C
:10038000FFCFFDFF837FFFCFFDFFFF7FFFCFFDFF8F
:10039000FFF1FFCFFDF80301FFCFFDFBFB2DFFCFEA
:1003A000FDFBFB6DFFCFFDF8036DFFCFFDFF0F6F72
:1003B000FFCFFDFFFF7DFFFFFDF80391FFFFFDFB7A
:1003C0009B07C7FFFDFBDB63D0FFFDFFFF639E1FA5
:1003D000FDFFFF690F8FFDFFFF4F4FCFFFFFFF1F97
:1003E0004FCFFFFFFFFE4FCFFFFFFFFE0FEFFFF7E7
:1003F000FFE40FEFFF83FF04AFEFFC10E0008FEF8F
:10040000F9F240000FEFFB730020A7EFFA0B0C602E
:10041000E7EFFA930900E7EFFBF3091287EFFA031E
:10042000031807EFFAFB098887E7F3DB090887E77A
:10043000F21B010087E7F20B030080E7F3DB030800
:10044000CC27F20B09185FC7F20B0C081CE7F3FB73
:10045000096038EFF27B193038EFF21B0C0E7CCFBD
:10046000F3FB18084FDFF3E30181861FF3053C1F00
:100470008C9FF03C21E3D1BFFBFF2F0367BFF9C77F
:10048000F0004F3FFDC78181127FFCC60F0E207F19
:10049000FE7FFF7F70FFFE00000000FFFFFFFFFFF9
:1004A000FFFFFFFFFFFFFFFF00888088880000003C
:1004B000000000000022A02020000000001000002A
:1004C000000A88A88800000040500000002AA0AA66
:1004D000A800000140700000000AA8AAA8F80001C6
:1004E000407041FC002AAAAAA3FE01FFFFFFF7FF0C
:1004F00002BFFFFFEFFE007F807FE7FF0ABFAA7FFA
:10050000E7FF3F9F907FF7FFBFAFA8F8FBFE7FCFCD
:1005100081E0F9FCFFEF2980FAFAFFE71100FE0005
:10052000FFEF2808FEAAFFEF0400FDFCFFEF28A064
:10053000FBFE7FDF8000F7FFBF9FA8A8EFFE443FD0
:100540008000E7FFA03FAA00EFFF1F1F903FF7FFCB
:10055000BF8FA0FFEBFE7FCF07FFFBFCFFEF8FFFFE
:10056000FAFAFFE7FFFFFC50FFEEEAAAFEA8FFE75A
:10057000FFFFF9FCFFEFFFFFFBFE7FDF807FF7FE51
:100580003FAFAA7FEFFE0F3F847FE7FF0A3FA8F847
:10059000E7FF3F1F91C0F7FFFFAFA988EBFEFFCF3A
:1005A0000180FBFFFFEF2820FAFEFFE71000FE7F2F
:1005B000FFEFA888FEAAFFCF8000FCFCFFEFA8A0F9
:1005C000FBFE7FDF9000F7FFBFBF8A00EFFE1C3FFE
:1005D000803FE7FFAABFA0FFEFFF3F9F07FFF7FFA6
:1005E000FFEF8FFFEBFE7FCFFFFFF3FEFFEFFAABD6
:1005F000FBFEFFE7FFFFFC78FFEFFFFFFEA8FFEF2A
:10060000807FFCF8FFEFAA7FFBFE7FDF807FF3FE99
:100610003F8FA8F8EBFE0C3F81E0E7FF2E3F2980DB
:10062000EFFF7FDF0180F7FFFFEF2808EFFEFFCF2E
:100630000000F3FEFFEF28A0FBFCFFE71000FCF03A
:10064000FFEFA888FE88FFCF8000FC70FFAFAA00F4
:10065000FBF87FCF901FF3FE3E9FA0FFEBFE003F15
:1006600003FFE7FF22BF8FFFE7FF017FFFFFF7FFD9
:1006700080EEEAAAEFFE00061F4DC7FE002AAAAAD6
:10068000A3FE00041F1541FC008AAAAA88A8000C3A
:100690000504400000282AAAA00000101500000050
:1006A000808080808080000000000000000000004A
:1006B0000000000000000318080808080F98000058
:1006C00000000D880000000009880000000008C834
:1006D000808080808CF8000000000C70000000001A
:1006E0000000000000000FF8080808080FF80000DC
:1006F00000000C000000000008000003C00008001B
:100700008083E0808FF80003F00007F80007700096
:1007100000F8000770000070080E78080CF8001E42
:1007200070000D98001E70000988003F70000908D5
:1007300080BFF0808D98003B70000FF8003C700087
:1007400003F8001FF0000000080FFFE8FFF80001A9
:10075000FFF0FFF80000F8FC018000007E1C03C0E1
:1007600080809FCE86F0000007C60C38000000E7AE
:100770000818002000E700C80BFFFFEF0FF80FFF7D
:10078000FFC70FF81F9DDF870C983F9DDD8E0888FF
:10079000F98D999E88887C00003C0F887E000FF8B8
:1007A0000798E47FFFF00080E8FFFF880808F8FF63
:1007B00000000000F8FFFFE00000E07FFFF800000D
:1007C000E08080FC80807E00001E00007C0000072E
:1007D000000038CD998700003DDDD98B88081FDDEA
:1007E000DB83800007FFFF81800003FFFFF98000AB
:1007F00080809FF9808000007FD380000000FF038D
:1008000080000001F7838000080BFB8F08080007B9
:10081000380F00000007D01E0000000FCFFC0000C2
:10082000808EDFF08080000E1FC00000000FD80017
:100830000000000FDC000000080E5FF80808000749
:10084000EFFC00000003D9BF00000003D98F800037
:100850008081FFF3C0800000FFFDE00000003FFF4B
:10086000E00000000007F0000808080BF80800008E
:100870000000F80000000000F80000000000780010
:1008800080808080B88000000000380000000000F8
:1008900038000000000018000000000024002700BD
:1008A0002A0000000000250028002B0000000000A6
:1008B00023002600290004040404040404040202A2
:1008C00002020202030303030303010204081020CF
:1008D00040800102040810200102040810200000DA
:1008E00000080002010000030407000000000000EF
:1008F00000003A0D11241FBECFEFD4E0DEBFCDBF04
:1009000011E0A0E0B1E0E8E9FFE202C005900D923D
:10091000AC35B107D9F723E0ACE5B1E001C01D92D9
:10092000A436B207E1F714E0CAE7D4E004C0219787
:10093000FE010E94B413C937D107C9F70E948B0D7D
:100940000C94CA170C94000085E090E00895089577
:1009500084E190E008950F931F93CF93DF93EC0110
:100960008B01FB0120813181428153816881798132
:100970008A819B810E94E810688379838A839B83A4
:10098000F80124813581468157816C817D818E817A
:100990009F810E94E8106C837D838E839F83DF910B
:1009A000CF911F910F9108958AEF90E00895FC0177
:1009B000DC011B969C012B5F3E4F41E08D9192859F
:1009C0008F3F39F4868198131AC085818F5F8583A4
:1009D00007C0891301C04783A217B30779F7F2CF85
:1009E000882351F0DF01A80FB11D19962C9119979A
:1009F0001A962C938150F4CF92878FEF86830895B7
:100A0000CF93DF93FC018481813089F03CF4811124
:100A100029C0828590E089519F4F0DC0823089F0B6
:100A2000833001F54285842F90E001960EC08285C7
:100A300090E08F5E9E4F6CEF70E00E948513282F30
:100A400011C04285842F90E0019765E170E00E941B
:100A50008513282F35E1842F632F0E947913839FFC
:100A6000200D1124DF01AA5FBE4F8BEF90E03E9175
:100A70003F3F41F0009729F0ED01219738813C93E9
:100A800001C02287019798F786818F3F51F4EF01CB
:100A90000E942D102BEF30E040E050E00E948410C7
:100AA0006E83DF91CF9108958F929F92AF92BF9204
:100AB000EF92FF920F931F93CF93DF93FC01268554
:100AC000222339F1EC0180858387818584878285A3
:100AD00085878F01085F1F4F7F01FBE0EF0EF11C40
:100AE00083E0882E912CA12CB12C0E942D10A50101
:100AF00094010E948410DC01CB010196A11DB11D5F
:100B0000F80181938F01EE15FF0579F78E858150ED
:100B10008E87DF91CF911F910F91FF90EF90BF9043
:100B2000AF909F908F900895CF92DF92EF92FF92B7
:100B30001F93CF93DF93FC01268521112BC0EC017D
:100B400010E0C12C84E0D82EE12CF12C88E00E942A
:100B5000030C892B89F011110FC08FE00E94970CB4
:100B600023E030E0DC010E949913A70196010E9466
:100B700084101FEF120FEACF0E942D1027E030E003
:100B800040E050E00E948410DC01CB010A96A11DD8
:100B9000B11D8E87DF91CF911F91FF90EF90DF9075
:100BA000CF900895CF93DF93EC0189E00E94030C6E
:100BB000E889F989892B49F48DEC9CECACECBDE318
:100BC00080839183A283B38304C010821182128236
:100BD0001382DF91CF910895CF92DF92EF92FF922F
:100BE0001F93CF93DF93EC018F81811135C08EE08D
:100BF0000E94970C23E030E0DC010E949913C12C85
:100C000024E0D22EE12CF12CA70196010E94841041
:100C10001FEF120F8FE00E94970C23E030E0DC0101
:100C20000E949913A70196010E948410215011235C
:100C300041F08C8182508230C0F011169CF482E029
:100C400012C02223A1F08C81823088F0121614F495
:100C50001C820DC081E007C088E00E94030C892B34
:100C6000D9F71F8283E08C8302C02111EFCFDF917F
:100C7000CF911F91FF90EF90DF90CF9008958F92CA
:100C80009F92AF92BF92CF92DF92EF92FF92FC01C0
:100C90006081718182819381C480D580E680F780F4
:100CA0009B01AC010E94B1124B015C01A7019601AE
:100CB000C701B6010E94B1129B01AC01C501B4018C
:100CC0000E94E810FF90EF90DF90CF90BF90AF9020
:100CD0009F908F900C9424132F923F924F925F928B
:100CE0006F927F928F929F92AF92BF92CF92DF923C
:100CF000EF92FF920F931F93CF93DF93CDB7DEB7A1
:100D000066970FB6F894DEBF0FBECDBF9A8B898B66
:100D10001C0186E0280E311CA989BA895096BE8B29
:100D2000AD8BA989BA895296ED91FC915397248194
:100D300035814681578180819181A281B3818987E4
:100D40009A87AB87BC87F10100811181D801169683
:100D50006D917D918D919C9119970E94B1126D8733
:100D60007E878F87988BBE01675F7F4FF8018481F4
:100D700095810E94AB04A989BA8950966D917C91A6
:100D80005197D101ED91FC91848195810E94AB0432
:100D9000D101ED91FC9102811381C8010E943F06AF
:100DA00020E030E0A9010E945411882309F44FC0CB
:100DB000F80184819581A681B7814081518162814A
:100DC0007381705849835A836B837C83B0588D83B9
:100DD0009E83AF83B88784E00E94030C892B99F42B
:100DE00020E030E040EA50E469817A818B819C8187
:100DF0000E94B11269837A838B839C8320E030E068
:100E000040EA50E410C020E030E0A90169817A8115
:100E10008B819C810E94B11269837A838B839C832E
:100E200020E030E0A9016D817E818F8198850E944C
:100E3000B1126D837E838F839887D101ED91FC91F0
:100E4000BE016F5F7F4F848195810E94AB04F101E9
:100E5000A080B180D5011696CD90DD90ED90FC90EC
:100E6000199714960D911C911597A7019601F801F9
:100E700060817181828193810E945911D8016D93A3
:100E80007D938D939C931397A701960114966D9172
:100E90007D918D919C9117970E945911F80164835F
:100EA000758386839783B801D50112968D919C91A5
:100EB00013970E94AB040E942D1026E030E040E022
:100EC00050E00E9484106F5F7F4F8F4F9F4F0E94B2
:100ED000FC116B017C01F1010190F081E02DFC8B94
:100EE000EB8B02811381C8010E943F064B015C011C
:100EF0009B01AC01C701B6010E94541187FF38C0A5
:100F0000A5019401D8016D917D918D919C910E94D4
:100F100059114B015C01F8016083718382839383D3
:100F2000C8010E943F069B01AC01D80114966D9147
:100F30007D918D919C9117970E9459112B013C0135
:100F4000A5019401C701B6010E94B112F8016083A6
:100F5000718382839383A3019201C701B6010E942A
:100F6000B112D80114966D937D938D939C9317972E
:100F7000B801EB89FC89808191810E94AB04D10189
:100F8000CD90DD901D01F6010481158120E030E057
:100F9000A901D8016D917D918D919C910E94B11212
:100FA000F801608371838283938320E030E0A9019C
:100FB00064817581868197810E94B112D80114964F
:100FC0006D937D938D939C931797F601008111810A
:100FD000D8018D909D90AD90BC9020E030E040EA2B
:100FE00052E4C501B4010E94AC1218164CF020E086
:100FF00030E0A901C501B4010E94541187FF31C03E
:10100000F601E280F380D7012D913D914D915C91E5
:10101000C501B4010E94E710F801608371838283E7
:101020009383D70114962D913D914D915C91179723
:1010300064817581868197810E94E710F80164833D
:10104000758386839783F70180819181A281B38123
:10105000B05880839183A283B383B701C8010E94F3
:10106000AB04D6010D911C91F80184809580A68077
:10107000B78020E030E044E352E4C501B4010E94AF
:10108000AC1218164CF020E030E0A901C501B40103
:101090000E94541187FF34C0D6011296ED90FC9047
:1010A0001397F7012081318142815381D8016D91DD
:1010B0007D918D919C910E94E710F801608371836E
:1010C00082839383D70114962D913D914D915C912C
:1010D0001797C501B4010E94E710F8016483758376
:1010E00086839783F70184819581A681B781B05863
:1010F00084839583A683B783B701C8010E94AB049C
:101100008D899E898215930509F00BCE66960FB6E0
:10111000F894DEBF0FBECDBFDF91CF911F910F912D
:10112000FF90EF90DF90CF90BF90AF909F908F9007
:101130007F906F905F904F903F902F900895CF9346
:10114000C82F60E086E00E942C0CCEBD00000DB4DC
:1011500007FEFDCF8EB561E086E0CF910C942C0C9C
:1011600024E0FC01258380E09FEF2AE5853020F410
:10117000322F381B328701C092878F5F31968B3FA9
:10118000A9F70895EF92FF920F931F93CF937C01DD
:10119000C0E080E80E94300D8C2F80640E94300DEA
:1011A00000E010E0F701E00FF11F80810E94F80CD1
:1011B0000F5F1F4F04351105A9F7CF5F84E5E80ED7
:1011C000F11CC63031F7CF911F910F91FF90EF9036
:1011D00008952F923F924F925F926F927F928F92DB
:1011E0009F92AF92BF92CF92DF92EF92FF920F93B6
:1011F0001F93CF93DF93CDB7DEB760970FB6F89408
:10120000DEBF0FBECDBF9C838B831B015E834D83EE
:101210008F82FB0185919491182F622E712C412CA5
:10122000512CC3018E0D911D9C878B87802E912C94
:10123000F401EC0DF11DFE87ED878A2D90E0988B6F
:101240008F87EB85FC856E167F060CF08FC05401EE
:1012500097E0C92ED12C862D062C000C990B99876E
:101260008887962D90689A87ED85FE85AE16BF0615
:101270000CF06FC08D819E814816590608F065C03C
:10128000D7FE0CC09FEF491A590AF101E40DF51D74
:1012900085919491182F87E0C82ED12C26E030E05C
:1012A000EA2C0A2C000CFF08D7010E94991320E3B6
:1012B00030E040E050E00E948410022FA701E8E0F7
:1012C0000E9F401951091124EB80FC80F4E5F09F3A
:1012D000E00CF11C112488859985E80EF91E81E047
:1012E00090E0042E01C0880F0A94EAF78095F70178
:1012F0009081282F2923812F90E0B601EF85F8896E
:101300006E1B7F0B02C0959587956A95E2F7F82FC3
:10131000F170F9831A8289819A8101C0880F4A95F8
:10132000EAF7822BF7018083FF81FF2359F08A853A
:101330000E94300D802F80640E94300DF701808163
:101340000E94F80CF1E0CF1AD1083FEFA31AB30ABC
:101350008BCF8FEF481A580AF101E40DF51D8591E6
:101360009491182F9FEF691A790A6BCF60960FB688
:10137000F894DEBF0FBECDBFDF91CF911F910F91CB
:10138000FF90EF90DF90CF90BF90AF909F908F90A5
:101390007F906F905F904F903F902F9008952F9285
:1013A0003F924F925F926F927F928F92AF92CF92C5
:1013B000EF920F93CF93DF93CDB7DEB72E970FB693
:1013C000F894DEBF0FBECDBF2C018CE0EAE0F1E067
:1013D000DE01119601900D928A95E1F7120188E0E5
:1013E000280E311CFE0131963F01CE010D969E87DD
:1013F0008D87F10181911F01823099F0833001F1D5
:10140000813089F588248394A12C40E1C42E50E1D9
:10141000E52EF3010181208140E250E060EB70E0B5
:101420001DC088248394A12C20E1C22E30E1E32E3C
:10143000F3010181208140E250E060E970E00EC0DC
:1014400088248394A12C80E1C82E90E1E92EF30139
:101450000181208140E250E060E770E0F201848188
:1014600095810E94E908F2E06F0E711C8D859E85C2
:101470006816790609F0BDCF2E960FB6F894DEBF38
:101480000FBECDBFDF91CF910F91EF90CF90AF9076
:101490008F907F906F905F904F903F902F90089526
:1014A0004F925F926F927F928F92AF92CF92EF9214
:1014B000FF920F93CF93DF93EC0160E08C819D81CD
:1014C0000E94F00B3E0186E0680E711C2E01A0E127
:1014D0004A0E511CD301ED91FD913D01E080F18058
:1014E000F70164817581868197810E94CB11062F57
:1014F000D7016D917D918D919C910E94CB11262FEA
:10150000812CA12C84E0C82E94E0E92E44E050E028
:101510006CE670E08C819D810E94E90846145704B6
:10152000C9F68C819D81DF91CF910F91FF90EF9053
:10153000CF90AF908F907F906F905F904F900C9472
:10154000C2082F923F924F925F926F927F928F923A
:10155000AF92CF92EF920F931F93CF93DF9300D070
:1015600000D01F92CDB7DEB73C0160E0FC01808562
:1015700091850E94F00BF3018781811159C02301ED
:10158000FAE04F0E511C13012BEF221A2EEF320AF4
:1015900015E1F20181912F018F3FD9F0612F0E9457
:1015A0007913F4E08F9FA001112484E0989F9001AB
:1015B0001124812CA12C54E0C52E64E0E62E042FCA
:1015C00044E050E068E670E0F301808591850E9478
:1015D000E90824143504E9F6F3012681822F6AE034
:1015E0000E947913963018F034E0A32E01C0A12C8C
:1015F000822F65E10E947913F4E08F9F800111240E
:1016000084E0989F90011124812C84E0C82E94E0FE
:10161000E92E44E050E06CE670E0F30180859185AE
:101620000E94E908F301808591850E94C2083AC0B2
:10163000F301808591850E94C208C3010E94B00811
:1016400088E80E94300D80E40E94300D80E491E033
:101650000E94020DF30185811F928F938CE491E02B
:101660009F938F938E010F5F1F4F1F930F930E94C5
:10167000E01481EA0E94300D82E40E94300DC8011E
:101680000E94020D84E80E94300D84E40E94300D17
:101690008FE491E00E94020D0F900F900F900F9039
:1016A0000F900F900F900F900F900F900F90DF9171
:1016B000CF911F910F91EF90CF90AF908F907F902F
:1016C0006F905F904F903F902F900895833081F0FE
:1016D00028F4813099F08230A1F008958730A9F084
:1016E0008830B9F08430D1F4809180008F7D03C0C0
:1016F000809180008F7780938000089584B58F77E4
:1017000002C084B58F7D84BD08958091B0008F772D
:1017100003C08091B0008F7D8093B00008953FB7E3
:10172000F89480915C0390915D03A0915E03B09169
:101730005F0326B5A89B05C02F3F19F00196A11D98
:10174000B11D3FBFBA2FA92F982F8827820F911D57
:10175000A11DB11DBC01CD0142E0660F771F881F9E
:10176000991F4A95D1F708958F929F92AF92BF9299
:10177000CF92DF92EF92FF926B017C010E948F0B60
:101780004B015C01C114D104E104F104F1F00E94A9
:101790008F0BDC01CB0188199909AA09BB09883E86
:1017A0009340A105B10570F321E0C21AD108E10808
:1017B000F10888EE880E83E0981EA11CB11CC114AC
:1017C000D104E104F10419F7DDCFFF90EF90DF9031
:1017D000CF90BF90AF909F908F9008950E94DB14A0
:1017E000AC0196E020E030E0FA01E20FF31F6083E5
:1017F0002F5F3F4F24353105B9F791504C5A5F4F59
:101800009111F0CF0895CF93DF93282F30E0F901A5
:10181000E252F74F8491F901E653F74FD491F90161
:10182000EA54F74FC491CC2391F081110E94660BCA
:10183000EC2FF0E0EE0FFF1FE455F74FA591B491A8
:10184000EC91ED2381E090E021F480E002C080E0A3
:1018500090E0DF91CF9108951F93CF93DF93282FCE
:1018600030E0F901E252F74F8491F901E653F74F66
:10187000D491F901EA54F74FC491CC23C1F0162F4B
:1018800081110E94660BEC2FF0E0EE0FFF1FEE556A
:10189000F74FA591B4919FB7F894111104C08C91A2
:1018A000D095D82302C0EC91DE2BDC939FBFDF9153
:1018B000CF911F910895CF93DF9390E0FC01E65301
:1018C000F74F2491FC01EA54F74F8491882361F18A
:1018D00090E0880F991FFC01E856F74FC591D4910D
:1018E000FC01EE55F74FA591B491611109C09FB766
:1018F000F8948881209582238883EC912E230BC055
:10190000623061F49FB7F8948881322F3095832339
:101910008883EC912E2B2C939FBF06C08FB7F89431
:10192000E8812E2B28838FBFDF91CF9108958E30D1
:1019300008F08E508770806480937C0080917A00DC
:10194000806480937A0080917A0086FDFCCF80913C
:1019500078002091790090E0922B08951F920F92C9
:101960000FB60F9211242F933F938F939F93AF93B2
:10197000BF938091580390915903A0915A03B0915D
:101980005B033091570323E0230F2D3720F401969A
:10199000A11DB11D05C026E8230F0296A11DB11D92
:1019A000209357038093580390935903A0935A03AD
:1019B000B0935B0380915C0390915D03A0915E0303
:1019C000B0915F030196A11DB11D80935C039093BC
:1019D0005D03A0935E03B0935F03BF91AF919F91AE
:1019E0008F913F912F910F900FBE0F901F901895E0
:1019F000CF93C82F61E085E00E942C0C8C2FCF91F3
:101A00000C949F08EF92FF920F931F93CF93DF9355
:101A10008C01F801C1918F01CC23D9F0F5E0CF0200
:101A2000E0011124E12CF12CC05AD109FE01EE0D88
:101A3000FF1DE053FF4F84910E94F80C8FEFE81ACE
:101A4000F80AE5E0EE16F10489F780E00E94F80C50
:101A5000E0CFDF91CF911F910F91FF90EF9008950C
:101A6000CF93C82F60E085E00E942C0C8C2FCF9183
:101A70000C949F08CF93CFB7F89480915C018111AB
:101A800027C0E0ECF8E08491E4EDF8E09491E82FD1
:101A9000F0E0EE0FFF1FE856F74FA591B491EC91DF
:101AA000E92321F461E08AE00E942C0C61E08AE0E5
:101AB0000E945B0C8CB580618CBD8CB580648CBD44
:101AC00061E08DE00E945B0C61E08BE00E945B0CAA
:101AD00080915C018F5F80935C01CFBF61E087E004
:101AE0000E945B0C61E086E00E945B0C61E085E097
:101AF0000E945B0C61E08BE00E945B0C61E08DE07A
:101B00000E945B0C60E087E00E942C0C61E087E0A3
:101B1000CF910C942C0C789484B5826084BD84B5EC
:101B2000816084BD85B5826085BD85B5816085BDD8
:101B300080916E00816080936E0010928100809190
:101B40008100826080938100809181008160809318
:101B50008100809180008160809380008091B1003D
:101B600084608093B1008091B00081608093B00068
:101B700080917A00846080937A0080917A008260FC
:101B800080937A0080917A00816080937A008091BE
:101B90007A00806880937A001092C10062E088E049
:101BA0000E945B0C62E089E00E945B0C62E084E0D2
:101BB0000E945B0C81E20E94300D8FEB0E94300D81
:101BC00084E00E94300D83E10E94300D80E20E948B
:101BD000300D8CE00E94300DC8EFD1E080E00E9413
:101BE000F80C2197D9F760E08DE591E00E94F00BA9
:101BF000812CA12CA0E3CA2EB4E5EB2E00E020E05E
:101C000048EF51E060EB72E08DE591E00E94E90859
:101C10008DE591E00E94C2086EE571E080E090E001
:101C20000E94B40B60E08DE591E00E94F00B8DE521
:101C300091E00E94C20862E370E080E090E00E94C0
:101C4000B40BC1E0412CD4E05D2E612C712C68EC0A
:101C500070E080E090E00E94B40BC23089F0C330A5
:101C6000E1F0C13051F5812CA12CE0E3CE2EF4E55A
:101C7000EF2E00E020E048EF51E060EA76E019C086
:101C8000812CA12C60E3C62E74E5E72E00E020E055
:101C900048EF51E060E070E00CC0812CA12C40E3E3
:101CA000C42E54E5E52E00E020E048EF51E068EA5C
:101CB00074E08DE591E00E94E9088DE591E00E94D5
:101CC000C2088EE00E94970C23E030E0DC010E9405
:101CD0009913A30192010E948410DA01C9010197AE
:101CE000A109B109D82FD19588E00E94030C892B56
:101CF00021F4DD23B9F090E013C089E00E94030CC9
:101D0000892BB9F384E00E94030C9C0191E021151A
:101D1000310509F490E0D11103C0232B91F602C0E4
:101D2000892F01C080E0CD0FC43024F4C11103C05D
:101D3000C3E001C0C1E081118ACFC230F1F0C330ED
:101D400009F4BFC0C13009F0FAC086E091E00E94FA
:101D5000BA13EC018AE191E09983888383E08C8354
:101D600084E08D838FEF8E831F828DE591E09987CC
:101D70008887CE010E94B008DEC086E190E00E9414
:101D8000BA13EC0188E291E0998388838DE591E0B4
:101D90009D838C832E0186E0480E511C93E0692EB2
:101DA000712C24E1E22EF12C812C912C30E2A32E17
:101DB00031E4B32E8AE090E00E94BA138C0188E0EF
:101DC00090E00E94BA136C01B7010F2C000C880B35
:101DD000990B0E94FC11D6016D937D938D939C937A
:101DE0001397F60184829582A682B782D801CD929C
:101DF000DC9288E090E00E94BA13FC01108211820C
:101E0000128213821482158216821782F80193833C
:101E1000828388E090E00E94BA13DC011D921D923B
:101E20001D921C921397FC01148215821682178250
:101E3000D80115969C938E931497F20101931193F8
:101E40002F01B301072C000C880B990B0E94FC1189
:101E5000D80116966D937D938D939C931997B5E059
:101E6000EB0EF11CE3E06E0E711CFDE2EF16F104C7
:101E700009F0A0CF88E090E00E94BA13DC011D9227
:101E80001D921D921C921397FC01148215821682DA
:101E90001782998B888B88E090E00E94BA13DC014E
:101EA0001D921D921D921C9213974DEC5CEC6CECF4
:101EB0007DE3FC0144835583668377839B8B8A8B08
:101EC0003AC08FE090E00E94BA13EC0186E391E003
:101ED0009983888381E08E838F831E868DE591E0D0
:101EE0009D838C838E01085F1F4F7E01FEE0EF0E05
:101EF000F11C83E0882E912CA12CB12C0E942D1076
:101F0000A50194010E948410DC01CB010196A11D62
:101F1000B11DF80181938F01EE16FF0679F76FEF7F
:101F20008C819D810E94F00BCE010E94CF098C8193
:101F30009D810E94C208D0935603C0935503C0E010
:101F4000D0E08091550390915603DC01ED91FC9116
:101F50000190F081E02D09958091550390915603F1
:101F6000DC01ED91FC910280F381E02D09958091D7
:101F7000550390915603DC01ED91FC910480F581AD
:101F8000E02D09958091550390915603DC01ED9168
:101F9000FC910680F781E02D099580915503909181
:101FA0005603DC01ED91FC910084F185E02D09954B
:101FB000BC0180E090E00E94B40B209711F20E94D7
:101FC0000000BFCF8F929F92AF92BF92CF92DF92CD
:101FD000EF92FF92CF93DF93EC01688179818A8140
:101FE0009B81611571058105910521F464E279ED0C
:101FF0008BE597E02DE133EF41E050E00E94841043
:1020000049015A019B01AC01A7EAB1E40E94A31067
:102010006B017C01ACEEB4EFA50194010E94B110FC
:10202000DC01CB018C0D9D1DAE1DBF1DB7FF03C094
:102030000197A109B04888839983AA83BB83BC0117
:10204000CD019F77DF91CF91FF90EF90DF90CF9000
:10205000BF90AF909F908F9008958F929F92AF9274
:10206000BF92CF92DF92EF92FF9260910001709148
:1020700001018091020190910301611571058105B3
:10208000910521F464E279ED8BE597E02DE133EFE2
:1020900041E050E00E94841049015A019B01AC01CB
:1020A000A7EAB1E40E94A3106B017C01ACEEB4EF8F
:1020B000A50194010E94B110DC01CB018C0D9D1D86
:1020C000AE1DBF1DB7FF03C00197A109B0488093A3
:1020D000000190930101A0930201B0930301BC01A0
:1020E000CD019F77FF90EF90DF90CF90BF90AF90A2
:1020F0009F908F90089560930001709301018093E9
:102100000201909303010895052E97FB1EF400949D
:102110000E949B1057FD07D00E94B61007FC03D009
:102120004EF40C949B1050954095309521953F4F5F
:102130004F4F5F4F089590958095709561957F4FB3
:102140008F4F9F4F08950E94D810A59F900DB49F68
:10215000900DA49F800D911D11240895B7FF0C943C
:10216000A3100E94A310821B930B0895A1E21A2EC4
:10217000AA1BBB1BFD010DC0AA1FBB1FEE1FFF1F2B
:10218000A217B307E407F50720F0A21BB30BE40B7B
:10219000F50B661F771F881F991F1A9469F76095C2
:1021A0007095809590959B01AC01BD01CF0108957C
:1021B000A29FB001B39FC001A39F700D811D112488
:1021C000911DB29F700D811D1124911D08955058CD
:1021D000BB27AA270E94FF100C9472120E9464125F
:1021E00038F00E946B1220F039F49F3F19F426F466
:1021F0000C9461120EF4E095E7FB0C945B12E92F4E
:102200000E94831258F3BA17620773078407950771
:1022100020F079F4A6F50C94A5120EF4E0950B2E9F
:10222000BA2FA02D0B01B90190010C01CA01A00128
:102230001124FF27591B99F0593F50F4503E68F183
:102240001A16F040A22F232F342F4427585FF3CFC4
:10225000469537952795A795F0405395C9F77EF495
:102260001F16BA0B620B730B840BBAF09150A1F0DE
:10227000FF0FBB1F661F771F881FC2F70EC0BA0F64
:10228000621F731F841F48F4879577956795B795EC
:10229000F7959E3F08F0B0CF9395880F08F09927E7
:1022A000EE0F9795879508950E94371208F481E004
:1022B00008950E946D110C9472120E946B1258F0D6
:1022C0000E94641240F029F45F3F29F00C945B12E5
:1022D00051110C94A6120C9461120E94831268F39F
:1022E0009923B1F3552391F3951B550BBB27AA27CF
:1022F00062177307840738F09F5F5F4F220F331F09
:10230000441FAA1FA9F335D00E2E3AF0E0E832D0D0
:1023100091505040E695001CCAF72BD0FE2F29D0D3
:10232000660F771F881FBB1F261737074807AB07A5
:10233000B0E809F0BB0B802DBF01FF2793585F4F1A
:102340003AF09E3F510578F00C945B120C94A61263
:102350005F3FE4F3983ED4F3869577956795B795FC
:10236000F7959F5FC9F7880F911D9695879597F907
:102370000895E1E0660F771F881FBB1F6217730780
:102380008407BA0720F0621B730B840BBA0BEE1F95
:1023900088F7E09508950E948B1288F09F5798F077
:1023A000B92F9927B751B0F0E1F0660F771F881F5A
:1023B000991F1AF0BA95C9F714C0B13091F00E9474
:1023C000A512B1E008950C94A512672F782F8827E5
:1023D000B85F39F0B93FCCF3869577956795B3959B
:1023E000D9F73EF490958095709561957F4F8F4F0A
:1023F0009F4F0895E89409C097FB3EF4909580950F
:10240000709561957F4F8F4F9F4F9923A9F0F92FBA
:1024100096E9BB279395F695879577956795B79538
:10242000F111F8CFFAF4BB0F11F460FF1BC06F5F1E
:102430007F4F8F4F9F4F16C0882311F096E911C030
:10244000772321F09EE8872F762F05C0662371F051
:1024500096E8862F70E060E02AF09A95660F771F65
:10246000881FDAF7880F9695879597F90895990F41
:102470000008550FAA0BE0E8FEEF16161706E8074E
:10248000F907C0F012161306E407F50798F0621B6F
:10249000730B840B950B39F40A2661F0232B242B44
:1024A000252B21F408950A2609F4A140A6958FEF63
:1024B000811D811D089597F99F6780E870E060E0B5
:1024C00008959FEF80EC089500240A9416161706CD
:1024D00018060906089500240A9412161306140615
:1024E00005060895092E0394000C11F4882352F078
:1024F000BB0F40F4BF2B11F460FF04C06F5F7F4F30
:102500008F4F9F4F089557FD9058440F551F59F016
:102510005F3F71F04795880F97FB991F61F09F3FD0
:1025200079F087950895121613061406551FF2CFF9
:102530004695F1DF08C0161617061806991FF1CF49
:1025400086957105610508940895E894BB27662770
:102550007727CB0197F908950E94371208F48FEF7F
:1025600008950E94C4120C9472120E94641238F0F2
:102570000E946B1220F0952311F00C945B120C94C6
:10258000611211240C94A6120E94831270F3959F7D
:10259000C1F3950F50E0551F629FF001729FBB275A
:1025A000F00DB11D639FAA27F00DB11DAA1F649FF6
:1025B0006627B00DA11D661F829F2227B00DA11DA9
:1025C000621F739FB00DA11D621F839FA00D611D2F
:1025D000221F749F3327A00D611D231F849F600D50
:1025E000211D822F762F6A2F11249F5750409AF079
:1025F000F1F088234AF0EE0FFF1FBB1F661F771F05
:10260000881F91505040A9F79E3F510580F00C94CF
:102610005B120C94A6125F3FE4F3983ED4F38695C8
:1026200077956795B795F795E7959F5FC1F7FE2B6F
:10263000880F911D9695879597F9089519F416F4CA
:102640000C9461120C9464130E948B12B8F39923BA
:10265000C9F3B6F39F57550B87FF0E9472130024EE
:10266000A0E640EA900180585695979528F4805C42
:10267000660F771F881F20F026173707480730F4AA
:10268000621B730B840B202931294A2BA6951794C2
:102690000794202531254A2758F7660F771F881F92
:1026A00020F026173707480730F4620B730B840BB2
:1026B000200D311D411DA09581F7B901842F91583E
:1026C000880F9695879508959F3F31F0915020F49B
:1026D000879577956795B795880F911D96958795FE
:1026E00097F9089591505040660F771F881FD2F7D1
:1026F0000895991B79E004C0991F961708F0961B5E
:10270000881F7A95C9F78095089597FB072E16F4D0
:10271000009407D077FD09D00E94A01307FC05D0D4
:102720003EF4909581959F4F0895709561957F4FE8
:1027300008950E94D810B7FF0895821B930B089547
:10274000AA1BBB1B51E107C0AA1FBB1FA617B707D7
:1027500010F0A61BB70B881F991F5A95A9F78095F3
:102760009095BC01CD010895EE0FFF1F0590F491E7
:10277000E02D09940F931F93CF93DF93823091053F
:1027800010F482E090E0E0916203F091630320E0B6
:1027900030E0A0E0B0E0309719F140815181028132
:1027A000138148175907C8F08417950769F41097E3
:1027B00031F012960C93129713961C9327C0009336
:1027C00062031093630322C02115310519F04217EB
:1027D000530718F49A01BD01EF01DF01F801DBCFC7
:1027E00021153105F9F0281B390B2430310580F40F
:1027F0008A819B816115710521F0FB01938382839E
:1028000004C09093630380936203FE01329644C038
:10281000FE01E20FF31F8193919322503109398316
:1028200028833AC02091600330916103232B41F447
:1028300020910601309107013093610320936003DA
:1028400020910401309105012115310541F42DB786
:102850003EB74091080150910901241B350BE091CE
:102860006003F0916103E217F307A0F42E1B3F0B06
:102870002817390778F0AC014E5F5F4F24173507F2
:1028800048F04E0F5F1F50936103409360038193A4
:10289000919302C0E0E0F0E0CF01DF91CF911F9172
:1028A0000F910895CF93DF93009709F481C0FC0145
:1028B000329713821282A0916203B0916303109742
:1028C00081F420813181820F931F20916003309128
:1028D00061032817390751F5F0936103E093600312
:1028E00067C0ED0120E030E0CE17DF0740F44A81F9
:1028F0005B819E0141155105F1F0EA01F5CFD383CB
:10290000C28340815181840F951FC817D90759F49C
:1029100088819981840F951F0296918380838A8193
:102920009B81938382832115310529F4F0936303FE
:10293000E09362033DC0E901FB83EA834991599129
:10294000C40FD51FEC17FD0761F480819181840FBE
:10295000951F0296E90199838883828193819B83E5
:102960008A83E0E0F0E012968D919C911397009796
:1029700019F0FD01DC01F7CF8D919C9111979D011C
:102980002E5F3F4F820F931F2091600330916103B0
:102990002817390769F4309729F4109263031092CD
:1029A000620302C013821282B0936103A09360039A
:1029B000DF91CF91089581E090E0F8940C94CA17CC
:1029C000AEE0B0E0E6EEF4E10C94A1170D891E89AB
:1029D00086E08C831A8309838FEF9FE79E838D8324
:1029E000AE01475E5F4F6F89788DCE0101960E94E0
:1029F0000215EF81F885E00FF11F10822E96E4E0BA
:102A00000C94BD17ABE0B0E0E8E0F5E10C9493174F
:102A10006C017B018A01FC0117821682838181FF90
:102A2000CCC1CE0101963C01F6019381F70193FDE3
:102A3000859193FF81917F01882309F4BAC1853282
:102A400039F493FD859193FF81917F01853229F4BB
:102A5000B60190E00E94F916E7CF912C212C312C81
:102A6000FFE1F315D8F08B3279F038F4803279F049
:102A70008332A1F4232D20611DC08D3261F080339B
:102A800069F4232D216016C0832D8260382EE32D3A
:102A9000E4603E2E2AC0F32DF8601DC037FC2DC027
:102AA00020ED280F2A3040F08E32B9F436FC81C177
:102AB000232D2064322E19C036FE06C08AE0989E6F
:102AC000200D1124922E11C0EAE02E9E200D11241B
:102AD000222EF32DF0623F2E08C08C3621F4832D78
:102AE0008068382E02C0883641F4F70193FD859145
:102AF00093FF81917F018111B3CF982F9F7D9554D2
:102B0000933028F40C5F1F4F9FE399830DC08336E9
:102B100031F0833771F0833509F059C021C0F801D5
:102B2000808189830E5F1F4F88248394912C5301E9
:102B300013C02801F2E04F0E511CF801A080B180B3
:102B400036FE03C0692D70E002C06FEF7FEFC50154
:102B50000E94EE164C018201F32DFF773F2E16C026
:102B6000280122E0420E511CF801A080B18036FEFF
:102B700003C0692D70E002C06FEF7FEFC5010E94B6
:102B8000E3164C01F32DF0683F2E820133FC1BC08D
:102B9000822D90E088169906B0F4B60180E290E0AC
:102BA0000E94F9162A94F4CFF50137FC859137FE7F
:102BB00081915F01B60190E00E94F91621102A94DC
:102BC00021E0821A91088114910471F7E8C08436DB
:102BD00011F0893641F5F80137FE07C06081718137
:102BE000828193810C5F1F4F08C060817181072E25
:102BF000000C880B990B0E5F1F4FF32DFF763F2EB5
:102C000097FF09C090958095709561957F4F8F4F84
:102C10009F4FF0683F2E2AE030E0A3010E94351755
:102C2000882E861845C0853731F4232D2F7EB22E8D
:102C30002AE030E025C0932D997FB92E8F36C1F060
:102C400018F4883579F0B5C0803719F0883721F04D
:102C5000B0C0E92FE061BE2EB4FE0DC0FB2DF460C4
:102C6000BF2E09C034FE0AC0292F2660B22E06C02E
:102C700028E030E005C020E130E002C020E132E091
:102C8000F801B7FE07C060817181828193810C5F7A
:102C90001F4F06C06081718180E090E00E5F1F4F82
:102CA000A3010E943517882E8618FB2DFF773F2E33
:102CB00036FE0DC0232D2E7FA22E891458F434FE2B
:102CC0000BC032FC09C0832D8E7EA82E05C0B82C07
:102CD000A32C03C0B82C01C0B92CA4FE0FC0FE0168
:102CE000E80DF11D8081803321F49A2D997EA92E63
:102CF00009C0A2FE06C0B394B39404C08A2D86789E
:102D000009F0B394A3FC11C0A0FE06C0B21488F46D
:102D1000280C922C9B180EC0B21460F4B60180E20D
:102D200090E00E94F916B394F7CFB21418F42B1860
:102D300002C0982C212CA4FE10C0B60180E390E0C4
:102D40000E94F916A2FE17C0A1FC03C088E790E01C
:102D500002C088E590E0B6010CC08A2D867859F053
:102D6000A1FE02C08BE201C080E2A7FC8DE2B601A9
:102D700090E00E94F916891438F4B60180E390E0DF
:102D80000E94F9169A94F7CF8A94F301E80DF11D89
:102D90008081B60190E00E94F9168110F5CF2220C3
:102DA00009F442CEB60180E290E00E94F9162A941E
:102DB000F6CFF6018681978102C08FEF9FEF2B96A9
:102DC000E2E10C94AF17FC010590615070400110D6
:102DD000D8F7809590958E0F9F1F0895FC01615044
:102DE000704001900110D8F7809590958E0F9F1F2D
:102DF00008950F931F93CF93DF93FB01238121FD50
:102E000003C08FEF9FEF2CC022FF16C04681578171
:102E1000248135814217530744F4A081B1819D017B
:102E20002F5F3F4F318320838C93268137812F5F23
:102E30003F4F3783268314C08B01EC01FB010084D4
:102E4000F185E02D0995892BE1F6D80116968D9133
:102E50009C911797019617969C938E931697CE0187
:102E6000DF91CF911F910F910895FA01AA27283081
:102E700051F1203181F1E8946F936E7F6E5F7F4F47
:102E80008F4F9F4FAF4FB1E03ED0B4E03CD0670FC3
:102E9000781F891F9A1FA11D680F791F8A1F911D16
:102EA000A11D6A0F711D811D911DA11D20D009F466
:102EB00068943F912AE0269F11243019305D3193A8
:102EC000DEF6CF010895462F4770405D4193B3E091
:102ED0000FD0C9F7F6CF462F4F70405D4A3318F038
:102EE000495D31FD4052419302D0A9F7EACFB4E0E9
:102EF000A6959795879577956795BA95C9F70097A1
:102F00006105710508959B01AC010A2E0694579541
:102F1000479537952795BA95C9F7620F731F841F98
:102F2000951FA01D08952F923F924F925F926F922E
:102F30007F928F929F92AF92BF92CF92DF92EF9249
:102F4000FF920F931F93CF93DF93CDB7DEB7CA1BCA
:102F5000DB0B0FB6F894DEBF0FBECDBF09942A88F5
:102F6000398848885F846E847D848C849B84AA849D
:102F7000B984C884DF80EE80FD800C811B81AA812A
:102F8000B981CE0FD11D0FB6F894DEBF0FBECDBFF5
:082F9000ED010895F894FFCF54
:102F980001000000000064038000040518052C05EA
:102FA800041518152C1500000000EC050005D704C1
:102FB800A10AD40400000000D2056C06A704500A38
:102FC800A8040000000094055405A704CF09A40430
:102FD800596F75722073636F72653A0025640070CB
:0C2FE8007265737320627574746F6E0064
:00000001FF
