:100000000C9460010C9488010C9488010C94880174
:100010000C9488010C9488010C9488010C9488013C
:100020000C9488010C9488010C9488010C9488012C
:100030000C9488010C9488010C9488010C9488011C
:100040000C94D0060C9488010C9488010C948801BF
:100050000C9488010C9488010C9488010C948801FC
:100060000C9488010C948801235CD5A2FFFFFFFF4C
:10007000FFFFFFFFFFFFFFFFFFE0000001FFFF9F0B
:10008000FFFFFC7FFF3FFFFFFF7FFE7FFFFFFFBF04
:10009000FEFFFFFFFF9FFDFFFFFFFFDFFDFFFFC133
:1000A000FFCFFDFFFF9FFFCFFDFFFF7FFFCFFDFFD6
:1000B000F71FFFCFFDFF8779FFCFFDFC0F41FFCF7B
:1000C000FDF8EF1FFFCFFDFE0FF1FFCFFDFFE38334
:1000D000FFCFFDFFFF0FFFCFFDFC676FFFCFFDF8E8
:1000E000076FFFCFFDFB8F61FFCFFDFB2303FFCF2A
:1000F000FDFC7BBFFFCFFDFFFFFDFFCFFDFC078DAC
:10010000FFCFFDF9F36DFFCFFDFBFB6DFFCFFDF9D9
:10011000F36DFFCFFDFDE763FFCFFDFFFF7FFFCF57
:10012000FDFFFBFFFFCFFDFF83FFFFCFFDFC0F7146
:10013000FFCFFDF8EF01FFCFFDFC0F3FFFCFFDFF2D
:10014000837FFFCFFDFFFF7FFFCFFDFFFFF1FFCFDD
:10015000FDF80301FFCFFDFBFB2DFFCFFDFBFB6D8A
:10016000FFCFFDF8036DFFCFFDFF0F6FFFCFFDFF4A
:10017000FF7DFFFFFDF80391FFFFFDFB9B07C7FF1E
:10018000FDFBDB63D0FFFDFFFF639E1FFDFFFF69EB
:100190000F8FFDFFFF4F4FCFFFFFFF1F4FCFFFFF21
:1001A000FFFE4FCFFFFFFFFE0FEFFFF7FFE40FEF64
:1001B000FF83FF04AFEFFC10E0008FEFF9F2400087
:1001C0000FEFFB730020A7EFFA0B0C60E7EFFA9339
:1001D0000900E7EFFBF3091287EFFA03031807EFB3
:1001E000FAFB098887E7F3DB090887E7F21B0100C0
:1001F00087E7F20B030080E7F3DB0308CC27F20B61
:1002000009185FC7F20B0C081CE7F3FB096038EF15
:10021000F27B193038EFF21B0C0E7CCFF3FB180881
:100220004FDFF3E30181861FF3053C1F8C9FF03CF9
:1002300021E3D1BFFBFF2F0367BFF9C7F0004F3F9A
:10024000FDC78181127FFCC60F0E207FFE7FFF7FDE
:1002500070FFFE00000000FFFFFFFFFFFFFFFFFF3A
:10026000FFFFFFFF00000000240027002A0000001D
:100270000000250028002B000000000023002600BD
:100280002900040404040404040402020202020219
:10029000030303030303010204081020408001024A
:1002A00004081020010204081020000000080002C9
:1002B0000100000304070000000000000000BD086A
:1002C00011241FBECFEFD4E0DEBFCDBF11E0A0E010
:1002D000B1E0E4EBFBE102C005900D92A831B1075B
:1002E000D9F723E0A8E1B1E001C01D92A032B20726
:1002F000E1F711E0C0E6D1E004C02197FE010E94C1
:10030000AC0CCF35D107C9F70E941A070C94D80D51
:100310000C940000833081F028F4813099F0823011
:10032000A1F008958730A9F08830B9F08430D1F475
:10033000809180008F7D03C0809180008F778093B3
:100340008000089584B58F7702C084B58F7D84BD09
:1003500008958091B0008F7703C08091B0008F7DA9
:100360008093B0000895CF93DF93282F30E0F901F8
:10037000E655FD4F8491F901EA56FD4FD491F901FC
:10038000EE57FD4FC491CC2391F081110E948A0158
:10039000EC2FF0E0EE0FFF1FE858FD4FA591B49150
:1003A000EC91ED2381E090E021F480E002C080E058
:1003B00090E0DF91CF9108951F93CF93DF93282F83
:1003C00030E0F901E655FD4F8491F901EA56FD4F01
:1003D000D491F901EE57FD4FC491CC23C1F0162FF3
:1003E00081110E948A01EC2FF0E0EE0FFF1FE2590D
:1003F000FD4FA591B4919FB7F894111104C08C9151
:10040000D095D82302C0EC91DE2BDC939FBFDF9107
:10041000CF911F910895CF93DF9390E0FC01EA56AE
:10042000FD4F2491FC01EE57FD4F8491882361F12B
:1004300090E0880F991FFC01EC59FD4FC591D491B4
:10044000FC01E259FD4FA591B491611109C09FB71C
:10045000F8948881209582238883EC912E230BC009
:10046000623061F49FB7F8948881322F30958323EE
:100470008883EC912E2B2C939FBF06C08FB7F894E6
:10048000E8812E2B28838FBFDF91CF9108953FB74E
:10049000F8948091180390911903A0911A03B091D8
:1004A0001B0326B5A89B05C02F3F19F00196A11D7F
:1004B000B11D3FBFBA2FA92F982F8827820F911DFA
:1004C000A11DB11DBC01CD0142E0660F771F881F41
:1004D000991F4A95D1F708958F929F92AF92BF923C
:1004E000CF92DF92EF92FF926B017C010E94470254
:1004F0004B015C01C114D104E104F104F1F00E944C
:100500004702DC01CB0188199909AA09BB09883E79
:100510009340A105B10570F321E0C21AD108E108AA
:10052000F10888EE880E83E0981EA11CB11CC1144E
:10053000D104E104F10419F7DDCFFF90EF90DF90D3
:10054000CF90BF90AF909F908F900895CF93C82F7A
:1005500060E086E00E94DC01CEBD00000DB407FE25
:10056000FDCF8EB561E086E0CF910C94DC01CF9396
:10057000C82F60E085E00E94DC018C2FCF910C94A5
:10058000A60284E190E0089508950F931F93CF93FE
:10059000DF938C0189E00E94B301EC0184E00E94AA
:1005A000B301D8015096ED91FC915197CD2B49F4B0
:1005B0008DEC9CECACECBDE380839183A283B38390
:1005C00004C01082118212821382DF91CF911F9199
:1005D0000F9108950F931F93CF93DF93EC018B013D
:1005E000FB012081318142815381688179818A8137
:1005F0009B810E94140A688379838A839B83F80114
:1006000024813581468157816C817D818E819F81D6
:100610000E94140A6C837D838E839F83DF91CF9128
:100620001F910F910895EF92FF920F931F93CF9315
:10063000DF937C01C0E080E80E94B7028C2F8064C9
:100640000E94B70200E010E0F701E00FF11FD08137
:1006500061E085E00E94DC018D2F0E94A6020F5F01
:100660001F4F0435110581F7CF5F84E5E80EF11CBB
:10067000C63009F7DF91CF911F910F91FF90EF9056
:1006800008952F923F924F925F926F927F928F9236
:100690009F92AF92BF92CF92DF92EF92FF920F9311
:1006A0001F93CF93DF93CDB7DEB72F970FB6F89494
:1006B000DEBF0FBECDBF9D838C834B015F834E8316
:1006C000FB01859194918983822F90E09F878E878B
:1006D000A12CB12C8E0D911D9B878A87202E312C49
:1006E00091012C0D311D3D872C8720E3422E512C8A
:1006F000612C712C8A859B852E853F8528173907AB
:100700000CF077C0610197E0E92EF12C822F082EC2
:10071000000C990B998788872C853D85C216D306D6
:100720000CF058C08E819F81A816B90608F04EC003
:10073000F7FE0CC09FEFA91AB90AF401EA0DFB1DE0
:1007400085919491898387E0E82EF12C26E030E0B2
:100750000C2D0C2C000C110BD8010E94A50CA30130
:1007600092010E94B00938E0239F00191109112459
:10077000EC81FD8184E5829FE00DF11D1124288527
:100780003985E20FF31F81E090E0002E01C0880F51
:100790000A94EAF780959081282F29233981832FA5
:1007A00090E00E2C02C0959587950A94E2F7382FB9
:1007B00031703A831B828A819B8101C0880F0A9520
:1007C000EAF7822B808381E0E81AF1089FEFC91ACB
:1007D000D90AA2CF2FEFA21AB20AF401EA0DFB1D2B
:1007E0008591949189838E859F8501969F878E87B9
:1007F00081CF2F960FB6F894DEBF0FBECDBFDF912D
:10080000CF911F910F91FF90EF90DF90CF90BF900D
:10081000AF909F908F907F906F905F904F903F90A0
:100820002F9008958F929F92AF92BF92CF92EF92A6
:10083000FF920F93CF93DF93EC014C815D8126E013
:1008400080E090E0FA01E80FF91F108201968435EC
:100850009105C1F721504C5A5F4F2111F1CF5E0134
:1008600086E0A80EB11C4E01A0E18A0E911CD501B4
:10087000ED91FD915D01E080F180F701648175816A
:10088000868197810E94F70A062FD7016D917D918D
:100890008D919C910E94F70A262F84E0C82E94E047
:1008A000E92E44E050E068E670E08C819D810E9472
:1008B00041038A149B04D9F68C819D81DF91CF91ED
:1008C0000F91FF90EF90CF90BF90AF909F908F903F
:1008D0000C9413030E94D30D8F929F92AF92BF92FC
:1008E000CF92DF92EF92FF92FC0160817181828151
:1008F0009381C480D580E680F7809B01AC010E9483
:10090000DD0B4B015C01A7019601C701B6010E94F6
:10091000DD0B9B01AC01C501B4010E94140AFF90DC
:10092000EF90DF90CF90BF90AF909F908F900C94FE
:10093000500CCF93DF93EC010E946C049B01AC013F
:10094000688179818A819B810E94850A6883798385
:100950008A839B83CE010E946C049B01AC016C8155
:100960007D818E819F810E94850A6C837D838E8329
:100970009F83DF91CF9108952F923F924F925F9284
:100980006F927F929F92AF92BF92CF92DF92EF923F
:10099000FF920F931F93CF93DF93CDB7DEB72897C6
:1009A0000FB6F894DEBF0FBECDBF5C018C01912C59
:1009B000D8011696ED91FC911797E280F380C7015C
:1009C0000E946C0420E030E0A9010E94800A882384
:1009D00009F457C0F70184819581A681B7814081D0
:1009E000518162817381705849835A836B837C8300
:1009F000B0588D839E83AF83B887CE0101960E9445
:100A0000990484E00E94B301892B99F42AE939E919
:100A100049E95EE369817A818B819C810E94DD0BCB
:100A200069837A838B839C832AE939E949E95EE308
:100A300012C02FE832EC45EF5CE369817A818B814B
:100A40009C810E94DD0B69837A838B839C832FE8D2
:100A500032EC45EF5CE36D817E818F8198850E9449
:100A6000DD0B6D837E838F839887D8011696ED9179
:100A7000FC911797BE016F5F7F4F848195810E9423
:100A8000EA02D5015296ED91FC915397248135816C
:100A90004681578180819181A281B38189839A8324
:100AA000AB83BC83F801E680F780D70116966D9181
:100AB0007D918D919C9119970E94DD0B6D837E83B2
:100AC0008F839887BE016F5F7F4FF7018481958187
:100AD0000E94EA02D50150966D917C915197D80100
:100AE0001696ED91FC911797848195810E94EA02F8
:100AF000F801C680D780D60116964D905D906D9016
:100B00007C9019971496ED90FC901597A301920193
:100B1000F70160817181828193810E94850AD701EA
:100B20006D937D938D939C931397A30192011496DB
:100B30006D917D918D919C9117970E94850AF70187
:100B40006483758386839783B701D60112968D914E
:100B50009C9113970E94EA02D8011696ED91FC91A0
:100B60001797E280F380C7010E946C0420E030E018
:100B700040E050E40E94D80B18160CF5C7010E9403
:100B80009904F70160817181828193819B01AC019D
:100B90000E94140AD7016D937D938D939C931397B4
:100BA00014966D917D918D919C9117979B01AC014D
:100BB0000E94140AF7016483758386839783D801A2
:100BC0001696ED91FC9117976281738180819181D6
:100BD0000E94EA02F801C680D780D6011496ED90F3
:100BE000FC90159720E030E0A901F7016081718148
:100BF000828193810E94DD0BD7016D937D938D934C
:100C00009C93139720E030E0A90114966D917D919B
:100C10008D919C9117970E94DD0BF701648375837A
:100C200086839783D601ED90FC90F7012080318078
:100C30004280538020E030E040EA52E4C201B1013A
:100C40000E94D80B18164CF020E030E0A901C20138
:100C5000B1010E94800A87FF36C0D60112966D90BE
:100C60007C901397F3012081318142815381C2012D
:100C7000B1010E94130AD7016D937D938D939C93CC
:100C80001397F301248135814681578114966D9124
:100C90007D918D919C9117970E94130AD70114960C
:100CA0006D937D938D939C931797F3018081918130
:100CB000A281B381B05880839183A283B383B301AF
:100CC000C7010E94EA02D601ED90FC90F701448032
:100CD00055806680778020E030E040E352E4C30135
:100CE000B2010E94D80B18164CF020E030E0A901A8
:100CF000C301B2010E94800A87FF34C0D601129658
:100D0000CD90DC901397F60120813181428153818F
:100D1000D7016D917D918D919C910E94130AF701ED
:100D20006083718382839383D60114962D913D91C4
:100D30004D915C911797C301B2010E94130AF7010C
:100D40006483758386839783F60184819581A68168
:100D5000B781B05884839583A683B783B601C70152
:100D60000E94EA0293940E5F1F4FF5E09F1220CE7F
:100D700028960FB6F894DEBF0FBECDBFDF91CF919E
:100D80001F910F91FF90EF90DF90CF90BF90AF90A9
:100D90009F907F906F905F904F903F902F9008951D
:100DA0001F920F920FB60F9211242F933F938F93A0
:100DB0009F93AF93BF938091140390911503A091DB
:100DC0001603B09117033091130323E0230F2D373F
:100DD00020F40196A11DB11D05C026E8230F02963F
:100DE000A11DB11D20931303809314039093150349
:100DF000A0931603B09317038091180390911903E1
:100E0000A0911A03B0911B030196A11DB11D8093FF
:100E1000180390931903A0931A03B0931B03BF9177
:100E2000AF919F918F913F912F910F900FBE0F9097
:100E30001F901895789484B5826084BD84B58160D4
:100E400084BD85B5826085BD85B5816085BD809195
:100E50006E00816080936E0010928100809181000D
:100E60008260809381008091810081608093810005
:100E7000809180008160809380008091B1008460C7
:100E80008093B1008091B00081608093B000809128
:100E90007A00846080937A0080917A0082608093E7
:100EA0007A0080917A00816080937A0080917A0044
:100EB000806880937A001092C10062E088E00E940E
:100EC0000B0262E089E00E940B0262E084E00E9473
:100ED0000B0281E20E94B7028FEB0E94B70284E00E
:100EE0000E94B70283E10E94B70280E20E94B7022B
:100EF0008CE00E94B702C8EFD1E061E085E00E947B
:100F0000DC0180E00E94A6022197B9F7C9E1D1E097
:100F1000AE0126E080E090E0FA01E80FF91F1082B0
:100F2000019684359105C1F721504C5A5F4F21112C
:100F3000F1CF90E3C92E34E5E32E00E048EF51E015
:100F40006CE670E089E191E00E94410389E191E063
:100F50000E9413036EE571E080E090E00E946C0255
:100F600026E080E090E0FE01E80FF91F1082019674
:100F700084359105C1F72150CC5ADF4F2111F1CFB3
:100F800089E191E00E94130362E370E080E090E069
:100F90000E946C0286E190E00E94B20CEC018EE0AF
:100FA00091E09983888389E191E09D838C831E0180
:100FB00086E0280E311CEE24E394F12C0E9459099E
:100FC0004B015C010E9459092B013C018AE090E031
:100FD0000E94B20C8C0188E090E00E94B20C6C017F
:100FE000C501B40120E530E040E050E00E94B009C6
:100FF0000E94280BD6016D937D938D939C9313973C
:10100000C301B20128E230E040E050E00E94B009A4
:101010000E94280BF6016483758386839783D80129
:10102000CD92DC9288E090E00E94B20CFC0110822C
:101030001182128213821482158216821782F8019D
:101040009383828388E090E00E94B20CDC011D92C1
:101050001D921D921C921397FC0114821582168218
:101060001782D80115969C938E931497F1010193E2
:1010700011931F01B7010F2C000C880B990B0E94D4
:10108000280BD80116966D937D938D939C93199799
:10109000B5E0EB0EF11CEAE1EE16F10409F08ECF9B
:1010A00088E090E00E94B20CDC011D921D921D921E
:1010B0001C921397FC011482158216821782998B59
:1010C000888B88E090E00E94B20CDC011D921D929A
:1010D0001D921C9213974DEC5CEC6CEC7DE3FC01D3
:1010E00044835583668377839B8B8A8BD0931203CB
:1010F000C0931103C0E0D0E08091110390911203DE
:10110000DC01ED91FC910190F081E02D0995809139
:10111000110390911203DC01ED91FC910280F381A7
:10112000E02D09958091110390911203DC01ED915E
:10113000FC910480F581E02D099580911103909137
:101140001203DC01ED91FC910680F781E02D0995F9
:101150008091110390911203DC01ED91FC910084C8
:10116000F185E02D0995BC0180E090E00E946C02C1
:10117000209711F20E940000BFCFCF93CFB7F89411
:1011800080911801811127C0ECE8F2E08491E0EA37
:10119000F2E09491E82FF0E0EE0FFF1FEC59FD4FC5
:1011A000A591B491EC91E92321F461E08AE00E94D9
:1011B000DC0161E08AE00E940B028CB580618CBD8D
:1011C0008CB580648CBD61E08DE00E940B0261E013
:1011D0008BE00E940B02809118018F5F80931801B1
:1011E000CFBF61E087E00E940B0261E086E00E94D1
:1011F0000B0261E085E00E940B0261E08BE00E943F
:101200000B0261E08DE00E940B0260E087E00E942B
:10121000DC0161E087E0CF910C94DC018F929F921A
:10122000AF92BF92CF92DF92EF92FF92CF93DF9374
:10123000EC01688179818A819B8161157105810545
:10124000910521F464E279ED8BE597E02DE133EF30
:1012500041E050E00E94B00949015A019B01AC01F4
:10126000A7EAB1E40E94CF096B017C01ACEEB4EFB8
:10127000A50194010E94DD09DC01CB018C0D9D1DAF
:10128000AE1DBF1DB7FF03C00197A109B0488883F9
:101290009983AA83BB83BC01CD019F77DF91CF9156
:1012A000FF90EF90DF90CF90BF90AF909F908F9086
:1012B00008958F929F92AF92BF92CF92DF92EF925A
:1012C000FF92609100017091010180910201909163
:1012D0000301611571058105910521F464E279ED41
:1012E0008BE597E02DE133EF41E050E00E94B0093B
:1012F00049015A019B01AC01A7EAB1E40E94CF0960
:101300006B017C01ACEEB4EFA50194010E94DD09F4
:10131000DC01CB018C0D9D1DAE1DBF1DB7FF03C0B1
:101320000197A109B0488093000190930101A09317
:101330000201B0930301BC01CD019F77FF90EF90B4
:10134000DF90CF90BF90AF909F908F900895609363
:1013500000017093010180930201909303010895AD
:10136000052E97FB1EF400940E94C70957FD07D075
:101370000E94E20907FC03D04EF40C94C709509573
:101380004095309521953F4F4F4F5F4F0895909571
:101390008095709561957F4F8F4F9F4F08950E9464
:1013A000040AA59F900DB49F900DA49F800D911DE0
:1013B00011240895B7FF0C94CF090E94CF09821B16
:1013C000930B0895A1E21A2EAA1BBB1BFD010DC0B1
:1013D000AA1FBB1FEE1FFF1FA217B307E407F507E5
:1013E00020F0A21BB30BE40BF50B661F771F881FC1
:1013F000991F1A9469F760957095809590959B0157
:10140000AC01BD01CF010895A29FB001B39FC001FF
:10141000A39F700D811D1124911DB29F700D811D20
:101420001124911D08955058BB27AA270E942B0A0A
:101430000C949E0B0E94900B38F00E94970B20F0AA
:1014400039F49F3F19F426F40C948D0B0EF4E095BB
:10145000E7FB0C94870BE92F0E94AF0B58F3BA17E8
:10146000620773078407950720F079F4A6F50C94BA
:10147000D10B0EF4E0950B2EBA2FA02D0B01B90164
:1014800090010C01CA01A0011124FF27591B99F0FA
:10149000593F50F4503E68F11A16F040A22F232F06
:1014A000342F4427585FF3CF469537952795A79556
:1014B000F0405395C9F77EF41F16BA0B620B730BFD
:1014C000840BBAF09150A1F0FF0FBB1F661F771F6E
:1014D000881FC2F70EC0BA0F621F731F841F48F423
:1014E000879577956795B795F7959E3F08F0B0CFAC
:1014F0009395880F08F09927EE0F97958795089593
:101500000E94630B08F481E008950E94990A0C94EC
:101510009E0B0E94970B58F00E94900B40F029F40C
:101520005F3F29F00C94870B51110C94D20B0C9453
:101530008D0B0E94AF0B68F39923B1F3552391F300
:10154000951B550BBB27AA2762177307840738F032
:101550009F5F5F4F220F331F441FAA1FA9F335D08F
:101560000E2E3AF0E0E832D091505040E695001C43
:10157000CAF72BD0FE2F29D0660F771F881FBB1FFD
:10158000261737074807AB07B0E809F0BB0B802DDB
:10159000BF01FF2793585F4F3AF09E3F510578F007
:1015A0000C94870B0C94D20B5F3FE4F3983ED4F37A
:1015B000869577956795B795F7959F5FC9F7880FDB
:1015C000911D9695879597F90895E1E0660F771F2D
:1015D000881FBB1F621773078407BA0720F0621BBE
:1015E000730B840BBA0BEE1F88F7E09508950E94E9
:1015F000B70B88F09F5798F0B92F9927B751B0F0E3
:10160000E1F0660F771F881F991F1AF0BA95C9F786
:1016100014C0B13091F00E94D10BB1E008950C9448
:10162000D10B672F782F8827B85F39F0B93FCCF3FB
:10163000869577956795B395D9F73EF49095809503
:10164000709561957F4F8F4F9F4F0895E89409C023
:1016500097FB3EF490958095709561957F4F8F4FE5
:101660009F4F9923A9F0F92F96E9BB279395F695FB
:10167000879577956795B795F111F8CFFAF4BB0F79
:1016800011F460FF1BC06F5F7F4F8F4F9F4F16C0DD
:10169000882311F096E911C0772321F09EE8872F67
:1016A000762F05C0662371F096E8862F70E060E023
:1016B0002AF09A95660F771F881FDAF7880F96959C
:1016C000879597F90895990F0008550FAA0BE0E840
:1016D000FEEF16161706E807F907C0F012161306F4
:1016E000E407F50798F0621B730B840B950B39F434
:1016F0000A2661F0232B242B252B21F408950A269A
:1017000009F4A140A6958FEF811D811D089597F9D9
:101710009F6780E870E060E008959FEF80EC089597
:1017200000240A94161617061806090608950024C0
:101730000A9412161306140605060895092E03943A
:10174000000C11F4882352F0BB0F40F4BF2B11F4AE
:1017500060FF04C06F5F7F4F8F4F9F4F089557FD0D
:101760009058440F551F59F05F3F71F04795880F0F
:1017700097FB991F61F09F3F79F0879508951216A6
:1017800013061406551FF2CF4695F1DF08C0161652
:1017900017061806991FF1CF869571056105089403
:1017A0000895E894BB2766277727CB0197F908951A
:1017B0000E94630B08F48FEF08950E94F00B0C94C5
:1017C0009E0B0E94900B38F00E94970B20F09523FF
:1017D00011F00C94870B0C948D0B11240C94D20BEC
:1017E0000E94AF0B70F3959FC1F3950F50E0551F0A
:1017F000629FF001729FBB27F00DB11D639FAA2766
:10180000F00DB11DAA1F649F6627B00DA11D661FB4
:10181000829F2227B00DA11D621F739FB00DA11DD5
:10182000621F839FA00D611D221F749F3327A00D8F
:10183000611D231F849F600D211D822F762F6A2F2B
:1018400011249F5750409AF0F1F088234AF0EE0F90
:10185000FF1FBB1F661F771F881F91505040A9F7BD
:101860009E3F510580F00C94870B0C94D20B5F3F88
:10187000E4F3983ED4F3869577956795B795F795F9
:10188000E7959F5FC1F7FE2B880F911D9695879571
:1018900097F9089519F416F40C948D0B0C94900C90
:1018A0000E94B70BB8F39923C9F3B6F39F57550BB2
:1018B00087FF0E949E0C0024A0E640EA9001805819
:1018C0005695979528F4805C660F771F881F20F047
:1018D00026173707480730F4621B730B840B202947
:1018E00031294A2BA69517940794202531254A279C
:1018F00058F7660F771F881F20F02617370748070D
:1019000030F4620B730B840B200D311D411DA0952B
:1019100081F7B901842F9158880F9695879508957E
:101920009F3F31F0915020F4879577956795B79553
:10193000880F911D9695879597F90895915050407D
:10194000660F771F881FD2F708950E94040AB7FF19
:101950000895821B930B0895EE0FFF1F0590F491DD
:10196000E02D09940F931F93CF93DF93823091055D
:1019700010F482E090E0E0911E03F0911F0320E05C
:1019800030E0A0E0B0E0309719F140815181028150
:10199000138148175907C8F08417950769F4109701
:1019A00031F012960C93129713961C9327C0009354
:1019B0001E0310931F0322C02115310519F0421791
:1019C000530718F49A01BD01EF01DF01F801DBCFE5
:1019D00021153105F9F0281B390B2430310580F42D
:1019E0008A819B816115710521F0FB0193838283BC
:1019F00004C090931F0380931E03FE01329644C0DF
:101A0000FE01E20FF31F8193919322503109398334
:101A100028833AC020911C0330911D03232B41F4ED
:101A2000209106013091070130931D0320931C0380
:101A300020910401309105012115310541F42DB7A4
:101A40003EB74091080150910901241B350BE091EC
:101A50001C03F0911D03E217F307A0F42E1B3F0BAC
:101A60002817390778F0AC014E5F5F4F2417350710
:101A700048F04E0F5F1F50931D0340931C0381934A
:101A8000919302C0E0E0F0E0CF01DF91CF911F9190
:101A90000F910895CF93DF93009709F481C0FC0163
:101AA000329713821282A0911E03B0911F031097E8
:101AB00081F420813181820F931F20911C0330918A
:101AC0001D032817390751F5F0931D03E0931C03FC
:101AD00067C0ED0120E030E0CE17DF0740F44A8117
:101AE0005B819E0141155105F1F0EA01F5CFD383E9
:101AF000C28340815181840F951FC817D90759F4BB
:101B000088819981840F951F0296918380838A81B1
:101B10009B81938382832115310529F4F0931F0360
:101B2000E0931E033DC0E901FB83EA83499159918B
:101B3000C40FD51FEC17FD0761F480819181840FDC
:101B4000951F0296E90199838883828193819B8303
:101B50008A83E0E0F0E012968D919C9113970097B4
:101B600019F0FD01DC01F7CF8D919C9111979D013A
:101B70002E5F3F4F820F931F20911C0330911D0356
:101B80002817390769F4309729F410921F0310922F
:101B90001E0302C013821282B0931D03A0931C0384
:101BA000DF91CF91089581E090E0F8940C94D80DE6
:041BB000F894FFCFD7
:101BB4000100000000002003800000000000C502B6
:081BC400BC04C4021204C102BA
:00000001FF
