:100000000C9493020C94BB020C94BB020C94BB02A4
:100010000C94BB020C94BB020C94BB020C94BB026C
:100020000C94BB020C94BB020C94BB020C94BB025C
:100030000C94BB020C94BB020C94BB020C94BB024C
:100040000C94420C0C94BB020C94BB020C94BB02AB
:100050000C94BB020C94BB020C94BB020C94BB022C
:100060000C94BB020C94BB0205A84CCDB2D44EB983
:100070003836A9020C50B9918688083CA6AAAA2A4B
:10008000BE000000803F66F9F966235CD5A27DCEF4
:10009000E67D0000000000C003F8067C0DFC0BFEAE
:1000A0004FFC6FFE3FF437FC17F811F00000000022
:1000B0000000000050004800360278085A27749C5F
:1000C000317E74F1538E76403D80780044003000DC
:1000D0000000000000F000F819FC38EC18FC3AF8B9
:1000E000345028B8047C02FE00FC00EC01FC00F84F
:1000F0000000000000000000005F00000007000793
:1001000000147F147F14242A7F2A122313086462A8
:1001100036495522500005030000001C2241000012
:1001200041221C0014083E081408083E080800502C
:10013000300000080808080800606000002010086F
:1001400004023E5149453E00427F40004261514910
:10015000462141454B311814127F1027454545393A
:100160003C4A494930017109050336494949360677
:100170004949291E00363600000056360000081492
:1001800022410014141414140041221408020151D5
:100190000906324979413E7E1111117E7F49494954
:1001A000363E414141227F4141221C7F494949411C
:1001B0007F090909013E4149497A7F0808087F0003
:1001C000417F41002040413F017F081422417F4090
:1001D0004040407F020C027F7F0408107F3E414177
:1001E000413E7F090909063E4151215E7F091929D7
:1001F00046464949493101017F01013F4040403FA6
:100200001F2040201F3F4038403F631408146307FD
:10021000087008076151494543007F4141000204CD
:100220000810200041417F000402010204404040C8
:100230004040000102040020545454787F48444454
:10024000383844444420384444487F38545454187F
:10025000087E0901020C5252523E7F0804047800C5
:10026000447D40002040443D007F10284400004170
:100270007F40007C041804787C08040478384444E7
:1002800044387C14141408081414187C7C080404E2
:10029000084854545420043F4440203C4040207CB3
:1002A0001C2040201C3C4030403C44281028440C7A
:1002B0005050503C4464544C440008364100000007
:1002C0007F000000413608001008081008784641F9
:1002D0004678FFFFFFFFFFFFFFFFFFFFFFFFFFE08D
:1002E000000001FFFF9FFFFFFC7FFF3FFFFFFF7F3D
:1002F000FE7FFFFFFFBFFEFFFFFFFF9FFDFFFFFF32
:10030000FFDFFDFFFFC1FFCFFDFFFF9FFFCFFDFF21
:10031000FF7FFFCFFDFFF71FFFCFFDFF8779FFCFE7
:10032000FDFC0F41FFCFFDF8EF1FFFCFFDFE0FF1EA
:10033000FFCFFDFFE383FFCFFDFFFF0FFFCFFDFCEE
:10034000676FFFCFFDF8076FFFCFFDFB8F61FFCF1A
:10035000FDFB2303FFCFFDFC7BBFFFCFFDFFFFFDB8
:10036000FFCFFDFC078DFFCFFDF9F36DFFCFFDFB48
:10037000FB6DFFCFFDF9F36DFFCFFDFDE763FFCF11
:10038000FDFFFF7FFFCFFDFFFBFFFFCFFDFF83FFE3
:10039000FFCFFDFC0F71FFCFFDF8EF01FFCFFDFC9C
:1003A0000F3FFFCFFDFF837FFFCFFDFFFF7FFFCF1D
:1003B000FDFFFFF1FFCFFDF80301FFCFFDFBFB2D9C
:1003C000FFCFFDFBFB6DFFCFFDF8036DFFCFFDFF02
:1003D0000F6FFFCFFDFFFF7DFFFFFDF80391FFFFD4
:1003E000FDFB9B07C7FFFDFBDB63D0FFFDFFFF634A
:1003F0009E1FFDFFFF690F8FFDFFFF4F4FCFFFFFD8
:10040000FF1F4FCFFFFFFFFE4FCFFFFFFFFE0FEF9E
:10041000FFF7FFE40FEFFF83FF04AFEFFC10E000F6
:100420008FEFF9F240000FEFFB730020A7EFFA0BFC
:100430000C60E7EFFA930900E7EFFBF3091287EF8F
:10044000FA03031807EFFAFB098887E7F3DB0908CB
:1004500087E7F21B010087E7F20B030080E7F3DB7D
:100460000308CC27F20B09185FC7F20B0C081CE736
:10047000F3FB096038EFF27B193038EFF21B0C0EFA
:100480007CCFF3FB18084FDFF3E30181861FF305F0
:100490003C1F8C9FF03C21E3D1BFFBFF2F0367BFC4
:1004A000F9C7F0004F3FFDC78181127FFCC60F0ED8
:1004B000207FFE7FFF7F70FFFE00000000FFFFFF38
:1004C000FFFFFFFFFFFFFFFFFFFF00000000240012
:1004D00027002A0000000000250028002B00000053
:1004E000000023002600290004040404040404047A
:1004F00002020202020203030303030301020408CF
:10050000102040800102040810200102040810207D
:1005100000000008000201000003040700000000C2
:1005200000000000AC0E11241FBECFEFD4E0DEBFF0
:10053000CDBF11E0A0E0B1E0E8E2F9E202C0059031
:100540000D92A236B107D9F723E0A2E6B1E001C0CF
:100550001D92AA36B207E1F712E0C3E9D2E004C067
:100560002197FE010E946713C239D107C9F70E9483
:100570008C0C0C9492140C940000833081F028F4BD
:10058000813099F08230A9F008958730A9F0883041
:10059000C9F08430B1F4809180008F7D03C08091D8
:1005A00080008F7780938000089584B58F7784BD15
:1005B000089584B58F7DFBCF8091B0008F778093B5
:1005C000B00008958091B0008F7DF9CFCF93DF9375
:1005D000282F30E0F901E05FFA4F8491F901E450EF
:1005E000FB4FD491F901E851FB4FC491CC23A1F00A
:1005F00081110E94BD02EC2FF0E0EE0FFF1FE252CE
:10060000FB4FA591B491EC91ED2381E090E009F4CA
:1006100080E0DF91CF91089580E090E0FACF1F93C2
:10062000CF93DF93282F30E0F901E05FFA4F8491F8
:10063000F901E450FB4FD491F901E851FB4FC4910B
:10064000CC23A9F0162F81110E94BD02EC2FF0E0FF
:10065000EE0FFF1FEC52FB4FA591B4918FB7F894AA
:10066000EC91111108C0D095DE23DC938FBFDF9190
:10067000CF911F910895DE2BF8CFCF93DF9390E0B9
:10068000FC01E450FB4F249188519B4FFC01849165
:100690008823D1F090E0880F991FFC01E653FB4FAF
:1006A000A591B491FC01EC52FB4FC591D4916230FD
:1006B00071F49FB7F8943C91822F809583238C939B
:1006C000E8812E2B28839FBFDF91CF9108958FB7AC
:1006D000F894EC912E2B2C938FBFF6CF8E50806424
:1006E00080937C0080917A00806480937A0080916E
:1006F0007A0086FDFCCF8091780090917900089572
:100700003FB7F8948091620390916303A0916403D2
:10071000B091650326B5A89B05C02F3F19F001963F
:10072000A11DB11D3FBFBA2FA92F982F8827BC014B
:10073000CD01620F711D811D911D42E0660F771F73
:10074000881F991F4A95D1F708958F929F92AF9273
:10075000BF92CF92DF92EF92FF926B017C010E94D9
:1007600080034B015C01C114D104E104F104B9F030
:100770000E948003681979098A099B09683E7340C1
:100780008105910580F321E0C21AD108E108F10842
:1007900088EE880E83E0981EA11CB11CE4CFFF9068
:1007A000EF90DF90CF90BF90AF909F908F90089583
:1007B000CF93C82F60E086E00E940F03CEBD0000FB
:1007C0000DB407FEFDCF8EB561E086E0CF910C94AD
:1007D0000F03CF93C82F61E085E00E940F038C2F99
:1007E000CF910C94D803DF92EF92FF920F931F9357
:1007F000CF93DF938C0185E0D82EF80181918F0192
:100800008823E9F0082E000C990B8097D89E900160
:10081000D99E300D1124D0E0C0E0C9018E509F4F09
:100820007C01F701EC0FFD1F84910E94E9032196E2
:10083000C530D105B1F780E00E94E903DECFDF913A
:10084000CF911F910F91FF90EF90DF900895CF937C
:10085000C82F60E085E00E940F038C2FCF910C948D
:10086000D80385E090E008950895CF92DF92EF924B
:10087000FF920F931F93CF93FC012485211120C079
:100880008C01C0E0C12C84E0D82EE12CF12C88E052
:100890000E94E602892B89F0C1110FC08FE00E94EF
:1008A0006E0323E030E0DC010E944C13A7019601A7
:1008B0000E94A10FCFEFC20FEACF8AE0F801848730
:1008C000CF911F910F91FF90EF90DF90CF900895FF
:1008D00084E190E00895CF92DF92EF92FF92CF9360
:1008E000DF93EC016A017B01AB019601688179819C
:1008F0008A819B810E941912688379838A839B83F2
:10090000A70196016C817D818E819F810E941912C1
:100910006C837D838E839F83DF91CF91FF90EF90D7
:10092000DF90CF9008950F931F93CF93DF93EC0147
:100930008B01FB0120813181428153816881798162
:100940008A819B810E940510688379838A839B83B7
:10095000F80124813581468157816C817D818E81AA
:100960009F810E9405106C837D838E839F83DF911E
:10097000CF911F910F91089524E0FC01238390E013
:100980002FEF865A953040F4382F3E1B30879F5FFB
:1009900031969B3FB9F708952087F9CF8AEF90E011
:1009A0000895DC01FC0139969C012D5F3E4F18969D
:1009B0008C91189741E091919F3F41F0891303C0BA
:1009C00015964C931597E217F307A9F714969C9187
:1009D0001497891314C01396EC911397EF5F139635
:1009E000EC931397EA0FFB2FF11DEA17FB0721F099
:1009F000978190873197F9CF80878FEF848308950F
:100A0000CF92DF92EF92FF921F93CF93DF93EC018F
:100A10008D8181113EC08EE00E946E0323E030E0A4
:100A2000DC010E944C13C12C24E0D22EE12CF12CCD
:100A3000A70196010E94A10F1FEF120F8FE00E94E5
:100A40006E0323E030E0DC010E944C13A701960105
:100A50000E94A10F2150112349F08A8182508230D7
:100A6000F8F082E011169CF083E011C0222331F0EF
:100A70008A81823018F012164CF41A82DF91CF91DD
:100A80001F91FF90EF90DF90CF90089581E08A83CF
:100A9000F5CF88E00E94E602892BD9F71D82E4CFCA
:100AA0002111E9CFEBCFEF92FF920F931F93CF93DA
:100AB0007C01C0E080E80E9427048C2F80640E94A3
:100AC000270410E000E0F701E00FF11F80810E9491
:100AD000E9030F5F1F4F04351105A9F7CF5F84E5C8
:100AE000E80EF11CC63031F7CF911F910F91FF90A6
:100AF000EF900895DF92EF92FF920F931F93CF93A1
:100B0000DF93EC01162FD42EE22E220FFF0826E0F1
:100B100030E0D7010E944C1320E330E040E050E089
:100B20000E94A10F88E0289FE018F108112484E5B5
:100B3000289FC00DD11D1124CD0DD11DD7FCDA95F4
:100B400041E050E00E2C01C0440F0A94EAF74095B2
:100B500088814823612F110F770B01C0660FEA943B
:100B6000EAF7462B4883002399F0122F8D2D8068D9
:100B70000E942704812F80640E9427048881DF91CE
:100B8000CF911F910F91FF90EF90DF900C94E903AC
:100B9000DF91CF911F910F91FF90EF90DF9008951B
:100BA0002F923F924F925F926F927F928F929F927D
:100BB000AF92BF92CF92DF92EF92FF920F931F936B
:100BC000CF93DF93CDB7DEB729970FB6F894DEBF8A
:100BD0000FBECDBF1C012B015A8349838A2D8B8206
:100BE000FB0145915491142F822E912C712C612C74
:100BF00094012E0D311D3D832C83A02EB12C950127
:100C00002C0D311D3F832E83282F30E03987288714
:100C10008C819D81881699060CF03EC0650197E095
:100C2000E92EF12CC3010196F201E80FF91F2E8184
:100C30003F81C216D30644F529813A8162167306B4
:100C4000F8F4F7FE07C025913491122F3C0187E09C
:100C5000E82EF12C612F70E0C70128853985821BB1
:100C6000930B02C0759567958A95E2F761700B81C9
:100C70002C2D482DC1010E947A0531E0E31AF108BC
:100C80004FEFC41AD40ACECF259134914FEF841A76
:100C9000940A122F3C01BCCF29960FB6F894DEBF00
:100CA0000FBECDBFDF91CF911F910F91FF90EF90BD
:100CB000DF90CF90BF90AF909F908F907F906F907C
:100CC0005F904F903F902F9008952F923F924F92B8
:100CD0005F926F927F928F92AF92CF92EF920F932B
:100CE000CF93DF93CDB7DEB72E970FB6F894DEBF64
:100CF0000FBECDBF2C018CE0EAE0F1E0DE011196E1
:100D000001900D928A95E1F7120186E0280E311CC0
:100D1000FE0131963F01C2010C969E878D87F1013D
:100D200081911F018230A1F1833009F440C08130EC
:100D300099F488248394A12C40E1C42E50E1E52E3F
:100D4000F3010181208140E250E062ED70E0F201A8
:100D5000828193810E94D005F2E06F0E711C8D8517
:100D60009E8528163906D9F62E960FB6F894DEBF62
:100D70000FBECDBFDF91CF910F91EF90CF90AF908D
:100D80008F907F906F905F904F903F902F9008953D
:100D900088248394A12C20E1C22E30E1E32EF301BC
:100DA0000181208140E250E062EB70E0D0CF8824E6
:100DB0008394A12C80E1C82E90E1E92EF3010181FA
:100DC000208140E250E062E970E0C1CFAC0196E0E2
:100DD00030E020E0FA01E20FF31F60832F5F3F4F06
:100DE00024353105B9F791504C5A5F4F9111F0CF2E
:100DF00008958F92AF92CF92EF92FF920F931F932D
:100E0000CF93DF93EC0160E08A819B810E94E6062C
:100E1000EC81FD81E080F180D70114966D917D9188
:100E20008D919C9117970E94F410062FF701608115
:100E30007181828193810E94F410262F812CA12C34
:100E400088E0C82E94E0E92E44E050E06EE870E0BF
:100E50008A819B810E94D0051DE200E02EE2412F95
:100E600061E08A819B810E947A051F5F1733A9F791
:100E7000EC81FD810680F781E02D8E819F8140818C
:100E8000518162817381DC014D935D936D937C93FD
:100E900013974481558166817781FC014483558392
:100EA000668377834DEC5CEC6CE47EE30E946B041C
:100EB00028E14AE261E08A819B810E947A0540E054
:100EC00050E060EA71E48E819F810E946B040E8184
:100ED0001F8120E030E040EC51E4D80114966D9180
:100EE0007D918D919C9117970E9405100E94ED10A5
:100EF000F62E20E030E048E252E4F8016081718192
:100F0000828193810E9405100E94ED10462F00E01F
:100F10002F2D61E08A819B810E947A0540E050E09C
:100F200060E070E48E819F810E946B040E811F81BE
:100F300020E030E040EC51E4D80114966D917D91B1
:100F40008D919C9117970E9405100E94ED10F62E2E
:100F500020E030E048E252E4F80160817181828152
:100F600093810E9405100E94ED10462F00E02F2D66
:100F700061E08A819B810E947A0546E656E666EA30
:100F80007FE38E819F810E946B040E811F8120E090
:100F900030E040EC51E4D80114966D917D918D9133
:100FA0009C9117970E9405100E94ED10F62E20E0EC
:100FB00030E048E252E4F8016081718182819381DE
:100FC0000E9405100E94ED10462F00E02F2D61E0D9
:100FD0008A819B810E947A058A819B81DF91CF91D2
:100FE0001F910F91FF90EF90CF90AF908F900C9446
:100FF00053054F925F926F927F928F92AF92CF92F2
:10100000EF92FF920F931F93CF93DF93EC0160E079
:101010008E819F810E94E6068D81811160C03E0114
:1010200028E0620E711C2E018DEF481A8EEF580ACF
:1010300065E1F62EF30181913F018F3FC9F06F2DDD
:101040000E942413F4E08F9F8001112484E0989F74
:1010500090011124812CA12C44E0C42E54E0E52EF3
:1010600044E050E066E870E08E819F810E94D005E8
:1010700046145704F9F62C81822F6AE00E9424134B
:10108000A12C963010F034E0A32E822F65E10E944F
:101090002413E4E08E9F80011124F4E09F9F9001CF
:1010A0001124812C84E0C82E94E0E92E44E050E025
:1010B0006AE870E08E819F810E94D0058E819F81B9
:1010C000DF91CF911F910F91FF90EF90CF90AF9054
:1010D0008F907F906F905F904F900C9453058E810E
:1010E0009F810E945305CE010E94BC0484E80E94A7
:1010F000270484E40E94270480E491E0DF91CF91EB
:101100001F910F91FF90EF90CF90AF908F907F90B5
:101110006F905F904F900C94F303CF93DF93EC01AB
:101120008A818130D9F13CF5882371F1DE01AE5F0F
:10113000BE4F8BEF90E011963C9111973F3F39F0F5
:10114000009709F443C03C9111963C931197019785
:1011500011978F3F980779F78C818F3F49F40E9450
:10116000490F2BEF30E040E050E00E94A10F6C836C
:10117000DF91CF9108958230B1F08330B9F6488580
:10118000842F90E0019614C0888590E089519F4F8C
:101190006CEF70E00E943013282FC8CF888590E054
:1011A0008F5E9E4FF5CF4885242F2150330BC90108
:1011B00065E170E00E943013282F35E1842F632F02
:1011C0000E942413839F200D1124B0CF2887BFCF06
:1011D0008F929F92AF92BF92EF92FF920F931F93C5
:1011E000CF93DF93FC012485222331F1EC0186812A
:1011F000818787818287808583878F010A5F1F4F60
:101200007F01F9E0EF0EF11C83E0882E912CA12CD8
:10121000B12C0E94490FA50194010E94A10F6F5F9C
:101220007F4F8F4F9F4FF80161938F01EE15FF05A0
:1012300081F78C8581508C87DF91CF911F910F9121
:10124000FF90EF90BF90AF909F908F9008958F92F6
:101250009F92AF92BF92CF92DF92EF92FF92FC01EA
:101260006081718182819381C480D580E680F7801E
:101270009B01AC010E9419124B015C01A701960170
:10128000C701B6010E9419129B01AC01C501B4014E
:101290000E940510FF90EF90DF90CF90BF90AF902D
:1012A0009F908F900C949412CF92DF92EF92FF92C6
:1012B000CF93DF93EC010E9427096B017C0127E1AA
:1012C00037EB41ED58E30E9414121816FCF4A70105
:1012D0009601688179818A819B810E947B10688355
:1012E00079838A839B83A70196016C817D818E819E
:1012F0009F810E947B106C837D838E839F83DF910F
:10130000CF91FF90EF90DF90CF90089518821982CF
:101310001A821B821C821D821E821F82F0CF4F9276
:101320005F926F927F928F929F92AF92BF92CF9275
:10133000DF92EF92FF920F931F93CF93DF93CDB77E
:10134000DEB72A970FB6F894DEBF0FBECDBF9A87DF
:101350008987DC0116960D911C9117971496ED90D4
:10136000FC90F701608570E090E080E00E9423111E
:101370004B015C0120E030E0A9010E941912D80164
:101380006D937D938D939C9313972AE037ED43E201
:101390005DE3C501B4010E941912F80164837583ED
:1013A00086839783B801D70114968D919C910E94F2
:1013B0009304A985BA851496ED91FC91028113815D
:1013C000C8010E94270920E030E0A9010E947110A5
:1013D000882309F445C0E985FA8586819781D8017B
:1013E0004D915D916D917C911397FC0140835183E8
:1013F0006283738314964D915D916D917C911797E3
:1014000044835583668377830E945409A985BA85EE
:101410001496ED91FC91828193810E9427096B01C2
:101420007C012AE037ED43E25CEB0E941912A70130
:1014300096010E941912AB01BC01E985FA858681EB
:1014400097810E946B04A985BA8516966D917C914F
:1014500017971496ED91FC91848195810E949304D5
:101460008EE00E946E039C01ACEFBFEF0E9444131C
:1014700020E034E040E050E00E94A10F2E5F3F4F9B
:101480004F4F5F4F2115310509F471C0A985BA8509
:101490001496ED91FC9106811781D8018D919D9153
:1014A0000D90BC91A02D89839A83AB83BC83220FBE
:1014B000331FB901330F880B990B0E94251123ECC0
:1014C00035EF48E450E40E94191220E030E044E394
:1014D00053E40E947B104B015C010E9476106B016B
:1014E0007C01F8014480558066807780C501B40195
:1014F0000E9486124B015C01A701960169817A81E5
:101500008B819C810E9419126D837E838F839887C3
:10151000A5019401C301B2010E9419129B01AC0103
:101520006D817E818F8198850E940410D8016D9312
:101530007D938D939C931397A501940169817A8182
:101540008B819C810E9419124B015C01A3019201C5
:10155000C701B6010E9419129B01AC01C501B4017B
:101560000E940510F801648375838683978389E060
:101570000E94E602892BB9F5A985BA851496ED91EA
:10158000FC9115970680F781E02D16968D919C9120
:101590004081518162817381DC014D935D936D9334
:1015A0007C9313974481558166817781FC01448344
:1015B0005583668377830E94540940E050E060E1E0
:1015C00071E4A985BA8516968D919C910E946B0451
:1015D000E985FA85668177810480F581E02D848133
:1015E00095810E949304A985BA851496ED90FC908C
:1015F000F70104811581608570E090E080E00E9431
:1016000023114B015C01AC019B01D8016D917D91CF
:101610008D919C910E947B10F8016083718382837D
:101620009383A501940164817581868197810E94CD
:101630007B10D80114966D937D938D939C9317978F
:10164000B801F701828193810E949304A985BA852C
:101650001496ED91FC91A080B18002811381F80174
:101660002081318142815381D5016D917D918D9190
:101670009C910E9405106B017C0120E030E040EA63
:1016800052E40E94141218160CF0DFC0F50110820B
:10169000118212821382D8011496CD90DD90ED90C4
:1016A000FC901797F5012481358146815781C70148
:1016B000B6010E9405104B015C0120E030E040E2E1
:1016C00052E40E94141218165CF020E030E040E86A
:1016D0005FE3C501B4010E94711018160CF45BC0E1
:1016E00020E030E0A901C701B6010E9414121816CB
:1016F0000CF0BEC028E431EE4AEF5EEBC701B60144
:101700000E941912D80114966D937D938D939C932A
:101710001797D80114966D917D918D919C91179793
:101720009B01AC010E9419120E9494122AE037ED2D
:1017300043EA5DE30E94711087FF15C0A985BA8551
:101740001696ED91FC9120E030E0A901648175814D
:10175000868197810E947110811105C0F801148261
:10176000158216821782D801CD90DD90ED90FC9005
:101770002AE037ED43E25DE3C701B6010E9419128A
:101780009B01AC01C701B6010E940410F8016083FF
:10179000718382839383D8016D917D918D919C910A
:1017A0009B01AC010E9419120E9494122AE037EDAD
:1017B00043E25CE30E94711087FF05C0F8011082CC
:1017C000118212821382C8010E94270920E030E0B2
:1017D00040E85FE30E941412181654F4C8010E94F6
:1017E000540940E050E060E87FE3C8010E946B04C8
:1017F000A985BA851496ED91FC91628173818081EF
:1018000091810E949304A985BA851496ED91FC916B
:1018100040E050E0BA01848195812A960FB6F89491
:10182000DEBF0FBECDBFDF91CF911F910F91FF9013
:10183000EF90DF90CF90BF90AF909F908F907F9070
:101840006F905F904F900C946B0420E030E0A90102
:10185000C701B6010E94711087FF1DCF80E090E0A4
:10186000A0EAB2E4F50180839183A283B38313CF0E
:10187000F7FAF094F7F8F094F801C482D582E68282
:10188000F78247CF1F920F920FB60F9211242F931A
:101890003F938F939F93AF93BF9380915E039091FB
:1018A0005F03A0916003B091610330915D0323E079
:1018B000230F2D3758F50196A11DB11D20935D030F
:1018C00080935E0390935F03A0936003B0936103E2
:1018D0008091620390916303A0916403B0916503CA
:1018E0000196A11DB11D8093620390936303A093A1
:1018F0006403B0936503BF91AF919F918F913F9126
:101900002F910F900FBE0F901F90189526E8230F70
:101910000296A11DB11DD2CF789484B5826084BD9A
:1019200084B5816084BD85B5826085BD85B58160E3
:1019300085BD80916E00816080936E001092810061
:10194000809181008260809381008091810081601C
:1019500080938100809180008160809380008091DD
:10196000B10084608093B1008091B0008160809369
:10197000B00080917A00846080937A0080917A0030
:10198000826080937A0080917A00816080937A00EF
:1019900080917A00806880937A001092C10062E0A2
:1019A00088E00E943D0362E089E00E943D0362E01E
:1019B00084E00E943D0381E20E9427048FEB0E9495
:1019C000270484E00E94270483E10E94270480E228
:1019D0000E9427048CE00E942704C8EFD1E080E039
:1019E0000E94E9032197D9F760E083E691E00E9425
:1019F000E606812CA12C90E3C92E24E5E22E00E01E
:101A000020E048EF51E062ED72E083E691E00E9451
:101A1000D00583E691E00E9453056EE571E080E019
:101A200090E00E94A50360E083E691E00E94E60654
:101A300083E691E00E94530562E370E080E090E06D
:101A40000E94A503C1E0C12C34E0D32EE12CF12C7F
:101A500081E80E94270482E40E942704D7E08DE4F5
:101A600091E00E94F303D150D1F781E80E9427044E
:101A700082E40E94270468EC70E080E090E00E941D
:101A8000A503C23009F45EC0C33009F460C08FE41E
:101A900091E0C13009F458C08EE00E946E0323E04B
:101AA00030E0DC010E944C13A70196010E94A10FB7
:101AB0002150310941095109D22FD19588E00E9466
:101AC000E602892B09F449C089E00E94E602892BCD
:101AD00009F443C084E00E94E6029C0181E02115E4
:101AE000310509F480E0DD23A9F1CD0FC4300CF0FD
:101AF0002FC1CC2309F42EC18111AACFC23079F1B4
:101B0000C33009F4EAC0C13009F0A4C084E091E018
:101B10000E946D13EC018AE191E09983888383E050
:101B20008A8384E08B838FEF8C831D8283E691E030
:101B30009F838E83CE010E94BC04D0935C03C0932C
:101B40005B0388C085E591E00E94F303A5CF8CE597
:101B500091E0FACF232B09F09FCF80E0C6CF88E039
:101B600090E00E946D137C0188E291E0D70111960C
:101B70009C938E9383E691E013969C938E93129799
:101B800089E090E00E946D13EC0188E090E00E94F3
:101B90006D1340E050E060EA71E4FC014083518342
:101BA0006283738340E050E060E271E444835583D4
:101BB000668377839983888388E090E00E946D1321
:101BC000FC01108211821282138214821582168205
:101BD00017829B838A8388E090E00E946D13FC014A
:101BE0001082118212821382148215821682178249
:101BF0009D838C8388E090E00E946D13FC0110822D
:101C000011821282138240E050E060E87FEB44834F
:101C10005583668377839F838E83F701D583C4833F
:101C200086E9888788E090E00E946D13DC011D92B0
:101C30001D921D921C921397FC011482158216822C
:101C40001782D70117969C938E931697F0925C0398
:101C5000E0925B03C0E0D0E080915B0390915C0375
:101C6000DC01ED91FC910190F081E02D09958091CE
:101C70005B0390915C03DC01ED91FC910280F381A8
:101C8000E02D099580915B0390915C03DC01ED915F
:101C9000FC910480F581E02D099580915B03909182
:101CA0005C03DC01ED91FC910680F781E02D099544
:101CB00080915B0390915C03DC01ED91FC910084C9
:101CC000F185E02D0995BC0190E080E00E94A5031C
:101CD000209711F20E940000BFCF8DE090E00E949B
:101CE0006D13EC0186E391E09983888381E08C8316
:101CF0008D831C8683E691E09B838A837E01B6E018
:101D0000EB0EF11C6E01ECE0CE0ED11C83E0882EB0
:101D1000912CA12CB12C0E94490FA50194010E9485
:101D2000A10F6F5F7F4F8F4F9F4FD7016D937D0145
:101D3000CA16DB0681F76FEF8A819B810E94E60657
:101D4000CE010E9465068A819B810E945305F5CED3
:101D5000C1E0D2CEC3E0D0CECF93CFB7F89480917C
:101D60006201811127C0E2EFF4E08491E6E0F5E042
:101D70009491E82FF0E0EE0FFF1FE653FB4FA59183
:101D8000B491EC91E92321F461E08AE00E940F0311
:101D900061E08AE00E943D038CB580618CBD8CB50A
:101DA00080648CBD61E08DE00E943D0361E08BE0CA
:101DB0000E943D03809162018F5F80936201CFBFDB
:101DC00061E087E00E943D0361E086E00E943D0300
:101DD00061E085E00E943D0361E08BE00E943D03ED
:101DE00061E08DE00E943D0360E087E00E940F0308
:101DF00061E087E0CF910C940F038F929F92AF9296
:101E0000BF92CF92DF92EF92FF92CF93DF93EC01DC
:101E1000688179818A819B816115710581059105B0
:101E200021F464E279ED8BE597E02DE133EF41E0B9
:101E300050E00E94A10F49015A019B01AC01A7EAA1
:101E4000B1E40E94C00F6B017C01ACEEB4EFA501C0
:101E500094010E94CE0FC60ED71EE81EF91EF7FE93
:101E600006C081E0C81AD108E10880E8F80AC882F3
:101E7000D982EA82FB82C701B6019F77DF91CF91B9
:101E8000FF90EF90DF90CF90BF90AF909F908F909A
:101E900008958F929F92AF92BF92CF92DF92EF926E
:101EA000FF92609100017091010180910201909177
:101EB0000301611571058105910521F464E279ED55
:101EC0008BE597E02DE133EF41E050E00E94A10F58
:101ED00049015A019B01AC01A7EAB1E40E94C00F7D
:101EE0006B017C01ACEEB4EFA50194010E94CE0F12
:101EF000C60ED71EE81EF91EF7FE06C081E0C81AFE
:101F0000D108E10880E8F80AC0920001D0920101EE
:101F1000E0920201F0920301C701B6019F77FF90A2
:101F2000EF90DF90CF90BF90AF909F908F900895EB
:101F3000609300017093010180930201909303016B
:101F40000895052E97FB1EF400940E94B80F57FDCC
:101F500007D00E94D30F07FC03D04EF40C94B80FA7
:101F600050954095309521953F4F4F4F5F4F0895C5
:101F700090958095709561957F4F8F4F9F4F0895F5
:101F80000E94F50FA59F900DB49F900DA49F800D0A
:101F9000911D11240895B7FF0C94C00F0E94C00F2B
:101FA000821B930B0895A1E21A2EAA1BBB1BFD01F5
:101FB0000DC0AA1FBB1FEE1FFF1FA217B307E40728
:101FC000F50720F0A21BB30BE40BF50B661F771F80
:101FD000881F991F1A9469F7609570958095909560
:101FE0009B01AC01BD01CF010895A29FB001B39F39
:101FF000C001A39F700D811D1124911DB29F700D12
:10200000811D1124911D08955058BB27AA270E94B5
:102010001C100C94C6110E948D1138F00E9494116E
:1020200020F039F49F3F19F426F40C948A110EF431
:10203000E095E7FB0C948411E92F0E94EB1158F313
:10204000BA17620773078407950720F079F4A6F59D
:102050000C940D120EF4E0950B2EBA2FA02D0B014F
:10206000B90190010C01CA01A0011124FF27591BDD
:1020700099F0593F50F4503E68F11A16F040A22FE3
:10208000232F342F4427585FF3CF46953795279554
:10209000A795F0405395C9F77EF41F16BA0B620B53
:1020A000730B840BBAF09150A1F0FF0FBB1F661F9A
:1020B000771F881FC2F70EC0BA0F621F731F841FDD
:1020C00048F4879577956795B795F7959E3F08F003
:1020D000B0CF9395880F08F09927EE0F97958795C5
:1020E00008950E94601108F481E008950E949D11F6
:1020F000E3950C94D7110E948F100C94C6110E9486
:10210000941158F00E948D1140F029F45F3F29F09E
:102110000C94841151110C940E120C948A110E948B
:10212000EB1168F39923B1F3552391F3951B550BEC
:10213000BB27AA2762177307840738F09F5F5F4F9A
:10214000220F331F441FAA1FA9F335D00E2E3AF0D9
:10215000E0E832D091505040E695001CCAF72BD0F1
:10216000FE2F29D0660F771F881FBB1F2617370742
:102170004807AB07B0E809F0BB0B802DBF01FF2774
:1021800093585F4F3AF09E3F510578F00C948411BC
:102190000C940E125F3FE4F3983ED4F38695779546
:1021A0006795B795F7959F5FC9F7880F911D96952D
:1021B000879597F90895E1E0660F771F881FBB1F89
:1021C000621773078407BA0720F0621B730B840B36
:1021D000BA0BEE1F88F7E09508950E94F4106894FA
:1021E000B1110C940E1208950E94F31188F09F57BC
:1021F00098F0B92F9927B751B0F0E1F0660F771F2B
:10220000881F991F1AF0BA95C9F714C0B13091F020
:102210000E940D12B1E008950C940D12672F782FD3
:102220008827B85F39F0B93FCCF3869577956795E5
:10223000B395D9F73EF490958095709561957F4F51
:102240008F4F9F4F0895E89409C097FB3EF49095F7
:102250008095709561957F4F8F4F9F4F9923A9F07F
:10226000F92F96E9BB279395F6958795779567950E
:10227000B795F111F8CFFAF4BB0F11F460FF1BC052
:102280006F5F7F4F8F4F9F4F16C0882311F096E9E5
:1022900011C0772321F09EE8872F762F05C0662393
:1022A00071F096E8862F70E060E02AF09A95660F4C
:1022B000771F881FDAF7880F9695879597F9089505
:1022C000990F0008550FAA0BE0E8FEEF1616170647
:1022D000E807F907C0F012161306E407F50798F0AF
:1022E000621B730B840B950B39F40A2661F0232BC8
:1022F000242B252B21F408950A2609F4A140A69544
:102300008FEF811D811D089597F99F6780E870E028
:1023100060E008959FEF80EC089500240A9416165B
:10232000170618060906089500240A9412161306C3
:102330001406050608950C948A110E94F311D8F32F
:10234000E894E0E0BB279F57F0F02AED3FE049EC2E
:1023500006C0EE0FBB0F661F771F881F28F0B23A2A
:1023600062077307840728F0B25A620B730B840B61
:10237000E3959A9572F7803830F49A95BB0F661FF3
:10238000771F881FD2F790480C94D612092E039419
:10239000000C11F4882352F0BB0F40F4BF2B11F452
:1023A00060FF04C06F5F7F4F8F4F9F4F0895EF9383
:1023B000E0FF07C0A2EA2AED3FE049EC5FEB0E9494
:1023C0001C100E94C6110F90039401FC9058E8E67F
:1023D000F0E00C94E91257FD9058440F551F59F046
:1023E0005F3F71F04795880F97FB991F61F09F3F02
:1023F00079F087950895121613061406551FF2CF2B
:102400004695F1DF08C0161617061806991FF1CF7A
:1024100086957105610508940895E894BB276627A1
:102420007727CB0197F908950E94601108F48FEF88
:1024300008950E942C120C94C6110E948D1138F040
:102440000E94941120F0952311F00C9484110C94A7
:102450008A1111240C940E120E94EB1170F3959FB7
:10246000C1F3950F50E0551F629FF001729FBB278B
:10247000F00DB11D639FAA27F00DB11DAA1F649F27
:102480006627B00DA11D661F829F2227B00DA11DDA
:10249000621F739FB00DA11D621F839FA00D611D60
:1024A000221F749F3327A00D611D231F849F600D81
:1024B000211D822F762F6A2F11249F5750409AF0AA
:1024C000F1F088234AF0EE0FFF1FBB1F661F771F36
:1024D000881F91505040A9F79E3F510580F00C9401
:1024E00084110C940E125F3FE4F3983ED4F386956A
:1024F00077956795B795F795E7959F5FC1F7FE2BA1
:10250000880F911D9695879597F908959F930E943E
:102510009D110F9007FCEE5F0C94D71119F416F47F
:102520000C948A110C94D4120E94F311B8F39923DD
:10253000C9F3B6F39F57550B87FF0E94E2120024A0
:10254000A0E640EA900180585695979528F4805C63
:10255000660F771F881F20F026173707480730F4CB
:10256000621B730B840B202931294A2BA6951794E3
:102570000794202531254A2758F7660F771F881FB3
:1025800020F026173707480730F4620B730B840BD3
:10259000200D311D411DA09581F7B901842F91585F
:1025A000880F9695879508959F3F31F0915020F4BC
:1025B000879577956795B795880F911D969587951F
:1025C00097F9089591505040660F771F881FD2F7F2
:1025D00008959F938F937F936F93FF93EF939B0146
:1025E000AC010E941912EF91FF910E94FD122F91F0
:1025F0003F914F915F910C941912DF93CF931F93EA
:102600000F93FF92EF92DF927B018C01689406C0DA
:10261000DA2EEF010E942C12FE01E894A59125917B
:10262000359145915591A6F3EF010E941C10FE01D2
:102630009701A801DA9469F7DF90EF90FF900F916E
:102640001F91CF91DF910895991B79E004C0991FE4
:10265000961708F0961B881F7A95C9F780950895FC
:1026600097FB072E16F4009407D077FD09D00E943F
:10267000531307FC05D03EF4909581959F4F089524
:10268000709561957F4F08950E94F50F332312F4E2
:102690008A1B9B0B0C944E130E94F50FB7FF0895F5
:1026A000821B930B0895AA1BBB1B51E107C0AA1FF5
:1026B000BB1FA617B70710F0A61BB70B881F991FE3
:1026C0005A95A9F780959095BC01CD010895EE0F1C
:1026D000FF1F0590F491E02D09940F931F93CF9362
:1026E000DF938230910510F482E090E0E09168037E
:1026F000F091690330E020E0B0E0A0E0309799F479
:102700002115310509F44AC0281B390B2430310545
:10271000D8F58A819B816115710589F1FB0193834D
:102720008283FE0111C040815181028113814817CB
:102730005907E0F04817590799F4109761F012967D
:102740000C93129713961C933296CF01DF91CF9181
:102750001F910F9108950093680310936903F4CFBC
:102760002115310551F04217530738F0A901DB015B
:102770009A01BD01DF01F801C1CFEF01F9CF9093BC
:10278000690380936803CDCFFE01E20FF31F8193AD
:1027900091932250310939832883D7CF2091660342
:1027A00030916703232B41F42091060130910701FA
:1027B0003093670320936603209104013091050153
:1027C0002115310541F42DB73EB7409108015091D4
:1027D0000901241B350BE0916603F0916703E217B2
:1027E000F307A0F42E1B3F0B2817390778F0AC0134
:1027F0004E5F5F4F2417350748F04E0F5F1F509311
:10280000670340936603819391939FCFF0E0E0E0EC
:102810009CCFCF93DF930097E9F0FC0132971382AE
:102820001282A0916803B0916903ED0130E020E0CD
:102830001097A1F420813181820F931F20916603AC
:10284000309167032817390709F061C0F0936703D7
:10285000E0936603DF91CF910895EA01CE17DF0779
:10286000E8F54A815B819E0141155105B1F7E90107
:10287000FB83EA8349915991C40FD51FEC17FD07DB
:1028800061F4808191810296840F951FE9019983FB
:102890008883828193819B838A83F0E0E0E01296B3
:1028A0008D919C9113970097B9F52D913C911197BB
:1028B000CD010296820F931F20916603309167032A
:1028C0002817390739F6309751F51092690310929D
:1028D0006803B0936703A0936603BCCFD383C2831E
:1028E00040815181840F951FC817D90761F44E5F4D
:1028F0005F4F88819981480F591F518340838A8196
:102900009B81938382832115310509F0B0CFF09329
:102910006903E09368039ECFFD01DC01C0CF138201
:082920001282D7CFF894FFCF1B
:102928000100000000006A038000040518052C055A
:10293800041518152C150000000000058D08D10499
:10294800F907CE040000000034048F093404F906A6
:102958006804000000003504E80834046506310402
:10296800707265737320627574746F6E0020005303
:102978006E616B6500526F636B657400536C6F74A6
:0229880000004D
:00000001FF
