:100000000C944B020C9473020C9473020C947302C4
:100010000C9473020C9473020C9473020C9473028C
:100020000C9473020C9473020C9473020C9473027C
:100030000C9473020C9473020C9473020C9473026C
:100040000C943E070C9473020C9473020C9473028C
:100050000C9473020C9473020C9473020C9473024C
:100060000C9473020C947302000000000000005F07
:1000700000000007000700147F147F14242A7F2A41
:10008000122313086462364955225000050300000C
:10009000001C2241000041221C0014083E081408E4
:1000A000083E0808005030000008080808080060F2
:1000B00060000020100804023E5149453E00427F86
:1000C000400042615149462141454B311814127F8D
:1000D0001027454545393C4A494930017109050316
:1000E0003649494936064949291E0036360000007E
:1000F0005636000008142241001414141414004150
:100100002214080201510906324979413E7E11113B
:10011000117E7F494949363E414141227F4141227A
:100120001C7F494949417F090909013E4149497AF2
:100130007F0808087F00417F41002040413F017F48
:10014000081422417F404040407F020C027F7F0420
:1001500008107F3E4141413E7F090909063E415159
:10016000215E7F09192946464949493101017F012C
:10017000013F4040403F1F2040201F3F4038403F4C
:100180006314081463070870080761514945430068
:100190007F41410002040810200041417F00040219
:1001A0000102044040404040000102040020545439
:1001B00054787F48444438384444442038444448C0
:1001C0007F3854545418087E0901020C5252523E92
:1001D0007F0804047800447D40002040443D007FB7
:1001E0001028440000417F40007C041804787C08FB
:1001F00004047838444444387C1414140808141453
:10020000187C7C080404084854545420043F44409B
:10021000203C4040207C1C2040201C3C4030403C86
:1002200044281028440C5050503C4464544C440022
:100230000836410000007F00000041360800100829
:100240000810087846414678235CD5A2FFFFFFFFDF
:10025000FFFFFFFFFFFFFFFFFFE0000001FFFF9F29
:10026000FFFFFC7FFF3FFFFFFF7FFE7FFFFFFFBF22
:10027000FEFFFFFFFF9FFDFFFFFFFFDFFDFFFFC151
:10028000FFCFFDFFFF9FFFCFFDFFFF7FFFCFFDFFF4
:10029000F71FFFCFFDFF8779FFCFFDFC0F41FFCF99
:1002A000FDF8EF1FFFCFFDFE0FF1FFCFFDFFE38352
:1002B000FFCFFDFFFF0FFFCFFDFC676FFFCFFDF806
:1002C000076FFFCFFDFB8F61FFCFFDFB2303FFCF48
:1002D000FDFC7BBFFFCFFDFFFFFDFFCFFDFC078DCA
:1002E000FFCFFDF9F36DFFCFFDFBFB6DFFCFFDF9F8
:1002F000F36DFFCFFDFDE763FFCFFDFFFF7FFFCF76
:10030000FDFFFBFFFFCFFDFF83FFFFCFFDFC0F7164
:10031000FFCFFDF8EF01FFCFFDFC0F3FFFCFFDFF4B
:10032000837FFFCFFDFFFF7FFFCFFDFFFFF1FFCFFB
:10033000FDF80301FFCFFDFBFB2DFFCFFDFBFB6DA8
:10034000FFCFFDF8036DFFCFFDFF0F6FFFCFFDFF68
:10035000FF7DFFFFFDF80391FFFFFDFB9B07C7FF3C
:10036000FDFBDB63D0FFFDFFFF639E1FFDFFFF6909
:100370000F8FFDFFFF4F4FCFFFFFFF1F4FCFFFFF3F
:10038000FFFE4FCFFFFFFFFE0FEFFFF7FFE40FEF82
:10039000FF83FF04AFEFFC10E0008FEFF9F24000A5
:1003A0000FEFFB730020A7EFFA0B0C60E7EFFA9357
:1003B0000900E7EFFBF3091287EFFA03031807EFD1
:1003C000FAFB098887E7F3DB090887E7F21B0100DE
:1003D00087E7F20B030080E7F3DB0308CC27F20B7F
:1003E00009185FC7F20B0C081CE7F3FB096038EF34
:1003F000F27B193038EFF21B0C0E7CCFF3FB1808A0
:100400004FDFF3E30181861FF3053C1F8C9FF03C17
:1004100021E3D1BFFBFF2F0367BFF9C7F0004F3FB8
:10042000FDC78181127FFCC60F0E207FFE7FFF7FFC
:1004300070FFFE00000000FFFFFFFFFFFFFFFFFF58
:10044000FFFFFFFF00000000240027002A0000003B
:100450000000250028002B00040404040404040404
:10046000020202020202030303030303010204085F
:10047000102040800102040810200102040810200E
:100480000000000800020100000304070000000053
:1004900000000000150911241FBECFEFD4E0DEBF1D
:1004A000CDBF11E0A0E0B1E0E8E3F2E202C00590C8
:1004B0000D92AC31B107D9F723E0ACE1B1E001C056
:1004C0001D92A432B207E1F712E0CBE4D2E004C0FF
:1004D0002197FE010E94040DCA34D107C9F70E947A
:1004E00088070C941A110C94000090E0FC01E0586D
:1004F000FB4F2491FC01E459FB4F3491FC01E85A75
:10050000FB4FE491EE2309F43CC0222339F1233060
:1005100091F038F42130A9F0223001F584B58F7DB7
:1005200012C0273091F02830A1F02430B9F4809126
:1005300080008F7D03C0809180008F778093800042
:100540000DC084B58F7784BD09C08091B0008F77CE
:1005500003C08091B0008F7D8093B000F0E0EE0F7B
:10056000FF1FE25BFB4FA591B4919FB7F894611117
:1005700004C08C913095382302C0EC913E2B3C9303
:100580009FBF0895CF93DF9390E0FC01E459FB4FA8
:100590002491FC01E85AFB4F8491882361F190E09B
:1005A000880F991FFC01EC5BFB4FC591D491FC01B6
:1005B000E25BFB4FA591B491611109C09FB7F8941C
:1005C0008881209582238883EC912E230BC0623092
:1005D00061F49FB7F8948881322F30958323888304
:1005E000EC912E2B2C939FBF06C08FB7F894E88117
:1005F0002E2B28838FBFDF91CF9108953FB7F894BA
:1006000080911C0390911D03A0911E03B0911F03C4
:1006100026B5A89B05C02F3F19F00196A11DB11D5D
:100620003FBFBA2FA92F982F8827820F911DA11D98
:10063000B11DBC01CD0142E0660F771F881F991FD5
:100640004A95D1F708958F929F92AF92BF92CF9221
:10065000DF92EF92FF926B017C010E94FE024B0140
:100660005C01C114D104E104F104F1F00E94FE0226
:10067000DC01CB0188199909AA09BB09883E93407E
:10068000A105B10570F321E0C21AD108E108F10813
:1006900088EE880E83E0981EA11CB11CC114D10401
:1006A000E104F10419F7DDCFFF90EF90DF90CF90D8
:1006B000BF90AF909F908F900895CF93C82F60E028
:1006C00086E00E947502CEBD00000DB407FEFDCF8E
:1006D0008EB561E086E0CF910C947502CF93C82F60
:1006E00061E085E00E9475028C2FCF910C945D0330
:1006F000CF93C82F60E085E00E9475028C2FCF91C8
:100700000C945D0384E190E0089508950F931F9386
:10071000CF93DF93EC018B01FB012081318142817A
:100720005381688179818A819B810E946C0A6883E8
:1007300079838A839B83F80124813581468157819F
:100740006C817D818E819F810E946C0A6C837D8388
:100750008E839F83DF91CF911F910F9108952F92E8
:100760003F924F925F926F927F928F929F92AF9241
:10077000BF92CF92DF92EF92FF920F931F93CF938E
:10078000DF93CDB7DEB72F970FB6F894DEBF0FBE5D
:10079000CDBF9D838C834B015F834E83FB0185918D
:1007A00094918983822F90E09F878E87A12CB12C12
:1007B0008E0D911D9B878A87202E312C91012C0D47
:1007C000311D3D872C8720E3422E512C612C712C4A
:1007D0008A859B852E853F85281739070CF077C0C1
:1007E000610197E0E92EF12C822F082E000C990B65
:1007F000998788872C853D85C216D3060CF058C092
:100800008E819F81A816B90608F04EC0F7FE0CC075
:100810009FEFA91AB90AF401EA0DFB1D8591949185
:10082000898387E0E82EF12C26E030E00C2D0C2C9B
:10083000000C110BD8010E94FD0CA30192010E9433
:10084000080A38E0239F001911091124EC81FD8169
:1008500084E5829FE00DF11D112428853985E20F82
:10086000F31F81E090E0002E01C0880F0A94EAF7A0
:1008700080959081282F29233981832F90E00E2C99
:1008800002C0959587950A94E2F7382F31703A8324
:100890001B828A819B8101C0880F0A95EAF7822B0F
:1008A000808381E0E81AF1089FEFC91AD90AA2CF24
:1008B0002FEFA21AB20AF401EA0DFB1D8591949163
:1008C00089838E859F8501969F878E8781CF2F96FE
:1008D0000FB6F894DEBF0FBECDBFDF91CF911F9151
:1008E0000F91FF90EF90DF90CF90BF90AF909F90CF
:1008F0008F907F906F905F904F903F902F900895D2
:100900000E942B0E8F929F92AF92BF92CF92DF9256
:10091000EF92FF92FC016081718182819381C4809A
:10092000D580E680F7809B01AC010E94350C4B011D
:100930005C01A7019601C701B6010E94350C9B011D
:10094000AC01C501B4010E946C0AFF90EF90DF90EA
:10095000CF90BF90AF909F908F900C94A80CCF93A6
:10096000DF93EC010E9482049B01AC0168817981D4
:100970008A819B810E94DD0A688379838A839B83B5
:10098000CE010E9482049B01AC016C817D818E812D
:100990009F810E94DD0A6C837D838E839F83DF911C
:1009A000CF9108954F925F926F927F928F929F9214
:1009B000AF92BF92CF92DF92EF92FF920F931F936D
:1009C000CF93DF93CDB7DEB728970FB6F894DEBF8D
:1009D0000FBECDBF8C010A5F1F4F4C0120E1820E7C
:1009E000911C80E090E0A8E2B2E489839A83AB8313
:1009F000BC8380E090E0A0ECB1E48D839E83AF8364
:100A0000B8870E94B10921E330E040E050E00E9445
:100A1000080A6F5F7F4F8F4F9F4F0E94800B20E02F
:100A200030E048EC52E40E94DD0A2B013C01D80181
:100A3000AD90BC90F501E080F180D7012D913D9102
:100A40004D915C9169817A818B819C810E946B0AB6
:100A500069837A838B839C83F70124813581468166
:100A600057816D817E818F8198850E946B0A6D838D
:100A70007E838F839887CE0101960E94AF042981DF
:100A80003A814B815C81C301B2010E94350C6B013C
:100A90007C0169837A838B839C832D813E814F8186
:100AA0005885C301B2010E94350C6D837E838F830C
:100AB0009887D5011496ED91FC911597C082D1824B
:100AC000E282F3826483758386839783D801ED91F4
:100AD000FC9164817581828193810E948603D80193
:100AE000ED91FC91E280F380C7010E94820420E036
:100AF00030E040E050E40E94300C18160CF5C701BD
:100B00000E94AF04F70160817181828193819B0112
:100B1000AC010E946C0AD7016D937D938D939C93D9
:100B2000139714966D917D918D919C9117979B01D0
:100B3000AC010E946C0AF7016483758386839783F6
:100B4000D801ED91FC9162817381808191810E9435
:100B50008603F801A190B1908F01D501ED90FC9032
:100B6000F701408051806280738020E030E040EAED
:100B700052E4C301B2010E94300C18164CF020E080
:100B800030E0A901C301B2010E94D80A87FF36C034
:100B9000D5011296CD90DC901397F601208131811A
:100BA00042815381C301B2010E946B0AD7016D9348
:100BB0007D938D939C931397F60124813581468113
:100BC000578114966D917D918D919C9117970E94FC
:100BD0006B0AD70114966D937D938D939C93179711
:100BE000F60180819181A281B381B0588083918385
:100BF000A283B383B601C7010E948603D501ED909D
:100C0000FC90F701448055806680778020E030E0DA
:100C100040E352E4C301B2010E94300C18164CF0BC
:100C200020E030E0A901C301B2010E94D80A87FF89
:100C300034C0D5011296CD90DC901397F601208137
:100C4000318142815381D7016D917D918D919C912C
:100C50000E946B0AF7016083718382839383D601BC
:100C600014962D913D914D915C911797C301B2015E
:100C70000E946B0AF7016483758386839783F6016C
:100C800084819581A681B781B05884839583A6839A
:100C9000B783B601C7010E9486030815190509F03C
:100CA000A0CE28960FB6F894DEBF0FBECDBFDF9161
:100CB000CF911F910F91FF90EF90DF90CF90BF9059
:100CC000AF909F908F907F906F905F904F9008951E
:100CD000CF92DF92EF92FF920F931F93CF93DF9308
:100CE00000D000D01F92CDB7DEB76C0110E080E8D5
:100CF0000E947803812F80640E947803E12CF12CFC
:100D0000F601EE0DFF1D80810E946E038FEFE81A41
:100D1000F80AE4E5EE16F10499F71F5FF4E5CF0E4B
:100D2000D11C163021F700E014E001501109C80170
:100D30000E940A0D0097C9F30E94A20D1F930F9302
:100D400088E191E09F938F938E010F5F1F4F1F9358
:100D50000F930E94300E80E80E94780380E40E9486
:100D6000780378010F900F900F900F900F900F90D5
:100D7000F70101917F010023D9F0F5E00F02800116
:100D80001124C12CD12C005A1109F801EC0DFD1DC4
:100D9000E859FF4F84910E946E038FEFC81AD80A5A
:100DA000E5E0CE16D10489F780E00E946E03E0CF23
:100DB0000F900F900F900F900F90DF91CF911F9198
:100DC0000F91FF90EF90DF90CF9008958F929F92B8
:100DD000AF92BF92CF92EF92FF920F93CF93DF9398
:100DE000EC014C815D8126E080E090E0FA01E80FA3
:100DF000F91F1082019684359105C1F721504C5A94
:100E00005F4F2111F1CF5E0186E0A80EB11C4E01AB
:100E1000A0E18A0E911CD501ED91FD915D01E0806C
:100E2000F180F70164817581868197810E944F0B63
:100E3000062FD7016D917D918D919C910E944F0B52
:100E4000262F84E0C82E94E0E92E44E050E068E4C8
:100E500072E08C819D810E94AF038A149B04D9F6B5
:100E60008C819D81DF91CF910F91FF90EF90CF907A
:100E7000BF90AF909F908F900C9468061F920F9236
:100E80000FB60F9211242F933F938F939F93AF939D
:100E9000BF938091180390911903A0911A03B09108
:100EA0001B033091170323E0230F2D3720F4019605
:100EB000A11DB11D05C026E8230F0296A11DB11D7D
:100EC000209317038093180390931903A0931A0398
:100ED000B0931B0380911C0390911D03A0911E03EE
:100EE000B0911F030196A11DB11D80931C03909327
:100EF0001D03A0931E03B0931F03BF91AF919F9159
:100F00008F913F912F910F900FBE0F901F901895CA
:100F1000CF93DF9300D000D000D0CDB7DEB7789468
:100F200084B5826084BD84B5816084BD85B58260EE
:100F300085BD85B5816085BD80916E00816080939F
:100F40006E00109281008091810082608093810008
:100F50008091810081608093810080918000816018
:100F6000809380008091B10084608093B100809173
:100F7000B00081608093B00080917A00846080939B
:100F80007A0080917A00826080937A0080917A0062
:100F9000816080937A0080917A00806880937A00E3
:100FA0001092C10062E088E00E94C20281E20E94C9
:100FB00078038FEB0E94780384E00E94780383E13A
:100FC0000E94780380E20E9478038CE00E947803FC
:100FD00028EF31E03A83298380E00E946E03898103
:100FE0009A8101979A838983892BB1F7ADE1B1E0AA
:100FF000BA83A983AD0126E080E090E0FA01E80F12
:10100000F91F1082019684359105C1F721504C5A81
:101010005F4F2111F1CF90E3C92E34E5E32E00E0BC
:1010200048EF51E06CE472E08DE191E00E94AF0383
:101030008DE191E00E9468066CEA7DE080E090E03E
:101040000E94230326E080E090E0E981FA81E80F26
:10105000F91F1082019684359105B9F72150E98175
:10106000FA81EC5AFF4FFA83E9832111ECCF8DE12D
:1010700091E00E94680664EF71E080E090E00E94D9
:10108000230380E190E00E940A0D9E838D838EE011
:1010900091E0AD81BE8111969C938E938DE191E09C
:1010A00015969C938E9314971696BA83A983ED8117
:1010B000FE817096FC83EB8380E5482E512C612CD9
:1010C000712C0E94B1094B015C010E94B1096B01B6
:1010D0007C018AE090E00E940A0D8C0188E090E09B
:1010E0000E940A0D1C01C501B401A30192010E94D6
:1010F000080A0E94800BD1016D937D938D939C9380
:101100001397C701B60128E230E040E050E00E94AA
:10111000080A0E94800BF10164837583868397839C
:10112000D8012D923C9288E090E00E940A0DFC01CB
:101130001082118212821382148215821682178203
:10114000F8019383828388E090E00E940A0DDC011D
:101150001D921D921D921C921397FC011482158200
:1011600016821782D80115969C938E93149780E06F
:1011700090E0A0E8BFE3F80186839783A087B1875A
:10118000A981BA810D931D93BA83A983EB81FC8158
:10119000AE17BF0709F095CF2D813E81309316031E
:1011A000209315038091150390911603DC01ED91B6
:1011B000FC910190F081E02D0995809115039091AB
:1011C0001603DC01ED91FC910280F381E02D09957D
:1011D0008091150390911603DC01ED91FC91048040
:1011E000F581E02D09958091150390911603DC019E
:1011F000ED91FC910680F781E02D09958091150312
:1012000090911603DC01ED91FC910084F185E02DB5
:101210000995BC0180E090E00E942303E0E0F0E04B
:10122000309709F4BFCF0995BDCFCF93CFB7F894CE
:1012300080911C01811127C0E2E6F4E08491E6E789
:10124000F4E09491E82FF0E0EE0FFF1FEC5BFB4F12
:10125000A591B491EC91E92321F461E08AE00E9428
:10126000750261E08AE00E94C2028CB580618CBD8B
:101270008CB580648CBD61E08DE00E94C20261E0AB
:101280008BE00E94C20280911C018F5F80931C0141
:10129000CFBF61E087E00E94C20261E086E00E9469
:1012A000C20261E085E00E94C20261E08BE00E9420
:1012B000C20261E08DE00E94C20260E087E00E940D
:1012C000750261E087E0CF910C9475028F929F9236
:1012D000AF92BF92CF92DF92EF92FF92CF93DF93C4
:1012E000EC01688179818A819B8161157105810595
:1012F000910521F464E279ED8BE597E02DE133EF80
:1013000041E050E00E94080A49015A019B01AC01EA
:10131000A7EAB1E40E94270A6B017C01ACEEB4EFAE
:10132000A50194010E94350ADC01CB018C0D9D1DA5
:10133000AE1DBF1DB7FF03C00197A109B048888348
:101340009983AA83BB83BC01CD019F77DF91CF91A5
:10135000FF90EF90DF90CF90BF90AF909F908F90D5
:1013600008958F929F92AF92BF92CF92DF92EF92A9
:10137000FF926091000170910101809102019091B2
:101380000301611571058105910521F464E279ED90
:101390008BE597E02DE133EF41E050E00E94080A31
:1013A00049015A019B01AC01A7EAB1E40E94270A56
:1013B0006B017C01ACEEB4EFA50194010E94350AEB
:1013C000DC01CB018C0D9D1DAE1DBF1DB7FF03C001
:1013D0000197A109B0488093000190930101A09367
:1013E0000201B0930301BC01CD019F77FF90EF9004
:1013F000DF90CF90BF90AF909F908F9008956093B3
:1014000000017093010180930201909303010895FC
:10141000052E97FB1EF400940E941F0A57FD07D06B
:101420000E943A0A07FC03D04EF40C941F0A509510
:101430004095309521953F4F4F4F5F4F08959095C0
:101440008095709561957F4F8F4F9F4F08950E94B3
:101450005C0AA59F900DB49F900DA49F800D911DD7
:1014600011240895B7FF0C94270A0E94270A821BB3
:10147000930B0895A1E21A2EAA1BBB1BFD010DC000
:10148000AA1FBB1FEE1FFF1FA217B307E407F50734
:1014900020F0A21BB30BE40BF50B661F771F881F10
:1014A000991F1A9469F760957095809590959B01A6
:1014B000AC01BD01CF010895A29FB001B39FC0014F
:1014C000A39F700D811D1124911DB29F700D811D70
:1014D0001124911D08955058BB27AA270E94830A02
:1014E0000C94F60B0E94E80B38F00E94EF0B20F0F2
:1014F00039F49F3F19F426F40C94E50B0EF4E095B3
:10150000E7FB0C94DF0BE92F0E94070C58F3BA1786
:10151000620773078407950720F079F4A6F50C9409
:10152000290C0EF4E0950B2EBA2FA02D0B01B9015A
:1015300090010C01CA01A0011124FF27591B99F049
:10154000593F50F4503E68F11A16F040A22F232F55
:10155000342F4427585FF3CF469537952795A795A5
:10156000F0405395C9F77EF41F16BA0B620B730B4C
:10157000840BBAF09150A1F0FF0FBB1F661F771FBD
:10158000881FC2F70EC0BA0F621F731F841F48F472
:10159000879577956795B795F7959E3F08F0B0CFFB
:1015A0009395880F08F09927EE0F979587950895E2
:1015B0000E94BB0B08F481E008950E94F10A0C948C
:1015C000F60B0E94EF0B58F00E94E80B40F029F454
:1015D0005F3F29F00C94DF0B51110C942A0C0C94F2
:1015E000E50B0E94070C68F39923B1F3552391F39F
:1015F000951B550BBB27AA2762177307840738F082
:101600009F5F5F4F220F331F441FAA1FA9F335D0DE
:101610000E2E3AF0E0E832D091505040E695001C92
:10162000CAF72BD0FE2F29D0660F771F881FBB1F4C
:10163000261737074807AB07B0E809F0BB0B802D2A
:10164000BF01FF2793585F4F3AF09E3F510578F056
:101650000C94DF0B0C942A0C5F3FE4F3983ED4F318
:10166000869577956795B795F7959F5FC9F7880F2A
:10167000911D9695879597F90895E1E0660F771F7C
:10168000881FBB1F621773078407BA0720F0621B0D
:10169000730B840BBA0BEE1F88F7E09508950E9438
:1016A0000F0C88F09F5798F0B92F9927B751B0F0D9
:1016B000E1F0660F771F881F991F1AF0BA95C9F7D6
:1016C00014C0B13091F00E94290CB1E008950C943F
:1016D000290C672F782F8827B85F39F0B93FCCF3F2
:1016E000869577956795B395D9F73EF49095809553
:1016F000709561957F4F8F4F9F4F0895E89409C073
:1017000097FB3EF490958095709561957F4F8F4F34
:101710009F4F9923A9F0F92F96E9BB279395F6954A
:10172000879577956795B795F111F8CFFAF4BB0FC8
:1017300011F460FF1BC06F5F7F4F8F4F9F4F16C02C
:10174000882311F096E911C0772321F09EE8872FB6
:10175000762F05C0662371F096E8862F70E060E072
:101760002AF09A95660F771F881FDAF7880F9695EB
:10177000879597F90895990F0008550FAA0BE0E88F
:10178000FEEF16161706E807F907C0F01216130643
:10179000E407F50798F0621B730B840B950B39F483
:1017A0000A2661F0232B242B252B21F408950A26E9
:1017B00009F4A140A6958FEF811D811D089597F929
:1017C0009F6780E870E060E008959FEF80EC0895E7
:1017D00000240A9416161706180609060895002410
:1017E0000A9412161306140605060895092E03948A
:1017F000000C11F4882352F0BB0F40F4BF2B11F4FE
:1018000060FF04C06F5F7F4F8F4F9F4F089557FD5C
:101810009058440F551F59F05F3F71F04795880F5E
:1018200097FB991F61F09F3F79F0879508951216F5
:1018300013061406551FF2CF4695F1DF08C01616A1
:1018400017061806991FF1CF869571056105089452
:101850000895E894BB2766277727CB0197F9089569
:101860000E94BB0B08F48FEF08950E94480C0C9463
:10187000F60B0E94E80B38F00E94EF0B20F0952346
:1018800011F00C94DF0B0C94E50B11240C942A0C32
:101890000E94070C70F3959FC1F3950F50E0551F00
:1018A000629FF001729FBB27F00DB11D639FAA27B5
:1018B000F00DB11DAA1F649F6627B00DA11D661F04
:1018C000829F2227B00DA11D621F739FB00DA11D25
:1018D000621F839FA00D611D221F749F3327A00DDF
:1018E000611D231F849F600D211D822F762F6A2F7B
:1018F00011249F5750409AF0F1F088234AF0EE0FE0
:10190000FF1FBB1F661F771F881F91505040A9F70C
:101910009E3F510580F00C94DF0B0C942A0C5F3F26
:10192000E4F3983ED4F3869577956795B795F79548
:10193000E7959F5FC1F7FE2B880F911D96958795C0
:1019400097F9089519F416F40C94E50B0C94E80C2F
:101950000E940F0CB8F39923C9F3B6F39F57550BA8
:1019600087FF0E94F60C0024A0E640EA9001805810
:101970005695979528F4805C660F771F881F20F096
:1019800026173707480730F4621B730B840B202996
:1019900031294A2BA69517940794202531254A27EB
:1019A00058F7660F771F881F20F02617370748075C
:1019B00030F4620B730B840B200D311D411DA0957B
:1019C00081F7B901842F9158880F969587950895CE
:1019D0009F3F31F0915020F4879577956795B795A3
:1019E000880F911D9695879597F9089591505040CD
:1019F000660F771F881FD2F708950E945C0AB7FF11
:101A00000895821B930B0895EE0FFF1F0590F4912C
:101A1000E02D09940F931F93CF93DF9382309105AC
:101A200010F482E090E0E0912203F091230320E0A3
:101A300030E0A0E0B0E0309719F14081518102819F
:101A4000138148175907C8F08417950769F4109750
:101A500031F012960C93129713961C9327C00093A3
:101A600022031093230322C02115310519F04217D8
:101A7000530718F49A01BD01EF01DF01F801DBCF34
:101A800021153105F9F0281B390B2430310580F47C
:101A90008A819B816115710521F0FB01938382830B
:101AA00004C09093230380932203FE01329644C026
:101AB000FE01E20FF31F8193919322503109398384
:101AC00028833AC02091200330912103232B41F435
:101AD00020910601309107013093210320932003C8
:101AE00020910401309105012115310541F42DB7F4
:101AF0003EB74091080150910901241B350BE0913C
:101B00002003F0912103E217F307A0F42E1B3F0BF3
:101B10002817390778F0AC014E5F5F4F241735075F
:101B200048F04E0F5F1F5093210340932003819391
:101B3000919302C0E0E0F0E0CF01DF91CF911F91DF
:101B40000F910895CF93DF93009709F481C0FC01B2
:101B5000329713821282A0912203B091230310972F
:101B600081F420813181820F931F209120033091D5
:101B700021032817390751F5F0932103E09320033F
:101B800067C0ED0120E030E0CE17DF0740F44A8166
:101B90005B819E0141155105F1F0EA01F5CFD38338
:101BA000C28340815181840F951FC817D90759F40A
:101BB00088819981840F951F0296918380838A8101
:101BC0009B81938382832115310529F4F0932303AC
:101BD000E09322033DC0E901FB83EA8349915991D7
:101BE000C40FD51FEC17FD0761F480819181840F2C
:101BF000951F0296E90199838883828193819B8353
:101C00008A83E0E0F0E012968D919C911397009703
:101C100019F0FD01DC01F7CF8D919C9111979D0189
:101C20002E5F3F4F820F931F20912003309121039D
:101C30002817390769F4309729F41092230310927A
:101C4000220302C013821282B0932103A0932003C7
:101C5000DF91CF91089581E090E0F8940C941A11EF
:101C6000AEE0B0E0E6E3FEE00C94F1100D891E89D1
:101C700086E08C831A8309838FEF9FE79E838D8391
:101C8000AE01475E5F4F6F89788DCE0101960E944D
:101C9000520EEF81F885E00FF11F10822E96E4E0DE
:101CA0000C940D11ABE0B0E0E8E5FEE00C94E3101D
:101CB0006C017B018A01FC0117821682838181FFFE
:101CC000CCC1CE0101963C01F6019381F70193FD51
:101CD000859193FF81917F01882309F4BAC18532F0
:101CE00039F493FD859193FF81917F01853229F429
:101CF000B60190E00E944910E7CF912C212C312CA5
:101D0000FFE1F315D8F08B3279F038F4803279F0B6
:101D10008332A1F4232D20611DC08D3261F0803308
:101D200069F4232D216016C0832D8260382EE32DA7
:101D3000E4603E2E2AC0F32DF8601DC037FC2DC094
:101D400020ED280F2A3040F08E32B9F436FC81C1E4
:101D5000232D2064322E19C036FE06C08AE0989EDC
:101D6000200D1124922E11C0EAE02E9E200D112488
:101D7000222EF32DF0623F2E08C08C3621F4832DE5
:101D80008068382E02C0883641F4F70193FD8591B2
:101D900093FF81917F018111B3CF982F9F7D95543F
:101DA000933028F40C5F1F4F9FE399830DC0833657
:101DB00031F0833771F0833509F059C021C0F80143
:101DC000808189830E5F1F4F88248394912C530157
:101DD00013C02801F2E04F0E511CF801A080B18021
:101DE00036FE03C0692D70E002C06FEF7FEFC501C2
:101DF0000E943E104C018201F32DFF773F2E16C04A
:101E0000280122E0420E511CF801A080B18036FE6C
:101E100003C0692D70E002C06FEF7FEFC5010E9423
:101E200033104C01F32DF0683F2E820133FC1BC0B0
:101E3000822D90E088169906B0F4B60180E290E019
:101E40000E9449102A94F4CFF50137FC859137FEA2
:101E500081915F01B60190E00E94491021102A94FF
:101E600021E0821A91088114910471F7E8C0843648
:101E700011F0893641F5F80137FE07C060817181A4
:101E8000828193810C5F1F4F08C060817181072E92
:101E9000000C880B990B0E5F1F4FF32DFF763F2E22
:101EA00097FF09C090958095709561957F4F8F4FF2
:101EB0009F4FF0683F2E2AE030E0A3010E9485107A
:101EC000882E861845C0853731F4232D2F7EB22EFB
:101ED0002AE030E025C0932D997FB92E8F36C1F0CE
:101EE00018F4883579F0B5C0803719F0883721F0BB
:101EF000B0C0E92FE061BE2EB4FE0DC0FB2DF46032
:101F0000BF2E09C034FE0AC0292F2660B22E06C09B
:101F100028E030E005C020E130E002C020E132E0FE
:101F2000F801B7FE07C060817181828193810C5FE7
:101F30001F4F06C06081718180E090E00E5F1F4FEF
:101F4000A3010E948510882E8618FB2DFF773F2E57
:101F500036FE0DC0232D2E7FA22E891458F434FE98
:101F60000BC032FC09C0832D8E7EA82E05C0B82C74
:101F7000A32C03C0B82C01C0B92CA4FE0FC0FE01D5
:101F8000E80DF11D8081803321F49A2D997EA92ED0
:101F900009C0A2FE06C0B394B39404C08A2D86780B
:101FA00009F0B394A3FC11C0A0FE06C0B21488F4DB
:101FB000280C922C9B180EC0B21460F4B60180E27B
:101FC00090E00E944910B394F7CFB21418F42B1884
:101FD00002C0982C212CA4FE10C0B60180E390E032
:101FE0000E944910A2FE17C0A1FC03C088E790E040
:101FF00002C088E590E0B6010CC08A2D867859F0C1
:10200000A1FE02C08BE201C080E2A7FC8DE2B60116
:1020100090E00E944910891438F4B60180E390E002
:102020000E9449109A94F7CF8A94F301E80DF11DAC
:102030008081B60190E00E9449108110F5CF2220E6
:1020400009F442CEB60180E290E00E9449102A9441
:10205000F6CFF6018681978102C08FEF9FEF2B9616
:10206000E2E10C94FF10FC010590615070400110FA
:10207000D8F7809590958E0F9F1F0895FC016150B1
:10208000704001900110D8F7809590958E0F9F1F9A
:1020900008950F931F93CF93DF93FB01238121FDBD
:1020A00003C08FEF9FEF2CC022FF16C046815781DF
:1020B000248135814217530744F4A081B1819D01E9
:1020C0002F5F3F4F318320838C93268137812F5F91
:1020D0003F4F3783268314C08B01EC01FB01008442
:1020E000F185E02D0995892BE1F6D80116968D91A1
:1020F0009C911797019617969C938E931697CE01F5
:10210000DF91CF911F910F910895FA01AA272830EE
:1021100051F1203181F1E8946F936E7F6E5F7F4FB4
:102120008F4F9F4FAF4FB1E03ED0B4E03CD0670F30
:10213000781F891F9A1FA11D680F791F8A1F911D83
:10214000A11D6A0F711D811D911DA11D20D009F4D3
:1021500068943F912AE0269F11243019305D319315
:10216000DEF6CF010895462F4770405D4193B3E0FE
:102170000FD0C9F7F6CF462F4F70405D4A3318F0A5
:10218000495D31FD4052419302D0A9F7EACFB4E056
:10219000A6959795879577956795BA95C9F700970E
:1021A0006105710508959B01AC010A2E06945795AF
:1021B000479537952795BA95C9F7620F731F841F06
:1021C000951FA01D08952F923F924F925F926F929C
:1021D0007F928F929F92AF92BF92CF92DF92EF92B7
:1021E000FF920F931F93CF93DF93CDB7DEB7CA1B38
:1021F000DB0B0FB6F894DEBF0FBECDBF09942A8863
:10220000398848885F846E847D848C849B84AA840A
:10221000B984C884DF80EE80FD800C811B81AA8197
:10222000B981CE0FD11D0FB6F894DEBF0FBECDBF62
:08223000ED010895F894FFCFC1
:102238000100000000002403800000000000850366
:0C224800D2048503E60682032564000032
:00000001FF
