:100000000C9452020C947A020C947A020C947A02A8
:100010000C947A020C947A020C947A020C947A0270
:100020000C947A020C947A020C947A020C947A0260
:100030000C947A020C947A020C947A020C947A0250
:100040000C94BC060C947A020C947A020C947A02FA
:100050000C947A020C947A020C947A020C947A0230
:100060000C947A020C947A0200000000230026000F
:10007000290066F9F966235CD5A2000000000000A3
:10008000005F00000007000700147F147F14242A7B
:100090007F2A122313086462364955225000050353
:1000A0000000001C2241000041221C0014083E08F0
:1000B0001408083E08080050300000080808080826
:1000C000006060000020100804023E5149453E00D7
:1000D000427F400042615149462141454B3118144D
:1000E000127F1027454545393C4A4949300171097D
:1000F00005033649494936064949291E0036360066
:100100000000563600000814224100141414141480
:1001100000412214080201510906324979413E7E0C
:100120001111117E7F494949363E414141227F41AB
:1001300041221C7F494949417F090909013E414942
:10014000497A7F0808087F00417F41002040413FF5
:10015000017F081422417F404040407F020C027F13
:100160007F0408107F3E4141413E7F090909063E58
:100170004151215E7F09192946464949493101010A
:100180007F01013F4040403F1F2040201F3F40383B
:10019000403F63140814630708700807615149451C
:1001A00043007F41410002040810200041417F00CC
:1001B00004020102044040404040000102040020CB
:1001C000545454787F484444383844444420384494
:1001D00044487F3854545418087E0901020C525286
:1001E000523E7F0804047800447D40002040443D96
:1001F000007F1028440000417F40007C04180478F0
:100200007C0804047838444444387C1414140808E6
:100210001414187C7C080404084854545420043FE7
:100220004440203C4040207C1C2040201C3C40306E
:10023000403C44281028440C5050503C4464544CDA
:1002400044000836410000007F00000041360800ED
:1002500010080810087846414678808080808080A9
:10026000000000000000000000000000000000008E
:100270000318080808080F98000000000D88000007
:10028000000009880000000008C8808080808CF889
:10029000000000000C7000000000000000000000E2
:1002A0000FF8080808080FF8000000000C00000014
:1002B000000008000003C00008008083E0808FF881
:1002C0000003F00007F80007700000F80007700056
:1002D0000070080E78080CF8001E70000D98001EC3
:1002E00070000988003F7000090880BFF0808D9879
:1002F000003B70000FF8003C700003F8001FF00096
:100300000000080FFFE8FFF80001FFF0FFF8000011
:10031000F8FC018000007E1C03C080809FCE86F028
:10032000000007C60C38000000E70818002000E7AE
:1003300000C80BFFFFEF0FF80FFFFFC70FF81F9D5F
:10034000DF870C983F9DDD8E0888F98D999E8888FF
:100350007C00003C0F887E000FF80798E47FFFF0D8
:100360000080E8FFFF880808F8FF00000000F8FFA1
:10037000FFE00000E07FFFF80000E08080FC80806C
:100380007E00001E00007C000007000038CD998729
:1003900000003DDDD98B88081FDDDB83800007FF6F
:1003A000FF81800003FFFFF9800080809FF980803B
:1003B00000007FD380000000FF0380000001F7836E
:1003C0008000080BFB8F08080007380F00000007AB
:1003D000D01E0000000FCFFC0000808EDFF0808078
:1003E000000E1FC00000000FD8000000000FDC004E
:1003F0000000080E5FF808080007EFFC000000038B
:10040000D9BF00000003D98F80008081FFF3C08036
:100410000000FFFDE00000003FFFE00000000007DB
:10042000F0000808080BF80800000000F8000000C1
:100430000000F80000000000780080808080B88014
:10044000000000003800000000003800000000003C
:10045000180000000000240027002A00000000000F
:10046000250028002B0004040404040404040202F0
:100470000202020203030303030301020408102023
:10048000408001020408102001020408102000002E
:100490000008000201000003040700000000000043
:1004A0000000F10711241FBECFEFD4E0DEBFCDBFA7
:1004B00011E0A0E0B1E0EAECFAE102C005900D9293
:1004C000A233B107D9F723E0A2E3B1E001C01D9246
:1004D000A933B207E1F712E0C2E5D2E004C02197E8
:1004E000FE010E944D09C135D107C9F70E940607D8
:1004F0000C94630D0C940000833081F028F481305B
:1005000099F08230A1F008958730A9F08830B9F0D1
:100510008430D1F4809180008F7D03C08091800071
:100520008F7780938000089584B58F7702C084B55B
:100530008F7D84BD08958091B0008F7703C0809136
:10054000B0008F7D8093B00008951F93CF93DF9309
:10055000282F30E0F901E257FB4F8491F901E6586A
:10056000FB4FD491F901EA59FB4FC491CC23C1F060
:10057000162F81110E947C02EC2FF0E0EE0FFF1F7E
:10058000E45AFB4FA591B4919FB7F894111104C0A0
:100590008C91D095D82302C0EC91DE2BDC939FBFC9
:1005A000DF91CF911F910895CF93DF9390E0FC01ED
:1005B000E658FB4F2491FC01EA59FB4F84918823B4
:1005C00061F190E0880F991FFC01EE5AFB4FC59135
:1005D000D491FC01E45AFB4FA591B491611109C07B
:1005E0009FB7F8948881209582238883EC912E23ED
:1005F0000BC0623061F49FB7F8948881322F309538
:1006000083238883EC912E2B2C939FBF06C08FB73A
:10061000F894E8812E2B28838FBFDF91CF91089526
:100620008E3008F08E508770806480937C008091BB
:100630007A00806480937A0080917A0086FDFCCFF6
:10064000809178002091790090E0922B08953FB737
:10065000F8948091310390913203A0913303B091CB
:10066000340326B5A89B05C02F3F19F00196A11DA4
:10067000B11D3FBFBA2FA92F982F8827820F911D38
:10068000A11DB11DBC01CD0142E0660F771F881F7F
:10069000991F4A95D1F708958F929F92AF92BF927A
:1006A000CF92DF92EF92FF926B017C010E942703B1
:1006B0004B015C01C114D104E104F104F1F00E948A
:1006C0002703DC01CB0188199909AA09BB09883ED7
:1006D0009340A105B10570F321E0C21AD108E108E9
:1006E000F10888EE880E83E0981EA11CB11CC1148D
:1006F000D104E104F10419F7DDCFFF90EF90DF9012
:10070000CF90BF90AF909F908F900895FC01DC0137
:100710001B969C012B5F3E4F41E08D9192858F3F50
:1007200039F4868198131AC085818F5F858307C04D
:10073000891301C04783A217B30779F7F2CF882343
:1007400051F0DF01A80FB11D19962C9119971A9637
:100750002C938150F4CF92878FEF86830895AF92C8
:10076000BF92CF92DF92EF92FF920F931F93CF939E
:10077000DF93EC018F81811137C08EE00E9410035E
:1007800023E030E0DC010E943209C12C34E0D32E9A
:10079000E12CF12CA70196010E94AF081FEF120F68
:1007A0008FE00E94100323E030E0DC010E94320958
:1007B000A70196010E94AF082150112349F08C81B6
:1007C0008250823008F434C011167CF582E02EC0CD
:1007D000222309F42FC08C81823060F1121614F4A8
:1007E0001C8228C081E022C006E914E092E8E92ECC
:1007F00094E0F92E2EE6C22E24E0D22EF801849148
:10080000F701A490F601B490BB2071F081110E9411
:100810007C02EB2DF0E0EE0FFF1FE859FF4FA59192
:10082000B4918C918A2151F71F8283E08C8302C09E
:100830002111D4CFDF91CF911F910F91FF90EF90B5
:10084000DF90CF90BF90AF9008950F931F93CF93F9
:10085000DF93082F60E086E00E94A502C7E0D0E0A9
:1008600010E0B8010C2E02C0759567950A94E2F766
:10087000617084E00E94A50261E083E00E94A5020D
:1008800060E083E00E94A502219758F761E086E0CE
:10089000DF91CF911F910F910C94A502CF93C82F98
:1008A00061E085E00E94A5028C2FCF910C94250475
:1008B000EF92FF920F931F93CF93DF938C01F80178
:1008C000C1918F01CC23D9F0F5E0CF02E0011124D2
:1008D000E12CF12CC05AD109FE01EE0DFF1DE658A6
:1008E000FF4F84910E944E048FEFE81AF80AE5E06A
:1008F000EE16F10489F780E00E944E04E0CFDF910C
:10090000CF911F910F91FF90EF900895CF93C82F33
:1009100060E085E00E94A5028C2FCF910C94250405
:10092000EF92FF920F931F93CF937C01C0E080E87A
:100930000E9486048C2F80640E94860400E010E0F0
:10094000F701E00FF11F80810E944E040F5F1F4FDF
:1009500004351105A9F7CF5F84E5E80EF11CC63018
:1009600031F7CF911F910F91FF90EF9008952F9243
:100970003F924F925F926F927F928F929F92AF922F
:10098000BF92CF92DF92EF92FF920F931F93CF937C
:10099000DF93CDB7DEB762970FB6F894DEBF0FBE18
:1009A000CDBF9E838D833B0158874F83FB0185918B
:1009B0009491B82E622F70E07A8B698B812C912CE8
:1009C0006E0D711D7C876B87802F90E09C838B83DD
:1009D0008C0D911D9E878D8720E3222E312C412C7A
:1009E000512C2A2D30E0388B2F8769897A898B85A5
:1009F0009C85681779070CF072C0CB80DC8097E08B
:100A0000E92EF12C262F022E000C330B3A87298772
:100A10006D857E85C616D7060CF051C08F819885EE
:100A20008816990608F047C0F7FE0CC09FEF891A98
:100A3000990AF301E80DF91D85919491B82E87E08C
:100A4000E82EF12C26E030E00C2D0C2C000C110BC4
:100A5000D8010E943209A20191010E94AF08ED81E4
:100A6000FE8134E5329FE00DF11D112469857A8500
:100A7000E60FF71F8B2D90E0A7016F857889461B45
:100A8000570B02C0959587954A95E2F7782F7170BC
:100A900079831A8288E0289F00191109112489811D
:100AA0009A8101C0880F0A95EAF79081892B80838B
:100AB00091E0E91AF1082FEFC21AD20AA9CF3FEF4D
:100AC000831A930AF301E80DF91D85919491B82ECC
:100AD00069897A896F5F7F4F7A8B698B86CF62963F
:100AE0000FB6F894DEBF0FBECDBFDF91CF911F913F
:100AF0000F91FF90EF90DF90CF90BF90AF909F90BD
:100B00008F907F906F905F904F903F902F900895BF
:100B10000E94740A4F925F926F927F928F929F927F
:100B2000AF92CF92EF92FF920F931F93CF93DF93E9
:100B300000D000D01F92CDB7DEB74C01FC0140853C
:100B4000518526E080E090E0FA01E80FF91F10825D
:100B5000019684359105C1F721504C5A5F4F211100
:100B6000F1CFF4018781811157C03401FAE06F0E93
:100B7000711C24012BEF421A2EEF520A65E1F62E6A
:100B8000F30181913F018F3FC9F06F2D0E9412093F
:100B9000F4E08F9F8001112484E0989F900111243C
:100BA000A12C44E0C42E54E0E52E44E050E062E77E
:100BB00070E0F401808591850E94B70446145704C3
:100BC000F9F6F4012681822F6AE00E94120996301C
:100BD00018F034E0A32E01C0A12C822F65E10E9401
:100BE0001209F4E08F9F8001112484E0989F900106
:100BF000112484E0C82E94E0E92E44E050E066E73A
:100C000070E0F401808591850E94B704F40180852D
:100C100091850E94900448C0F401808591850E94CE
:100C2000900484E0F401858380E09FEF24E0853028
:100C300020F4322F381B328701C092878F5F3196A4
:100C40008B3FA9F788E80E94860480E40E9486040E
:100C500086E191E00E945804F40185811F928F93F0
:100C600082E291E09F938F938E010F5F1F4F1F933E
:100C70000F930E94790A81EA0E94860482E40E940E
:100C80008604C8010E94580484E80E94860484E413
:100C90000E94860485E291E00E9458040F900F9014
:100CA0000F900F900F900F900F900F900F900F904C
:100CB0000F90DF91CF911F910F91FF90EF90CF9008
:100CC000AF909F908F907F906F905F904F9008951E
:100CD000CF93DF93FC018481813089F03CF4811152
:100CE00029C0828590E089519F4F0DC0823089F0E4
:100CF000833001F54285842F90E001960EC08285F5
:100D000090E08F5E9E4F6CEF70E00E941E09282FCE
:100D100011C04285842F90E0019765E170E00E9448
:100D20001E09282F35E1842F632F0E941209839F0B
:100D3000200D1124DF01AA5FBE4F8BEF90E03E91A2
:100D40003F3F41F0009729F0ED01219738813C9316
:100D500001C02287019798F786818F3F51F4EF01F8
:100D60000E9458082BEF30E040E050E00E94AF08AE
:100D70006E83DF91CF9108951F920F920FB60F925D
:100D800011242F933F938F939F93AF93BF938091A1
:100D90002D0390912E03A0912F03B0913003309139
:100DA0002C0323E0230F2D3720F40196A11DB11D44
:100DB00005C026E8230F0296A11DB11D20932C0328
:100DC00080932D0390932E03A0932F03B0933003B1
:100DD0008091310390913203A0913303B091340399
:100DE0000196A11DB11D8093310390933203A0930E
:100DF0003303B0933403BF91AF919F918F913F9193
:100E00002F910F900FBE0F901F901895789484B576
:100E1000826084BD84B5816084BD85B5826085BDF6
:100E200085B5816085BD80916E00816080936E0084
:100E30001092810080918100826080938100809176
:100E40008100816080938100809180008160809327
:100E500080008091B10084608093B1008091B000E7
:100E600081608093B00080917A00846080937A00E2
:100E700080917A00826080937A0080917A0081600C
:100E800080937A0080917A00806880937A00109233
:100E9000C10081E20E9486048FEB0E94860484E0F8
:100EA0000E94860484E10E94860480E20E948604F7
:100EB0008CE00E948604C8EFD1E080E00E944E04DE
:100EC0002197D9F742E351E026E080E090E0FA0173
:100ED000E80FF91F1082019684359105C1F7215062
:100EE0004C5A5F4F2111F1CFA12C80E3C82E94E51D
:100EF000E92E00E048EF51E06AE572E082E391E01C
:100F00000E94B70482E391E00E9490046CEB72E0CF
:100F100080E090E00E944C0386E091E00E9453093B
:100F2000EC018EE091E09983888383E08C8314E068
:100F30001D838FEF8E831F8282E391E099878887DC
:100F400062E088E00E94D4021D83FE0180E09FEFF2
:100F500024E0853020F4322F381B328701C092877D
:100F60008F5F31968B3FA9F7D0932B03C0932A0351
:100F7000C0E0D0E080912A0390912B03DC01ED9139
:100F8000FC910190F081E02D099580912A039091C8
:100F90002B03DC01ED91FC910280F381E02D09959A
:100FA00080912A0390912B03DC01ED91FC91048048
:100FB000F581E02D099580912A0390912B03DC01A6
:100FC000ED91FC910680F781E02D099560EF70E0CE
:100FD00080E090E00E944C03209761F20E940000A4
:100FE000C9CF61E087E00E94D40261E086E00E9400
:100FF000D40261E085E00E94D40261E084E00E94B6
:10100000D40261E083E00E94D40260E087E00E94A5
:10101000A50261E087E00C94A5028F929F92AF92A7
:10102000BF92CF92DF92EF92FF92CF93DF93EC01CA
:10103000688179818A819B8161157105810591059E
:1010400021F464E279ED8BE597E02DE133EF41E0A7
:1010500050E00E94AF0849015A019B01AC01A7EA88
:10106000B1E40E94CE086B017C01ACEEB4EFA501A7
:1010700094010E94DC08DC01CB018C0D9D1DAE1D8E
:10108000BF1DB7FF03C00197A109B04888839983AA
:10109000AA83BB83BC01CD019F77DF91CF91FF90E5
:1010A000EF90DF90CF90BF90AF909F908F9008957A
:1010B0008F929F92AF92BF92CF92DF92EF92FF9268
:1010C00060910001709101018091020190910301F2
:1010D000611571058105910521F464E279ED8BE5D7
:1010E00097E02DE133EF41E050E00E94AF08490165
:1010F0005A019B01AC01A7EAB1E40E94CE086B0142
:101100007C01ACEEB4EFA50194010E94DC08DC0187
:10111000CB018C0D9D1DAE1DBF1DB7FF03C00197F8
:10112000A109B0488093000190930101A0930201AE
:10113000B0930301BC01CD019F77FF90EF90DF904A
:10114000CF90BF90AF909F908F90089560930001D3
:101150007093010180930201909303010895052E7D
:1011600097FB1EF400940E94C60857FD07D00E940A
:10117000E10807FC03D04EF40C94C6085095409546
:10118000309521953F4F4F4F5F4F08959095809533
:10119000709561957F4F8F4F9F4F08950E9403096F
:1011A000A59F900DB49F900DA49F800D911D1124BB
:1011B0000895B7FF0C94CE080E94CE08821B930BB3
:1011C0000895A1E21A2EAA1BBB1BFD010DC0AA1F88
:1011D000BB1FEE1FFF1FA217B307E407F50720F0A0
:1011E000A21BB30BE40BF50B661F771F881F991F1B
:1011F0001A9469F760957095809590959B01AC0164
:10120000BD01CF010895A29FB001B39FC001A39F6C
:10121000700D811D1124911DB29F700D811D11242F
:10122000911D0895991B79E004C0991F961708F045
:10123000961B881F7A95C9F78095089597FB072E0E
:1012400016F4009407D077FD09D00E94390907FCF5
:1012500005D03EF4909581959F4F089570956195C6
:101260007F4F08950E940309B7FF0895821B930BD7
:101270000895AA1BBB1B51E107C0AA1FBB1FA617DD
:10128000B70710F0A61BB70B881F991F5A95A9F72F
:1012900080959095BC01CD010895EE0FFF1F05903C
:1012A000F491E02D09940F931F93CF93DF93823035
:1012B000910510F482E090E0E0913703F09138035B
:1012C00020E030E0A0E0B0E0309719F1408151819A
:1012D0000281138148175907C8F08417950769F4EC
:1012E000109731F012960C93129713961C9327C007
:1012F000009337031093380322C02115310519F0EC
:101300004217530718F49A01BD01EF01DF01F801FC
:10131000DBCF21153105F9F0281B390B24303105BD
:1013200080F48A819B816115710521F0FB01938313
:10133000828304C09093380380933703FE01329672
:1013400044C0FE01E20FF31F8193919322503109B3
:10135000398328833AC02091350330913603232BFB
:1013600041F4209106013091070130933603209318
:10137000350320910401309105012115310541F417
:101380002DB73EB74091080150910901241B350B40
:10139000E0913503F0913603E217F307A0F42E1B1A
:1013A0003F0B2817390778F0AC014E5F5F4F2417C9
:1013B000350748F04E0F5F1F5093360340933503B7
:1013C0008193919302C0E0E0F0E0CF01DF91CF91F3
:1013D0001F910F910895CF93DF93009709F481C077
:1013E000FC01329713821282A0913703B091380327
:1013F000109781F420813181820F931F2091350352
:10140000309136032817390751F5F0933603E093EE
:10141000350367C0ED0120E030E0CE17DF0740F470
:101420004A815B819E0141155105F1F0EA01F5CF3A
:10143000D383C28340815181840F951FC817D90778
:1014400059F488819981840F951F02969183808336
:101450008A819B81938382832115310529F4F0933E
:101460003803E09337033DC0E901FB83EA834991E8
:101470005991C40FD51FEC17FD0761F4808191814C
:10148000840F951F0296E901998388838281938155
:101490009B838A83E0E0F0E012968D919C911397F4
:1014A000009719F0FD01DC01F7CF8D919C91119708
:1014B0009D012E5F3F4F820F931F20913503309186
:1014C00036032817390769F4309729F41092380346
:1014D0001092370302C013821282B0933603A09396
:1014E0003503DF91CF91089581E090E0F8940C945A
:1014F000630DAEE0B0E0EFE7FAE00C943A0D0D8931
:101500001E8986E08C831A8309838FEF9FE79E8371
:101510008D83AE01475E5F4F6F89788DCE01019656
:101520000E949B0AEF81F885E00FF11F10822E9632
:10153000E4E00C94560DABE0B0E0E1EAFAE00C9484
:101540002C0D6C017B018A01FC01178216828381BC
:1015500081FFCCC1CE0101963C01F6019381F701D8
:1015600093FD859193FF81917F01882309F4BAC18E
:10157000853239F493FD859193FF81917F01853206
:1015800029F4B60190E00E94920CE7CF912C212C17
:10159000312CFFE1F315D8F08B3279F038F480323A
:1015A00079F08332A1F4232D20611DC08D3261F0CA
:1015B000803369F4232D216016C0832D8260382E7C
:1015C000E32DE4603E2E2AC0F32DF8601DC037FCE9
:1015D0002DC020ED280F2A3040F08E32B9F436FCB1
:1015E00081C1232D2064322E19C036FE06C08AE048
:1015F000989E200D1124922E11C0EAE02E9E200DFF
:101600001124222EF32DF0623F2E08C08C3621F4D7
:10161000832D8068382E02C0883641F4F70193FD8F
:10162000859193FF81917F018111B3CF982F9F7D89
:101630009554933028F40C5F1F4F9FE399830DC09E
:10164000833631F0833771F0833509F059C021C0FA
:10165000F801808189830E5F1F4F88248394912C29
:10166000530113C02801F2E04F0E511CF801A08075
:10167000B18036FE03C0692D70E002C06FEF7FEFCE
:10168000C5010E94870C4C018201F32DFF773F2E8C
:1016900016C0280122E0420E511CF801A080B18042
:1016A00036FE03C0692D70E002C06FEF7FEFC50109
:1016B0000E947C0C4C01F32DF0683F2E820133FC1C
:1016C0001BC0822D90E088169906B0F4B60180E226
:1016D00090E00E94920C2A94F4CFF50137FC85919A
:1016E00037FE81915F01B60190E00E94920C2110BB
:1016F0002A9421E0821A91088114910471F7E8C0BC
:10170000843611F0893641F5F80137FE07C0608153
:101710007181828193810C5F1F4F08C0608171814C
:10172000072E000C880B990B0E5F1F4FF32DFF76D1
:101730003F2E97FF09C090958095709561957F4FDA
:101740008F4F9F4FF0683F2E2AE030E0A3010E94A8
:10175000CE0C882E861845C0853731F4232D2F7E78
:10176000B22E2AE030E025C0932D997FB92E8F3616
:10177000C1F018F4883579F0B5C0803719F0883792
:1017800021F0B0C0E92FE061BE2EB4FE0DC0FB2DEC
:10179000F460BF2E09C034FE0AC0292F2660B22E85
:1017A00006C028E030E005C020E130E002C020E1C2
:1017B00032E0F801B7FE07C06081718182819381B8
:1017C0000C5F1F4F06C06081718180E090E00E5F6A
:1017D0001F4FA3010E94CE0C882E8618FB2DFF7789
:1017E0003F2E36FE0DC0232D2E7FA22E891458F4D5
:1017F00034FE0BC032FC09C0832D8E7EA82E05C09E
:10180000B82CA32C03C0B82C01C0B92CA4FE0FC067
:10181000FE01E80DF11D8081803321F49A2D997E1F
:10182000A92E09C0A2FE06C0B394B39404C08A2DA9
:10183000867809F0B394A3FC11C0A0FE06C0B214D0
:1018400088F4280C922C9B180EC0B21460F4B601D8
:1018500080E290E00E94920CB394F7CFB21418F497
:101860002B1802C0982C212CA4FE10C0B60180E3D6
:1018700090E00E94920CA2FE17C0A1FC03C088E772
:1018800090E002C088E590E0B6010CC08A2D867811
:1018900059F0A1FE02C08BE201C080E2A7FC8DE2FC
:1018A000B60190E00E94920C891438F4B60180E3EE
:1018B00090E00E94920C9A94F7CF8A94F301E80D7D
:1018C000F11D8081B60190E00E94920C8110F5CF4D
:1018D000222009F442CEB60180E290E00E94920CF0
:1018E0002A94F6CFF6018681978102C08FEF9FEF91
:1018F0002B96E2E10C94480DFC010590615070407C
:101900000110D8F7809590958E0F9F1F0895FC01C8
:101910006150704001900110D8F7809590958E0F1E
:101920009F1F08950F931F93CF93DF93FB01238194
:1019300021FD03C08FEF9FEF2CC022FF16C0468110
:101940005781248135814217530744F4A081B18126
:101950009D012F5F3F4F318320838C9326813781F8
:101960002F5F3F4F3783268314C08B01EC01FB01AF
:101970000084F185E02D0995892BE1F6D8011696B2
:101980008D919C911797019617969C938E9316971D
:10199000CE01DF91CF911F910F910895FA01AA27EF
:1019A000283051F1203181F1E8946F936E7F6E5FA2
:1019B0007F4F8F4F9F4FAF4FB1E03ED0B4E03CD050
:1019C000670F781F891F9A1FA11D680F791F8A1F33
:1019D000911DA11D6A0F711D811D911DA11D20D09A
:1019E00009F468943F912AE0269F11243019305D54
:1019F0003193DEF6CF010895462F4770405D419345
:101A0000B3E00FD0C9F7F6CF462F4F70405D4A3391
:101A100018F0495D31FD4052419302D0A9F7EACF59
:101A2000B4E0A6959795879577956795BA95C9F788
:101A300000976105710508959B01AC010A2E06947B
:101A40005795479537952795BA95C9F7620F731F34
:101A5000841F951FA01D08952F923F924F925F9271
:101A60006F927F928F929F92AF92BF92CF92DF92AE
:101A7000EF92FF920F931F93CF93DF93CDB7DEB713
:101A8000CA1BDB0B0FB6F894DEBF0FBECDBF0994A7
:101A90002A88398848885F846E847D848C849B84FE
:101AA000AA84B984C884DF80EE80FD800C811B810C
:101AB000AA81B981CE0FD11D0FB6F894DEBF0FBE3B
:0A1AC000CDBFED010895F894FFCFAB
:101ACA000100000000003903800000000000AF039D
:101ADA00680686038A05596F75722073636F72658B
:101AEA003A00256400707265737320627574746FAE
:021AFA006E007C
:00000001FF
