:100000000C9472060C949A060C949A060C949A0618
:100010000C949A060C949A060C949A060C949A06E0
:100020000C949A060C949A060C949A060C949A06D0
:100030000C949A060C949A060C949A060C949A06C0
:100040000C94300C0C949A060C949A060C949A0614
:100050000C949A060C949A060C949A060C949A06A0
:100060000C949A060C949A0666F9F966235CD5A25C
:10007000EEEEEEEEEEEEFFFFFFFFFFFFAAAAAAAA4A
:10008000ABFB7F40000175FFE800000002FEF000BE
:10009000000001FFA800000003FF7000000001FF46
:1000A000E800000002FEF000000001FFA8000000D0
:1000B00002FF7000000001FFE800000002FEF000F7
:1000C000000001FFA800000002FF7000000001FF17
:1000D000E800000002FEF000000001FFA8000000A0
:1000E00002FF7000000001FFAA88888AAAFEDDDDF9
:1000F000D5DDDDFFAAAAAAAAAAFF7F40000155FF0D
:10010000A800000002FED000000001FFA8000000CF
:1001100002FF7000000001FFA800000002FED000F6
:10012000000001FFA800000003FE7000000001FFB6
:10013000A800000002FED000000001FFA80000009F
:1001400002FE5000000001FFA800000002FED000E7
:10015000000001FFA800000002FE7000000001FF87
:10016000AAA88888AAFED5D5D44455FFAAAAAAAAC7
:10017000ABFF5F5000157DFFA88000000AFF7000F4
:10018000000001FFA800000002FF7000000001FF56
:10019000E800000002FEF000000001FFA8000000DF
:1001A00003FF7000000001FFA800000002FEF00045
:1001B000000001FFA800000003FF7000000001FF25
:1001C000E800000002FEF000000001FFA8000000AF
:1001D00003FF7000000001FFEA8888888AEEF54579
:1001E00055555FFFAAAAAAAAAAAA7D7105151001F2
:1001F000EAAAAA8AA8A2FCF1C55D3CE5AAAAAAAA15
:10020000A8A27171451731F5EAAAAA8AA88AFFF156
:1002100044050400AAAA2AAAA8A27FF5051F3D67E3
:10022000EAAAAA8AA8A2FFFDD45D1DF5BAAAAAAAC5
:10023000A8A273F740151000EAAAAA8AA8AAFDE0AE
:10024000455D1DE5BAAAAAAAAAA27FF5555F39F7AE
:10025000EAAAAA8AA8A2FFF5C41D3C05FAAAAAAA7E
:10026000AAAA7DDFFFFFFFFF0000000000C003F827
:10027000067C0DFC0BFE4FFC6FFE3FF437FC17F8BD
:1002800011F000000000000000005000480036029D
:1002900078085A27749C317E74F1538E76403D80E5
:1002A0007800440030000000000000F000F819FC65
:1002B00038EC18FC3AF8345028B8047C02FE00FCF4
:1002C00000EC01FC00F80000000000000000005FEE
:1002D00000000007000700147F147F14242A7F2ADF
:1002E00012231308646236495522500005030000AA
:1002F000001C2241000041221C0014083E08140882
:10030000083E08080050300000080808080800608F
:1003100060000020100804023E5149453E00427F23
:10032000400042615149462141454B311814127F2A
:100330001027454545393C4A4949300171090503B3
:100340003649494936064949291E0036360000001B
:1003500056360000081422410014141414140041ED
:100360002214080201510906324979413E7E1111D9
:10037000117E7F494949363E414141227F41412218
:100380001C7F494949417F090909013E4149497A90
:100390007F0808087F00417F41002040413F017FE6
:1003A000081422417F404040407F020C027F7F04BE
:1003B00008107F3E4141413E7F090909063E4151F7
:1003C000215E7F09192946464949493101017F01CA
:1003D000013F4040403F1F2040201F3F4038403FEA
:1003E0006314081463070870080761514945430006
:1003F0007F41410002040810200041417F000402B7
:1004000001020440404040400001020400205454D6
:1004100054787F484444383844444420384444485D
:100420007F3854545418087E0901020C5252523E2F
:100430007F0804047800447D40002040443D007F54
:100440001028440000417F40007C041804787C0898
:1004500004047838444444387C14141408081414F0
:10046000187C7C080404084854545420043F444039
:10047000203C4040207C1C2040201C3C4030403C24
:1004800044281028440C5050503C4464544C4400C0
:100490000836410000007F000000413608001008C7
:1004A0000810087846414678FFFFFFFFFFFFFFFF77
:1004B000FFFFFFFFFFE0000001FFFF9FFFFFFC7F4A
:1004C000FF3FFFFFFF7FFE7FFFFFFFBFFEFFFFFF3E
:1004D000FF9FFDFFFFFFFFDFFDFFFFC1FFCFFDFF20
:1004E000FF9FFFCFFDFFFF7FFFCFFDFFF71FFFCF78
:1004F000FDFF8779FFCFFDFC0F41FFCFFDF8EF1F18
:10050000FFCFFDFE0FF1FFCFFDFFE383FFCFFDFF28
:10051000FF0FFFCFFDFC676FFFCFFDF8076FFFCF29
:10052000FDFB8F61FFCFFDFB2303FFCFFDFC7BBFF6
:10053000FFCFFDFFFFFDFFCFFDFC078DFFCFFDF9D6
:10054000F36DFFCFFDFBFB6DFFCFFDF9F36DFFCF2B
:10055000FDFDE763FFCFFDFFFF7FFFCFFDFFFBFF4B
:10056000FFCFFDFF83FFFFCFFDFC0F71FFCFFDF835
:10057000EF01FFCFFDFC0F3FFFCFFDFF837FFFCFDC
:10058000FDFFFF7FFFCFFDFFFFF1FFCFFDF8030170
:10059000FFCFFDFBFB2DFFCFFDFBFB6DFFCFFDF87C
:1005A000036DFFCFFDFF0F6FFFCFFDFFFF7DFFFF4F
:1005B000FDF80391FFFFFDFB9B07C7FFFDFBDB631E
:1005C000D0FFFDFFFF639E1FFDFFFF690F8FFDFF43
:1005D000FF4F4FCFFFFFFF1F4FCFFFFFFFFE4FCF5C
:1005E000FFFFFFFE0FEFFFF7FFE40FEFFF83FF04B6
:1005F000AFEFFC10E0008FEFF9F240000FEFFB735C
:100600000020A7EFFA0B0C60E7EFFA930900E7EF81
:10061000FBF3091287EFFA03031807EFFAFB0988C7
:1006200087E7F3DB090887E7F21B010087E7F20B96
:10063000030080E7F3DB0308CC27F20B09185FC740
:10064000F20B0C081CE7F3FB096038EFF27B193062
:1006500038EFF21B0C0E7CCFF3FB18084FDFF3E3EF
:100660000181861FF3053C1F8C9FF03C21E3D1BF25
:10067000FBFF2F0367BFF9C7F0004F3FFDC7818124
:10068000127FFCC60F0E207FFE7FFF7F70FFFE00F3
:10069000000000FFFFFFFFFFFFFFFFFFFFFFFFFF67
:1006A0000088808888000000000000000022A02050
:1006B0002000000000100000000A88A88800000048
:1006C00040500000002AA0AAA800000140700000CD
:1006D000000AA8AAA8F80001407041FC002AAAAAB2
:1006E000A3FE01FFFFFFF7FF02BFFFFFEFFE007F4A
:1006F000807FE7FF0ABFAA7FE7FF3F9F907FF7FF5A
:10070000BFAFA8F8FBFE7FCF81E0F9FCFFEF2980A7
:10071000FAFAFFE71100FE00FFEF2808FEAAFFEF3C
:100720000400FDFCFFEF28A0FBFE7FDF8000F7FF49
:10073000BF9FA8A8EFFE443F8000E7FFA03FAA00AC
:10074000EFFF1F1F903FF7FFBF8FA0FFEBFE7FCF94
:1007500007FFFBFCFFEF8FFFFAFAFFE7FFFFFC50FC
:10076000FFEEEAAAFEA8FFE7FFFFF9FCFFEFFFFF9D
:10077000FBFE7FDF807FF7FE3FAFAA7FEFFE0F3FDC
:10078000847FE7FF0A3FA8F8E7FF3F1F91C0F7FF0C
:10079000FFAFA988EBFEFFCF0180FBFFFFEF282012
:1007A000FAFEFFE71000FE7FFFEFA888FEAAFFCF4A
:1007B0008000FCFCFFEFA8A0FBFE7FDF9000F7FFAE
:1007C000BFBF8A00EFFE1C3F803FE7FFAABFA0FF2C
:1007D000EFFF3F9F07FFF7FFFFEF8FFFEBFE7FCF9E
:1007E000FFFFF3FEFFEFFAABFBFEFFE7FFFFFC7836
:1007F000FFEFFFFFFEA8FFEF807FFCF8FFEFAA7F6F
:10080000FBFE7FDF807FF3FE3F8FA8F8EBFE0C3FFF
:1008100081E0E7FF2E3F2980EFFF7FDF0180F7FFB8
:10082000FFEF2808EFFEFFCF0000F3FEFFEF28A048
:10083000FBFCFFE71000FCF0FFEFA888FE88FFCF6D
:100840008000FC70FFAFAA00FBF87FCF901FF3FE83
:100850003E9FA0FFEBFE003F03FFE7FF22BF8FFF9D
:10086000E7FF017FFFFFF7FF80EEEAAAEFFE000639
:100870001F4DC7FE002AAAAAA3FE00041F1541FCB3
:10088000008AAAAA88A8000C0504400000282AAA09
:10089000A0000010150000000003FE00000000038F
:1008A000FE000000F87FFFFF0000F87FFFFF000060
:1008B000F87FFFFF0000F87FFFFF0000FFFFFFFF52
:1008C000F0000FFC3FF0F8000FFC3FF0F8000FFCC9
:1008D0003FF0F8000FFC3FF0F800007FFFF0F80059
:1008E000007FFFF0F800007FFFF0F800007FFFF0CE
:1008F000F800007FFFF0F800007FFFF00000007FAD
:10090000FFF00000007FFFF00000007FFFF000001C
:10091000007FFFF0F800007FFFF0F800007FFFF09D
:10092000F800007FFFF0F800007FFFF0F8000FFCF8
:100930003FF0F8000FFC3FF0F8000FFC3FF0F8002C
:100940000FFC3FF0F800FFFFFFFFF00CF87FFFFF08
:1009500003FCF87FFFFF0FC0F87FFFFF000CF87F5C
:10096000FFFF03FC0003FE000FC00003FE000600B3
:100970000003FE0007000003FE0001BC0003FFFFB0
:1009800007F800003FFF0F0000003FFF003C0000A1
:100990003FFF07F800003FFF0F1800000000003085
:1009A0000000000000600000000041C00000007C6A
:1009B0004F80000000C4481C0000008447FC000079
:1009C0000085CFC0000000878840000000800840FC
:1009D00000000001C87C0000007FCFF0000000F4A0
:1009E000060000000084007C000000840FF400007A
:1009F00000840C04000000F8080400000060081CDB
:100A000000000007CBF80000007F0780000000C452
:100A1000003C0000008407FC00000085CF8400003B
:100A200000FFC884000000F80884000000018884EA
:100A30000000007FC800000000F0407C0000008043
:100A40004FF0000000804CB000000080489800008B
:100A50000080488C00000007CB84000000FF4F801E
:100A6000000000C8400000000088478400000088A3
:100A70004F44000000880844000000800844000043
:100A80000000087C0000000008700000000000006A
:100A90008080808080800000000000000000000056
:100AA0000000000000000318080808080F98000064
:100AB00000000D880000000009880000000008C840
:100AC000808080808CF8000000000C700000000026
:100AD0000000000000000FF8080808080FF80000E8
:100AE00000000C000000000008000003C000080027
:100AF0008083E0808FF80003F00007F800077000A3
:100B000000F8000770000070080E78080CF8001E4E
:100B100070000D98001E70000988003F70000908E1
:100B200080BFF0808D98003B70000FF8003C700093
:100B300003F8001FF0000000080FFFE8FFF80001B5
:100B4000FFF0FFF80000F8FC018000007E1C03C0ED
:100B500080809FCE86F0000007C60C38000000E7BA
:100B60000818002000E700C80BFFFFEF0FF80FFF89
:100B7000FFC70FF81F9DDF870C983F9DDD8E08880B
:100B8000F98D999E88887C00003C0F887E000FF8C4
:100B90000798E47FFFF00080E8FFFF880808F8FF6F
:100BA00000000000F8FFFFE00000E07FFFF8000019
:100BB000E08080FC80807E00001E00007C0000073A
:100BC000000038CD998700003DDDD98B88081FDDF6
:100BD000DB83800007FFFF81800003FFFFF98000B7
:100BE00080809FF9808000007FD380000000FF0399
:100BF00080000001F7838000080BFB8F08080007C6
:100C0000380F00000007D01E0000000FCFFC0000CE
:100C1000808EDFF08080000E1FC00000000FD80023
:100C20000000000FDC000000080E5FF80808000755
:100C3000EFFC00000003D9BF00000003D98F800043
:100C40008081FFF3C0800000FFFDE00000003FFF57
:100C5000E00000000007F0000808080BF80800009A
:100C60000000F80000000000F8000000000078001C
:100C700080808080B8800000000038000000000004
:100C800038000000000018000000000024002700C9
:100C90002A0000000000250028002B0000000000B2
:100CA00023002600290004040404040404040202AE
:100CB00002020202030303030303010204081020DB
:100CC00040800102040810200102040810200000E6
:100CD00000080002010000030407000000000000FB
:100CE0000000130E11241FBECFEFD4E0DEBFCDBF36
:100CF00011E0A0E0B1E0EEE0F7E202C005900D9255
:100D0000AC35B107D9F723E0ACE5B1E001C01D92E5
:100D1000A336B207E1F716E0C2E7D6E004C0219798
:100D2000FE010E946F0FC137D107C9F70E947A0CEC
:100D30000C9485130C940000833081F028F48130EA
:100D400099F08230A1F008958730A9F08830B9F089
:100D50008430D1F4809180008F7D03C08091800029
:100D60008F7780938000089584B58F7702C084B513
:100D70008F7D84BD08958091B0008F7703C08091EE
:100D8000B0008F7D8093B0000895CF93DF93E6EDA0
:100D9000FCE08491E2ECFCE0D491EEEAFCE0C4914A
:100DA000CC2391F081110E949C06EC2FF0E0EE0F15
:100DB000FF1FE456F34FA591B491EC91ED2381E030
:100DC00090E021F480E002C080E090E0DF91CF91DC
:100DD00008951F93CF93DF93282F30E0F901E2535A
:100DE000F34F8491F901E654F34FD491F901EA5598
:100DF000F34FC491CC23C1F0162F81110E949C06A1
:100E0000EC2FF0E0EE0FFF1FEE56F34FA591B491DB
:100E10009FB7F894111104C08C91D095D82302C0CB
:100E2000EC91DE2BDC939FBFDF91CF911F91089552
:100E3000CF93DF9390E0FC01E654F34F2491FC0143
:100E4000EA55F34F8491882361F190E0880F991F50
:100E5000FC01E857F34FC591D491FC01EE56F34FD6
:100E6000A591B491611109C09FB7F894888120952C
:100E700082238883EC912E230BC0623061F49FB7EC
:100E8000F8948881322F309583238883EC912E2B20
:100E90002C939FBF06C08FB7F894E8812E2B288330
:100EA0008FBFDF91CF9108958E3008F08E508770FC
:100EB000806480937C0080917A00806480937A00C3
:100EC00080917A0086FDFCCF809178002091790096
:100ED00090E0922B08953FB7F89480915B03909136
:100EE0005C03A0915D03B0915E0326B5A89B05C08D
:100EF0002F3F19F00196A11DB11D3FBFBA2FA92F99
:100F0000982F8827820F911DA11DB11DBC01CD0115
:100F100042E0660F771F881F991F4A95D1F7089501
:100F20008F929F92AF92BF92CF92DF92EF92FF92F9
:100F30006B017C010E946B074B015C01C114D10461
:100F4000E104F104F1F00E946B07DC01CB01881988
:100F50009909AA09BB09883E9340A105B10570F320
:100F600021E0C21AD108E108F10888EE880E83E07A
:100F7000981EA11CB11CC114D104E104F10419F79D
:100F8000DDCFFF90EF90DF90CF90BF90AF909F901C
:100F90008F90089581E090E0089508958AEF90E0A1
:100FA0000895FC0186819FEF980F933518F0978183
:100FB0009195978397812AE0929F800D11248683D3
:100FC000089524E0FC01258380E09FEF2AE5853029
:100FD00020F4322F381B328701C092878F5F319601
:100FE0008B3FA9F70895FC01DC011B969C012B5F48
:100FF0003E4F41E08D9192858F3F39F48681981361
:101000001AC085818F5F858307C0891301C047831C
:10101000A217B30779F7F2CF882351F0DF01A80FA9
:10102000B11D19962C9119971A962C938150F4CFD3
:1010300092878FEF86830895CF92DF92EF92FF928F
:101040001F93CF93DF93EC018F81811135C08EE028
:101050000E94540723E030E0DC010E94540FC12CB1
:1010600024E0D22EE12CF12CA70196010E94D10E92
:101070001FEF120F8FE00E94540723E030E0DC01E5
:101080000E94540FA70196010E94D10E21501123F6
:1010900041F08C8182508230B8F0111694F482E0D5
:1010A00011C0222399F08C81823080F0121614F442
:1010B0001C820CC081E006C00E94C506892BE1F7A6
:1010C0001F8283E08C8302C02111F0CFDF91CF918A
:1010D0001F91FF90EF90DF90CF900895AC0196E0C4
:1010E00020E030E0FA01E20FF31F10822F5F3F4F44
:1010F00024353105B9F791504C5A5F4F9111F0CF1B
:1011000008952F923F924F925F926F927F928F92AB
:101110009F92AF92BF92CF92DF92EF92FF920F9386
:101120001F93CF93DF93CDB7DEB762970FB6F894D6
:10113000DEBF0FBECDBF9E838D833B0158874F839B
:10114000FB0185919491B82E622F70E07A8B698BA8
:10115000812C912C6E0D711D7C876B87802F90E008
:101160009C838B838C0D911D9E878D8720E3222E7F
:10117000312C412C512C2A2D30E0388B2F876B8558
:101180007C8589899A89861797070CF072C0CB8075
:10119000DC8097E0E92EF12C282F022E000C330B77
:1011A0003A8729876D857E85C616D7060CF051C013
:1011B0008F8198858816990608F047C0F7FE0CC005
:1011C0009FEF891A990AF301E80DF91D8591949111
:1011D000B82E87E0E82EF12C26E030E00C2D0C2C08
:1011E000000C110BD8010E94540FA20191010E9422
:1011F000D10EED81FE8134E5329FE00DF11D112409
:1012000069857A85E60FF71F8B2D90E0A7016F8522
:101210007889461B570B02C0959587954A95E2F74A
:10122000782F717079831A8288E0289F001911093C
:10123000112489819A8101C0880F0A95EAF790816B
:10124000892B808391E0E91AF1082FEFC21AD20AA4
:10125000A9CF3FEF831A930AF301E80DF91D859199
:101260009491B82E69897A896F5F7F4F7A8B698BE9
:1012700086CF62960FB6F894DEBF0FBECDBFDF916A
:10128000CF911F910F91FF90EF90DF90CF90BF9083
:10129000AF909F908F907F906F905F904F903F9016
:1012A0002F9008950F931F93CF93DF93082F60E043
:1012B00086E00E94E906C7E0D0E010E0B8010C2EFD
:1012C00002C0759567950A94E2F7617084E00E9408
:1012D000E90661E083E00E94E90660E083E00E94A5
:1012E000E906219758F761E086E0DF91CF911F91E1
:1012F0000F910C94E906CF93C82F61E085E00E941E
:10130000E9068C2FCF910C945209EF92FF920F9324
:101310001F93CF93DF938C01F801C1918F01CC23F0
:10132000D9F0F5E0CF02E0011124E12CF12CC05AF4
:10133000D109FE01EE0DFF1DE853FD4F84910E947F
:101340007B098FEFE81AF80AE5E0EE16F10489F759
:1013500080E00E947B09E0CFDF91CF911F910F9138
:10136000FF90EF900895CF93C82F60E085E00E9432
:10137000E9068C2FCF910C945209EF92FF920F93B4
:101380001F93CF937C01C0E080E80E94B3098C2FAB
:1013900080640E94B30900E010E0F701E00FF11F44
:1013A00080810E947B090F5F1F4F04351105A9F74B
:1013B000CF5F84E5E80EF11CC63031F7CF911F9165
:1013C0000F91FF90EF9008952F923F924F925F926E
:1013D0006F927F928F929F92AF92CF92EF920F93E4
:1013E000CF93DF93CDB7DEB72C970FB6F894DEBF5F
:1013F0000FBECDBF3C01FC01848195810E946E0827
:101400008CE0EAE0F1E0DE01119601900D928A9500
:10141000E1F72301F8E04F0E511CCE0101964C017B
:101420001E019DE0290E311CF20181912F018230B5
:1014300089F08330E1F0813059F5A12C60E1C62EAE
:1014400070E1E72EF4010181208140E250E068EA7A
:1014500072E019C0A12C40E1C42E50E1E52EF40148
:101460000181208140E250E068E872E00CC0A12CCC
:1014700020E1C22E30E1E32EF4010181208140E21F
:1014800050E068E672E0F301848195810E94810852
:10149000F2E08F0E911C8214930431F6A12C80E3AC
:1014A000C82E94E5E92E00E020E048EF51E060E727
:1014B00070E0F301848195810E948108F3018481A9
:1014C00095812C960FB6F894DEBF0FBECDBFDF918D
:1014D000CF910F91EF90CF90AF909F908F907F9092
:1014E0006F905F904F903F902F900C94BD09AF92FA
:1014F000CF92EF920F93CF93DF93EC018C819D817C
:101500000E946E08A12C80E3C82E94E5E92E00E02D
:101510002E8148EF51E068E978E08C819D810E943E
:1015200081088C819D81DF91CF910F91EF90CF90B9
:10153000AF900C94BD09CF93DF93FC01848181307F
:1015400089F03CF4811129C0828590E089519F4F38
:101550000DC0823089F0833001F54285842F90E000
:1015600001960EC0828590E08F5E9E4F6CEF70E01A
:101570000E94400F282F11C04285842F90E00197D0
:1015800065E170E00E94400F282F35E1842F632F22
:101590000E94340F839F200D1124DF01AA5FBE4FEC
:1015A0008BEF90E03E913F3F41F0009729F0ED0135
:1015B000219738813C9301C02287019798F7868153
:1015C0008F3F51F4EF010E947A0E2BEF30E040E0A4
:1015D00050E00E94D10E6E83DF91CF9108958F92DB
:1015E0009F92AF92BF92EF92FF920F931F93CF9370
:1015F000DF93FC012685222339F1EC018085838766
:1016000081858487828585878F01085F1F4F7F01D1
:10161000FBE0EF0EF11C83E0882E912CA12CB12C65
:101620000E947A0EA50194010E94D10EDC01CB012B
:101630000196A11DB11DF80181938F01EE15FF05E3
:1016400079F78E8581508E87DF91CF911F910F9111
:10165000FF90EF90BF90AF909F908F900895CF92A2
:10166000DF92EF92FF921F93CF93DF93FC012685C9
:1016700021112AC0EC0110E0C12C84E0D82EE12C0D
:10168000F12C0E94C506892B89F011110FC08FE043
:101690000E94540723E030E0DC010E94540FA701B0
:1016A00096010E94D10E1FEF120FEBCF0E947A0E0F
:1016B00027E030E040E050E00E94D10EDC01CB0199
:1016C0000A96A11DB11D8E87DF91CF911F91FF90CA
:1016D000EF90DF90CF9008950E9496104F925F9206
:1016E0006F927F928F929F92AF92CF92EF92FF92E2
:1016F0000F931F93CF93DF9300D000D01F92CDB7ED
:10170000DEB74C01FC01808591850E946E08F401D2
:101710008781811157C03401FAE06F0E711C2401DA
:101720002BEF421A2EEF520A65E1F62EF30181915A
:101730003F018F3FC9F06F2D0E94340FF4E08F9F5F
:101740008001112484E0989F90011124A12C44E091
:10175000C42E54E0E52E44E050E068E670E0F40169
:10176000808591850E94810846145704F9F6F4019A
:101770002681822F6AE00E94340F963018F034E000
:10178000A32E01C0A12C822F65E10E94340FF4E04A
:101790008F9F8001112484E0989F9001112484E0A0
:1017A000C82E94E0E92E44E050E06CE670E0F401CD
:1017B000808591850E948108F401808591850E9431
:1017C000BD093AC0F401808591850E94BD09C4011C
:1017D0000E94E10788E80E94B30980E40E94B309EF
:1017E00080E491E00E948509F40185811F928F9326
:1017F0008CE491E09F938F938E010F5F1F4F1F9397
:101800000F930E949B1081EA0E94B30982E40E9418
:10181000B309C8010E94850984E80E94B30984E4E1
:101820000E94B3098FE491E00E9485090F900F9008
:101830000F900F900F900F900F900F900F900F90B0
:101840000F90DF91CF911F910F91FF90EF90CF906C
:10185000AF909F908F907F906F905F904F90089582
:101860001F920F920FB60F9211242F933F938F93D5
:101870009F93AF93BF938091570390915803A0918A
:101880005903B0915A033091560323E0230F2D37AB
:1018900020F40196A11DB11D05C026E8230F029674
:1018A000A11DB11D209356038093570390935803B5
:1018B000A0935903B0935A0380915B0390915C030A
:1018C000A0915D03B0915E030196A11DB11D8093AF
:1018D0005B0390935C03A0935D03B0935E03BF91A1
:1018E000AF919F918F913F912F910F900FBE0F90CD
:1018F0001F901895789484B5826084BD84B581600A
:1019000084BD85B5826085BD85B5816085BD8091CA
:101910006E00816080936E00109281008091810042
:10192000826080938100809181008160809381003A
:10193000809180008160809380008091B1008460FC
:101940008093B1008091B00081608093B00080915D
:101950007A00846080937A0080917A00826080931C
:101960007A0080917A00816080937A0080917A0079
:10197000806880937A001092C10062E088E00E9443
:10198000180781E20E94B3098FEB0E94B30984E03B
:101990000E94B30984E10E94B30980E20E94B30966
:1019A0008CE00E94B309C8EFD1E080E00E947B097F
:1019B0002197D9F78CE591E00E946E08A12C70E385
:1019C000C72EE4E5EE2E00E020E048EF51E068EAA3
:1019D00074E08CE591E00E9481088CE591E00E9422
:1019E000BD096CEA7DE080E090E00E9490078CE504
:1019F00091E00E946E088CE591E00E94BD0964EFC1
:101A000071E080E090E00E949007C1E0412CF4E09A
:101A10005F2E612C712C8CE591E00E946E08C23023
:101A200081F0C330D1F0C13039F5A12C50E3C52E7F
:101A300064E5E62E00E020E048EF51E060E97AE05E
:101A400017C0A12C30E3C32E44E5E42E00E020E0D3
:101A500048EF51E068E978E00BC0A12C90E3C92E73
:101A600024E5E22E00E020E048EF51E060EA76E075
:101A70008CE591E00E9481088CE591E00E94BD090F
:101A800065E070E080E090E00E9490078EE00E94A8
:101A9000540723E030E0DC010E94540FA3019201BF
:101AA0000E94D10EDA01C9010197A109B109D82F0D
:101AB000D1950E94C506D11102C0813009F3CD0F26
:101AC000C43024F4C11103C0C3E001C0C1E08111DE
:101AD000A2CFC230E9F0C33081F1C13009F060C05B
:101AE00086E091E00E94750FEC018AE191E0998314
:101AF000888383E08C8384E08D838FEF8E831F82C5
:101B00008CE591E099878887CE010E94E10744C067
:101B100088E090E00E94750FFC0186E391E09183DC
:101B2000808381E0868387838CE591E0958384833D
:101B3000F0935503E093540333C08FE090E00E948C
:101B4000750FEC0188E291E09983888381E08E83B0
:101B50008F831E868CE591E09D838C833E0188E017
:101B6000680E711C2E01AEE04A0E511C83E0C82E97
:101B7000D12CE12CF12C0E947A0EA70196010E9433
:101B8000D10EDC01CB010196A11DB11DF3018193A2
:101B90003F014E165F0679F7D0935503C093540367
:101BA000C0E0D0E08091540390915503DC01ED91A9
:101BB000FC910190F081E02D099580915403909162
:101BC0005503DC01ED91FC910280F381E02D099534
:101BD0008091540390915503DC01ED91FC910480B8
:101BE000F581E02D09958091540390915503DC0116
:101BF000ED91FC910680F781E02D099580915403C9
:101C000090915503DC01ED91FC910084F185E02D6C
:101C10000995BC0180E090E00E949007209711F2A6
:101C20000E940000BFCF61E087E00E94180761E0DA
:101C300086E00E94180761E085E00E94180761E0D5
:101C400084E00E94180761E083E00E94180760E0CA
:101C500087E00E94E90661E087E00C94E9068F9234
:101C60009F92AF92BF92CF92DF92EF92FF92CF936B
:101C7000DF93EC01688179818A819B81611571050F
:101C80008105910521F464E279ED8BE597E02DE182
:101C900033EF41E050E00E94D10E49015A019B010F
:101CA000AC01A7EAB1E40E94F00E6B017C01ACEE3E
:101CB000B4EFA50194010E94FE0EDC01CB018C0D56
:101CC0009D1DAE1DBF1DB7FF03C00197A109B04800
:101CD00088839983AA83BB83BC01CD019F77DF9161
:101CE000CF91FF90EF90DF90CF90BF90AF909F90FB
:101CF0008F9008958F929F92AF92BF92CF92DF9272
:101D0000EF92FF92609100017091010180910201B8
:101D100090910301611571058105910521F464E23B
:101D200079ED8BE597E02DE133EF41E050E00E9443
:101D3000D10E49015A019B01AC01A7EAB1E40E940E
:101D4000F00E6B017C01ACEEB4EFA50194010E9492
:101D5000FE0EDC01CB018C0D9D1DAE1DBF1DB7FF1E
:101D600003C00197A109B04880930001909301013D
:101D7000A0930201B0930301BC01CD019F77FF90B6
:101D8000EF90DF90CF90BF90AF909F908F9008958D
:101D9000609300017093010180930201909303010D
:101DA0000895052E97FB1EF400940E94E80E57FD3F
:101DB00007D00E94030F07FC03D04EF40C94E80EEA
:101DC00050954095309521953F4F4F4F5F4F089567
:101DD00090958095709561957F4F8F4F9F4F089597
:101DE0000E94250FA59F900DB49F900DA49F800D7C
:101DF000911D11240895B7FF0C94F00E0E94F00E6F
:101E0000821B930B0895A1E21A2EAA1BBB1BFD0196
:101E10000DC0AA1FBB1FEE1FFF1FA217B307E407C9
:101E2000F50720F0A21BB30BE40BF50B661F771F21
:101E3000881F991F1A9469F7609570958095909501
:101E40009B01AC01BD01CF010895A29FB001B39FDA
:101E5000C001A39F700D811D1124911DB29F700DB3
:101E6000811D1124911D0895991B79E004C0991FCB
:101E7000961708F0961B881F7A95C9F780950895E4
:101E800097FB072E16F4009407D077FD09D00E9427
:101E90005B0F07FC05D03EF4909581959F4F089508
:101EA000709561957F4F08950E94250FB7FF0895A3
:101EB000821B930B0895AA1BBB1B51E107C0AA1FED
:101EC000BB1FA617B70710F0A61BB70B881F991FDB
:101ED0005A95A9F780959095BC01CD010895EE0F14
:101EE000FF1F0590F491E02D09940F931F93CF935A
:101EF000DF938230910510F482E090E0E09161037D
:101F0000F091620320E030E0A0E0B0E0309719F1FA
:101F1000408151810281138148175907C8F0841705
:101F2000950769F4109731F012960C931297139657
:101F30001C9327C0009361031093620322C02115F4
:101F4000310519F04217530718F49A01BD01EF014A
:101F5000DF01F801DBCF21153105F9F0281B390B22
:101F60002430310580F48A819B816115710521F04F
:101F7000FB019383828304C0909362038093610387
:101F8000FE01329644C0FE01E20FF31F819391934C
:101F900022503109398328833AC020915F03309160
:101FA0006003232B41F42091060130910701309307
:101FB000600320935F0320910401309105012115F6
:101FC000310541F42DB73EB7409108015091090108
:101FD000241B350BE0915F03F0916003E217F307D8
:101FE000A0F42E1B3F0B2817390778F0AC014E5F89
:101FF0005F4F2417350748F04E0F5F1F5093600363
:1020000040935F038193919302C0E0E0F0E0CF0141
:10201000DF91CF911F910F910895CF93DF93009798
:1020200009F481C0FC01329713821282A0916103EE
:10203000B0916203109781F420813181820F931F48
:1020400020915F03309160032817390751F5F09311
:102050006003E0935F0367C0ED0120E030E0CE173E
:10206000DF0740F44A815B819E0141155105F1F083
:10207000EA01F5CFD383C28340815181840F951F3C
:10208000C817D90759F488819981840F951F029642
:10209000918380838A819B8193838283211531057B
:1020A00029F4F0936203E09361033DC0E901FB83EF
:1020B000EA8349915991C40FD51FEC17FD0761F4CC
:1020C00080819181840F951F0296E901998388830D
:1020D000828193819B838A83E0E0F0E012968D9168
:1020E0009C911397009719F0FD01DC01F7CF8D91BA
:1020F0009C9111979D012E5F3F4F820F931F20915E
:102100005F03309160032817390769F4309729F489
:10211000109262031092610302C013821282B09384
:102120006003A0935F03DF91CF91089581E090E079
:10213000F8940C948513AEE0B0E0E1EAF0E10C9481
:102140005C130D891E8986E08C831A8309838FEFC7
:102150009FE79E838D83AE01475E5F4F6F89788DC9
:10216000CE0101960E94BD10EF81F885E00FF11FAE
:1021700010822E96E4E00C947813ABE0B0E0E3EC30
:10218000F0E10C944E136C017B018A01FC01178273
:102190001682838181FFCCC1CE0101963C01F601FC
:1021A0009381F70193FD859193FF81917F018823AE
:1021B00009F4BAC1853239F493FD859193FF819179
:1021C0007F01853229F4B60190E00E94B412E7CF76
:1021D000912C212C312CFFE1F315D8F08B3279F0C2
:1021E00038F4803279F08332A1F4232D20611DC0B0
:1021F0008D3261F0803369F4232D216016C0832D68
:102200008260382EE32DE4603E2E2AC0F32DF86064
:102210001DC037FC2DC020ED280F2A3040F08E3233
:10222000B9F436FC81C1232D2064322E19C036FE4C
:1022300006C08AE0989E200D1124922E11C0EAE07B
:102240002E9E200D1124222EF32DF0623F2E08C069
:102250008C3621F4832D8068382E02C0883641F4F4
:10226000F70193FD859193FF81917F018111B3CF98
:10227000982F9F7D9554933028F40C5F1F4F9FE358
:1022800099830DC0833631F0833771F0833509F0BF
:1022900059C021C0F801808189830E5F1F4F8824B7
:1022A0008394912C530113C02801F2E04F0E511C6E
:1022B000F801A080B18036FE03C0692D70E002C035
:1022C0006FEF7FEFC5010E94A9124C018201F32D2F
:1022D000FF773F2E16C0280122E0420E511CF80164
:1022E000A080B18036FE03C0692D70E002C06FEFA0
:1022F0007FEFC5010E949E124C01F32DF0683F2E26
:10230000820133FC1BC0822D90E088169906B0F440
:10231000B60180E290E00E94B4122A94F4CFF50155
:1023200037FC859137FE81915F01B60190E00E94F4
:10233000B41221102A9421E0821A91088114910488
:1023400071F7E8C0843611F0893641F5F80137FE9F
:1023500007C060817181828193810C5F1F4F08C02B
:1023600060817181072E000C880B990B0E5F1F4F47
:10237000F32DFF763F2E97FF09C0909580957095BD
:1023800061957F4F8F4F9F4FF0683F2E2AE030E0DE
:10239000A3010E94F012882E861845C0853731F4BB
:1023A000232D2F7EB22E2AE030E025C0932D997F79
:1023B000B92E8F36C1F018F4883579F0B5C0803762
:1023C00019F0883721F0B0C0E92FE061BE2EB4FECD
:1023D0000DC0FB2DF460BF2E09C034FE0AC0292FAA
:1023E0002660B22E06C028E030E005C020E130E0D3
:1023F00002C020E132E0F801B7FE07C060817181C0
:10240000828193810C5F1F4F06C06081718180E0E3
:1024100090E00E5F1F4FA3010E94F012882E8618D5
:10242000FB2DFF773F2E36FE0DC0232D2E7FA22ED3
:10243000891458F434FE0BC032FC09C0832D8E7E03
:10244000A82E05C0B82CA32C03C0B82C01C0B92CF1
:10245000A4FE0FC0FE01E80DF11D8081803321F440
:102460009A2D997EA92E09C0A2FE06C0B394B394FA
:1024700004C08A2D867809F0B394A3FC11C0A0FE95
:1024800006C0B21488F4280C922C9B180EC0B2140B
:1024900060F4B60180E290E00E94B412B394F7CFEA
:1024A000B21418F42B1802C0982C212CA4FE10C0D2
:1024B000B60180E390E00E94B412A2FE17C0A1FC16
:1024C00003C088E790E002C088E590E0B6010CC048
:1024D0008A2D867859F0A1FE02C08BE201C080E20D
:1024E000A7FC8DE2B60190E00E94B412891438F482
:1024F000B60180E390E00E94B4129A94F7CF8A94D8
:10250000F301E80DF11D8081B60190E00E94B41244
:102510008110F5CF222009F442CEB60180E290E08E
:102520000E94B4122A94F6CFF6018681978102C0E8
:102530008FEF9FEF2B96E2E10C946A13FC0105905C
:10254000615070400110D8F7809590958E0F9F1FB5
:102550000895FC016150704001900110D8F78095FA
:1025600090958E0F9F1F08950F931F93CF93DF9326
:10257000FB01238121FD03C08FEF9FEF2CC022FFC1
:1025800016C046815781248135814217530744F490
:10259000A081B1819D012F5F3F4F318320838C93B8
:1025A000268137812F5F3F4F3783268314C08B01ED
:1025B000EC01FB010084F185E02D0995892BE1F602
:1025C000D80116968D919C911797019617969C931A
:1025D0008E931697CE01DF91CF911F910F910895A1
:1025E000FA01AA27283051F1203181F1E8946F9344
:1025F0006E7F6E5F7F4F8F4F9F4FAF4FB1E03ED0EA
:10260000B4E03CD0670F781F891F9A1FA11D680F87
:10261000791F8A1F911DA11D6A0F711D811D911DBA
:10262000A11D20D009F468943F912AE0269F11242F
:102630003019305D3193DEF6CF010895462F477093
:10264000405D4193B3E00FD0C9F7F6CF462F4F70EE
:10265000405D4A3318F0495D31FD4052419302D04C
:10266000A9F7EACFB4E0A6959795879577956795F2
:10267000BA95C9F700976105710508959B01AC01F2
:102680000A2E06945795479537952795BA95C9F719
:10269000620F731F841F951FA01D08952F923F92F4
:1026A0004F925F926F927F928F929F92AF92BF9262
:1026B000CF92DF92EF92FF920F931F93CF93DF930E
:1026C000CDB7DEB7CA1BDB0B0FB6F894DEBF0FBE6B
:1026D000CDBF09942A88398848885F846E847D84B8
:1026E0008C849B84AA84B984C884DF80EE80FD80BA
:1026F0000C811B81AA81B981CE0FD11D0FB6F89430
:0E270000DEBF0FBECDBFED010895F894FFCFF0
:10270E0001000000000063038000040518052C057D
:10271E00041518152C15000000001C089B0AF30761
:10272E006E0BCE07000000002F0BEF0ACD07E40959
:10273E00CA0700000000CD07D107CD07770ACE07E4
:10274E00596F75722073636F72653A00256400705D
:0C275E007265737320627574746F6E00F6
:00000001FF
